:020000040000FA
:10000000021305022003FFFFFFFFFF02200BFFFF8B
:10001000FFFFFF020E67FFFFFFFFFF02201BFFFF36
:10002000FFFFFF022023FFFFFFFFFF02202BFFFF48
:10003000FFFFFF022033FFFFFFFFFF020EAAFFFFBB
:10004000FFFFFF022043FFFFFFFFFF02204BFFFFE8
:10005000FFFFFF022053FFFFFFFFFF02205BFFFFB8
:10006000FFFFFF022063FFFFFFFFFF02206BFFFF88
:10007000FFFFFF022073FFFFFFFFFF02207BFFFF58
:10008000FFFFFF022083FFFFFFFFFF02208BFFFF28
:10009000FFFF70DFFFFF040000000002000000C847
:1000A0000300030369A5020269A501000000000026
:1000B00004003273000074F812104C900393E06057
:1000C0001590030274FEF0900304744DF0A37405C0
:1000D000F07A0112068C7F0102116974F712104C3C
:1000E00074FF1212717E00801F851882851983E0CB
:1000F00064FE70069003877401F085188285198369
:10010000E0F8900384E068F07C017D00AA18AB1948
:10011000120E228B09EA450970030201F385188249
:10012000851983E064EF70027E07E0C0E0900387EA
:10013000E0FA900385E0F8EA28F8E43400F9740264
:1001400028F582740339F583D0E0F0900387E060EE
:100150009814600E14602C14603C14605214606893
:100160008098900384E4F0851882851983E09003D9
:1001700086F0C394809003874004E40200F974027F
:100180000200F9851882851983E0900382F09003BC
:100190008774030200F9851882851983E090038330
:1001A000F0900386E0601990038774040200F990D0
:1001B0000385E004F0F8900386E06860030200FA2B
:1001C00090038774050200F9900385E4F09003879B
:1001D000F0900384E0F8851882851983E068600355
:1001E0000200FA900382E0644D60030200FA1203F9
:1001F000288002EEF9740112123D7F020211697427
:10020000F712104C74FB121271EAFEEBFF75080432
:1002100075090078081212D574021212EE7A907BDA
:10022000007904120ECB740212123D12067E1213D4
:100230003FE0687003A3E069701285188285198316
:10024000E0F47003A3E0F4600302030874041212E4
:10025000E61206E48A088B09A808A9097402121399
:100260003FE8F0A3E9F0740412133FE0600879015D
:100270001200B6020321851882851983E068700395
:10028000A3E0697076851882851983E0F47003A372
:10029000E0F47019740212133F7410F0A37420F08C
:1002A0008518828519837410F0A37420F0750801F5
:1002B00075090078081212D574021212EE7A247BA6
:1002C00008120F4F740212123D75080478081212BA
:1002D000D574021212EE7A907B007904120ECB7460
:1002E0000212123D12067E12133FE0687003A3E073
:1002F000697004790280067904800279031200B6DD
:100300008E828F83741E80058E828F83E4F01206A6
:100310007E12133FE0687003A3E0697004790180E6
:1003200002790074050201F774E912104C74F81296
:100330001271900307E0FA900306E0F9FEEAFCE48C
:10034000CCFDEE2CED3408FF751001750F00750E15
:10035000068E088F097402780812129CC39508FC57
:10036000E49509FD74022CF51474033DF515E514AC
:100370002497F516E5153420F517EE2410F508E45A
:100380003FF509EEF50CEF5401F50D8E128F137445
:100390000978121212F685120A900383E01460574E
:1003A00014700302046F1470030204E61460102436
:1003B000FE70030205A11470030206510206617566
:1003C0000E03794E120C619003071206747402F04A
:1003D000A374401206727408120672F0A3F0741827
:1003E000C3940704F510AA10A90F12068CA90E7465
:1003F0000812123D02083E750E04794E120C61EE91
:10040000450D7005A90A120FB5C3EE9425EF9408A7
:10041000503FC3E5089424E50994084034E51424CA
:1004200096F8E5153420F988828983E0701E8516D8
:1004300082851783E070159003887401F0888289A3
:100440008374A5F08516828517838004900388E461
:10045000F075081075090078081212D57C087D0324
:10046000EEFAEFFB120F4F740212123D0203E67513
:100470000E05C3E50A947995E04006750F01020365
:10048000E675104075110078101212D57C097D03B5
:100490007402780C12129CAA0CAB0DA90A120ECB96
:1004A000740212123D900307E0A3F0900306E0A34C
:1004B000F0751043C3EE9425EF940840030203E661
:1004C000C3E5089424E509940850030203E6900369
:1004D00088E070030203E6A816A91788828983E4DE
:1004E000F0A3F00203E675080475090078081212FB
:1004F000D574021212EE7A907B007904120ECB743E
:100500000212123D740212133FE0F8A3E0F98518BD
:1005100082851983E0687003A3E0698518828519D4
:1005200083700BE0F47003A3E0F470578009E0F4EB
:100530007003A3E0F4700D8518828519837410F0A0
:10054000A37420F012067E12133FE8F0A3E9F075C1
:10055000080178081212D574021212EE7A247B0870
:10056000120F4F740212123D75080478081212D54A
:1005700074021212EE7A907B007904120ECB740290
:1005800012123D12067E12133FE0687003A3E06969
:100590007006750E010203E6750E02750F07020361
:1005A000E6900391E06007640260030203E6EAFF5D
:1005B0007A01790012068CE060030206458003127E
:1005C0000D22120D2CE970F7740412133F12066607
:1005D000740412133F780812132385080C85090D43
:1005E000850A0E850B0F9005A2780C1212C27404B6
:1005F00012133F780C121314E5084509450A450B00
:1006000070CE8EC2E5C554E04FF5C5740412133F99
:10061000120666740412133F780812132385080C1F
:1006200085090D850A0E850B0F9005A2780C121214
:10063000C2740412133F780C121314E508450945DF
:100640000A450B70CE7A01790012068C79080203F4
:10065000EFE9900393F070030203E6750E090203BD
:10066000E679060203EFE4F0A37426F0A3E4F0A316
:10067000F022F0A3E4F0A3F0A3F0A3F0A3228518E6
:1006800082851983E0F8A3E0F974022274F812104D
:100690004CEAFE900305E0D2E7F0E9A3F0EE900308
:1006A00003F08E0874042AFE7C028004E062080CC9
:1006B000ECFA3395E0FB74022AF58274033BF58370
:1006C000EEF8C3EA98EB9400A2D265D03340DDE5A2
:1006D00008F074012A0C3395E0FD7A027B03120EB8
:1006E000520200D674E912104C7582007583FE1216
:1006F00012048A168B177514007515008A828B8375
:10070000E4F0900391E07006D2AAD2AF80046402B4
:10071000700579001200B6750C00750D20750E007D
:10072000750F00900391E0600464027015120D22B1
:100730001200DBE9F87409686003020814790012FA
:1007400000B675080075090278081212D5740212F5
:1007500012EE850C08850D09AA08E5095407FB85EA
:100760000E0A850F0B740B7808121258A908120E86
:10077000CB740212123D7E007F009005AAC0828ECB
:1007800010EFF5113395E0F512F513850C08850D82
:1007900009850E0A850F0B780879101212AF9005A3
:1007A000A678081212C2758305D08278081211E566
:1007B000501D851882851983E5822EF582E5833FD9
:1007C000F583E0F9AA14AB151208438A148B150EB1
:1007D000EE70010FC3EF940240A09005AE780C12AA
:1007E00012C29005B2780C1211E54003020723797A
:1007F00000AA14AB1512084379001208438B159018
:100800000391E07004C2AFC2AAEA451570277AA529
:100810007BA58021E870030207427406687003021A
:1008200007427407687003020742851682851783A2
:100830007401F080BA7582007583021212047F1071
:10084000021169C008C0097C088A088B09740F78F6
:10085000081212F6E508F8EA25E0FAEB33FBE9A204
:10086000E7500474014AFAE8A2E0500874216AFAD9
:1008700074106BFBE9C333F91CEC70CDD009D008C0
:100880002274F812104C78007900802274942EF5AE
:1008900082E43403F583E08A828B83F0900414129F
:1008A0000A014005900414E4F008E870010990047E
:1008B00014E0FEA3E06E6007C3E89CE99D40CDE82C
:1008C000FAE9FB7F0102116974F712104C90049849
:1008D000E0F509A3E0F508F8E509C398F895E0F913
:1008E000E508C39509E8500B120AE3701178007906
:1008F00000801B247F500109C39CE99D50EF7A00C2
:100900007B008041E004F0D2E908E8700109C3E807
:100910009CE99D502C8A828B83E0C0E0900499E092
:10092000FE74182EF582E43404F583D0E0120AD365
:1009300090049AE4F0900499E0C3947F40C6E48068
:10094000C5E8FAE9FB7F02021169C082C083C2E9EF
:10095000900498E0F8A3E0686017741828F582E422
:100960003404F583E0F5C1900498120AFA4002E4D9
:10097000F0020D4074F812104C7800790090051DBB
:10098000E07055A3E0705175F900C28FC284A28354
:1009900040FCA28F4004A28350F8AEF9C28FA2831C
:1009A0005004D2848032EEC0E0E0FE1209F6D0E0BE
:1009B000F090051E120AFA40D9E4F080D51209F62B
:1009C000E08A828B83F090051D120A014005900594
:1009D0001DE4F008E870010990051DE0FEA3E06E3B
:1009E0006007C3E89CE99D40D4E8497006E4F090B4
:1009F000051DF00208BF749D2EF582E43404F583D2
:100A000022E004120AD7C394802274F812104C908A
:100A100005A0E0FEF890059FE0FFEEC39FE0500DBB
:100A2000C398F895E0F9120AE270188012C398F89A
:100A300095E0F9E8247F500109C39CE99D4004EC4E
:100A40004D70077A007B00020AD08A828B83E0F522
:100A5000F9A3AA82AB83780179008008E004F0084A
:100A6000E8700109C3E89CE99D50278A828B83E0E6
:100A7000C0E09005A0E0FE741F2EF582E43405F579
:100A800083D0E0120AD39005A0E0C3947F40CDE468
:100A900080CCC28FA28340FCC284A28F4004A28378
:100AA00050F890059F120AEDE0F5F9C28F90059F6E
:100AB000E0FAA3E06A90059F7005120AED80051226
:100AC0000AFA4002E4F0A28350D0D284E8FAE9FBAB
:100AD0000208C3120AD722F08A828B83A3AA82ABB0
:100AE0008322E824FF18E934FFF9E84922E0FA7488
:100AF0001F2AF582E43405F58322E004F0C39480D4
:100B00002274FB121271C2009005CA7808121323D6
:100B10009005CA7401F0A3F0A37469F0A374A5F062
:100B20009005B678081212877004D20080159005DF
:100B3000BA78081212876008E59D54186410700393
:100B4000022000120C87A2005003020C04AA18AB6A
:100B5000191201FFE97003020C04851882851983BC
:100B6000E0C3943C500CE0F8743CC398FA95E0FB69
:100B700080047A007B00120D45E97003020C04909A
:100B80000391E06401700C75F800C2AB539AF7D280
:100B9000EA805E79071200B68003120D22120D2C36
:100BA000E970F7740112133FE4F0A37426F0A3E494
:100BB000F0A3F0740112133F780812132385080C78
:100BC00085090D850A0E850B0F9005A2780C12126F
:100BD000C2740112133F780C121314E5084509453D
:100BE0000A450B70CE758600C2AAC28B539AFBC20F
:100BF000E990000174CDF0022000C2AF75C9AB7559
:100C0000C95B80FE750800750900750A00750B0048
:100C1000900391E0701BD2AAD2AF79051200B6E022
:100C20007003120D221200DBE9F874096870098064
:100C3000E9794E120C6180ED74016870E2E0701782
:100C4000120D229005BE78081212C29005C27808D3
:100C50001211E550EBC2AAC2AF75C9AB75C95B8072
:100C6000FEC082C08378109005A1E0C3995015752D
:100C7000B60FE5B4A2E750FAE5BBC39940F118E816
:100C800070EDE9F0020D40C082C08353BEFBE59DCC
:100C9000A2E650FA0078F8790100120AE270FA75BB
:100CA000C6807480659E70FA43BE049062707408BA
:100CB000F0794A120C6190000174F5F07403F5D5D7
:100CC00075D489A2A0E433900391F0A2E05029D218
:100CD0008453F3F753F3EF53FDF743FD10538FF7AE
:100CE00053F7DF43FC2043F10253F5DF75F820434F
:100CF000F4F0D2FED2AB802853FF3F85FFFF53F1C3
:100D0000FE43F30C53F2F375868075C48090049B08
:100D1000E4F0A3F075C2D875C50B75C402438640D4
:100D2000801E800312094AA2E940F922C082C083D2
:100D3000900498E0F8A3E0686004790180027900EB
:100D4000D083D0822274F112104C74FF1212717E83
:100D500000900391E06401706CC28490039274016E
:100D6000F07508388E098E0A8E0B7C017D00AA185A
:100D7000AB19120E228B0DEA450D6018851882857D
:100D80001983E06410602DE064EF70088E088E090E
:100D90008E0A8E0B85080C85090D850A0E850B0FB2
:100DA0009005A278081212C2E50C450D450E450FBC
:100DB00070347E01900391E064017056D2849003F8
:100DC00092E4F08051D2AAD2AF8A088B09E4F50AE6
:100DD000F50B9005C6780C1213237808790C120FC6
:100DE000CC79061200B6900391E06003020D6A12FE
:100DF0000D221200DBE9F874096870077906120009
:100E0000B680917407686084E8608974066870A48D
:100E10008082C2AFC2AAEEF9740112123D7F0802AD
:100E20001169C082C083900391E07005120881802F
:100E30001E900392E06015A28F500BE5F98A828B19
:100E400083F07A0180027A007B0080031209740229
:100E50000D40C082C083900391E070051208C880E5
:100E600003120A0A020D40C0E074F21210B29000A0
:100E700001E064CD7005122013802AE064F570242F
:100E8000E5C1C28BC0E0900415E0F8749428F582A7
:100E9000E43403F583D0E0F0900415120AFA40051B
:100EA000E4F08001007F01021111C0E074F2121021
:100EB000B2900001E064CD700512203B800BE0642D
:100EC000F5700512094A80010080DA74F612104CA0
:100ED000890A740F550AF508750900740B78081211
:100EE000129CEA2400F8EB3480F9E82400E9350983
:100EF000F985C709A2AFE433F508C2AFE50AC454C7
:100F00000FFAE5C754F84AF5C7740A12133FE0FA1E
:100F1000A3E0FB801C88828983E08C828D83F0882B
:100F2000828983A3A882A9838C828D83A3AC82AD9E
:100F300083EAFEEBFFEE24FF1AEF34FFFBEE4F7067
:100F4000D48509C7E508A2E092AF7F030211697456
:100F5000F712104CED900389F0ECA3F0A37462F04B
:100F6000A37473F0A3E0541FF0740912133FE0F56B
:100F700008A3E0F509E508333354FC90038EF074C0
:100F80000678081212F6E50890038DF090038F742E
:100F900012F0A37442F075D1FE75D601EA90627129
:100FA000F0EBA3F0906270E0D2E1F0E0A2E740FB4A
:100FB0007F02021169C082C083E9C333906272F07C
:100FC000906270E0D2E0F0D083D08222080808EA74
:100FD000C0E0EBC0E086F0E7A4FA180986F0E7A4C9
:100FE0002AFA180986F0E7A42AFA180986F0E7A475
:100FF0002AFA1986F0E7A4FBE5F02AFA190886F028
:10100000E7A42BFBE5F03AFA190886F0E7A42BFBDE
:10101000E5F03AFA18180986F0E7A4C5F02BFBE4CE
:101020003AFA1908E7C5F0C6A426F6E5F03BFBE45A
:101030003AFA1886F0E7A4F6E5F00826F6E43B084D
:10104000F6E43A08F6D0E0FBD0E0FA222518C58293
:10105000C0E0E51934FFC583C0E0E518C3958224DC
:10106000F910AF0885831985821880088583198552
:101070008218D2AFCEF0A3E520F0A37808E608F0FE
:10108000A3DEFAEFF0A3E58124FBF8E608F0A3E67F
:1010900008F0A30808E608F0A3E608F0A3158115F8
:1010A00081D0E0FED0E0F815811581E8C0E0EEC007
:1010B000E022C0D02518C582C0E0E51934FFC58301
:1010C000C0E0E518C3958224F310AF088583198525
:1010D00082188008858319858218D2AFC8F0A3E9E9
:1010E000F0A3EAF0A3EBF0A37908E709F0A3D8FA9C
:1010F000ECF0A3EDF0A3EEF0A3EFF0A3D0E0F0A3AB
:10110000D0E0F0A3D0E0F0A3E520F0A3E5F0F0A359
:1011100022851983851882E0C0E0A3E0F9A3E0FAF4
:10112000A3E0FBA37808E0F608A3DFFAE0FCA3E065
:10113000FDA3E0FEA3E0FFA3E0C0E0A3E0C0E0A3C6
:10114000E0F5D0A3E0F520A3E0A3F5F010AF08850B
:1011500083198582188008858319858218D2AFD0BB
:1011600082D083D0E0F8D0E032851983851882E000
:10117000A3FEE0A3F5207808E0A3F608DFFAE0A3D9
:10118000FFE0A3C0E0E0A3C0E0E0A3C0E0E0A3C0B4
:10119000E010AF088582188583198008858218853C
:1011A0008319D2AFD083D08222E490030278A17950
:1011B000038002F0A3D8FCD9FA7AA27B0590008EB6
:1011C000782979018015E493A3AD82AE838A828B5E
:1011D00083F0A3AA82AB838D828E83D8E9D9E712EC
:1011E0000B01121349C008C3E096F50808A3E09666
:1011F000420808A3E096420808A3E096450870015B
:10120000D3D00822C5822518C582C583351910AFF1
:1012100007F5198582188007F519858218D2AFC5A0
:1012200083222518F58210AF08F518400C15198097
:1012300008F51840021519D2AF8519832200C0D0D5
:10124000251810AF08F518500C05198008F518502E
:10125000020519D2AFD0D0226016080808C6C31301
:10126000C618C613C618C613C618C613C6D5E0EAF4
:1012700022251810AF08F518400C15198008F5182C
:1012800040021519D2AF22E066701008A3E0667024
:101290000A08A3E066700408A3E0662270042260D6
:1012A0000D18C6C333C608C633C6D5E0F41822E607
:1012B00027F60809E637F60809E637F60809E6379B
:1012C000F622E026F608A3E036F608A3E036F60894
:1012D000A3E036F62274028000C0E0F40412122269
:1012E000D0E0121332222518FAE43519FB22251812
:1012F000FCE43519FD22600C08C6C313C618C613DA
:10130000C6D5E0F42275D00075813F7518027519B5
:10131000030211A9E6F008A3E6F008A3E6F008A38B
:10132000E6F022E0F608A3E0F608A3E0F608A3E062
:10133000F622CAC0E0E6F0A308DAFAD0E0FA2225E5
:1013400018F582E43519F5832200000080FBFFFFC9
:10135000FFFFFFFFFFFFFFFFFFFFFFFFFFFFFFFF9D
:10136000FFFFFFFFFFFFFFFFFFFFFFFFFFFFFFFF8D
:10137000FFFFFFFFFFFFFFFFFFFFFFFFFFFFFFFF7D
:10138000FFFFFFFFFFFFFFFFFFFFFFFFFFFFFFFF6D
:0A1FF600CA05094338860000000008
:020000040003F7
:01FFF000F020
:020000040000FA
:10200000022C05022213FFFFFFFFFFFFFFFFFFFF70
:10201000FFFFFFFFFFFFFFFFFFFFFFFFFFFFFFFFD0
:10202000FFFFFFFFFFFFFFFFFFFFFF022A09FFFF88
:10203000FFFFFF0228D2FFFFFFFFFFFFFFFFFFFFB1
:10204000FFFFFF02275DFFFFFFFFFFFFFFFFFFFF17
:10205000FFFFFF022153FFFFFFFFFFFFFFFFFFFF17
:10206000FFFFFFFFFFFFFFFFFFFFFFFFFFFFFFFF80
:10207000FFFFFFFFFFFFFFFFFFFFFFFFFFFFFFFF70
:10208000FFFFFF0221A7FFFFFFFFFFFFFFFFFFFF93
:10209000102010200100F8FE0700000100FFFF00E3
:1020A00000030400000F0000000300019651180017
:1020B000020000563100000000BA30E03126319EA7
:1020C000310000E43000000000000000000000F0DB
:1020D0003000000000000000000000FC3006FFFFA0
:1020E000FF010400005818000000E8030000FFFF93
:1020F000D2180188130000E803000064006400B8EF
:1021000001A0BB0D00A0BB0D0002020207010101EE
:10211000051E0205140201780AFF010101080908E1
:1021200003B80B02803E0102FEFFE8030A0500012E
:10213000FFFF0A011401E00105030101FF0F10FE7A
:10214000FF3D4B00000000D54A00000000FF0000EA
:1021500000FF00C0E074F2122526A2AFE433F508B8
:10216000D2AFAFA7AEA1EE5F54106006122E4A7533
:10217000A1EFEE5F54086008122E5075A1F780237E
:10218000EEA2E092F0EFA2E082F05017906198E0AA
:10219000F8900668E0C398A2D265D0335002E8F008
:1021A00075A1FEE5088063C0E074F2122526A2AF97
:1021B000E433FED2AF9061A4E0F8759B00E591583E
:1021C000540860087591F7122E9E8023E5915854AB
:1021D0001060087591EF122EA48014E591A2E09290
:1021E000F0E8A2E082F05007E0C2E0F0122FEE909B
:1021F00061A3E0F8E5E9585404600E122FC475E9B4
:10220000FB906193E0A2E640F2EEA2E092AF7F0184
:10221000022585C0E074F2122526A2AFE433FED277
:10222000AF9061A5E0F8E5BF585404600675BFFBA8
:1022300012300680D4C3E498F8E499F9122276802B
:1022400026C3E49AFAE49BFBE920E7E9122276E44C
:1022500098F8E499F922C3E498F8E499F9122276FF
:10226000E498F8E499F9C3E49AFAE49BFB22EB20A2
:10227000E7CFE920E7E0B90010BB0008E88AF08466
:10228000F8AAF022E4FBC8FA22EB70227B10C833D4
:10229000C8C933C9335007C39AC3DBF280069A50CA
:1022A000012ADBEAC833F4C8C933F4C9FA2275F04D
:1022B00008E4C833C8C933C933C99AC99B5004C993
:1022C0002AC93BD5F0ECFBC833F4C8E4C9FA227440
:1022D000F51224C074FA122A9C7508047509007856
:1022E000081229C07404122A667AF87B077903124F
:1022F0002D4E74021229EE90811D7808122C337431
:1023000002122C8A7808122AC770487508027509CB
:102310000078081229C07402122A667AF67B0779BF
:1023200003122D4E74021229EE851882851983E05E
:10233000F47003A3E0F4601B851882851983E0F82C
:10234000A3E08882F5837402F0A3F0A37469F0A37C
:1023500074A5F0C2AF75D69F02000074061229EE74
:102360007F040227A0080808EAC0E0EBC0E086F07E
:10237000E7A4FA180986F0E7A42AFA180986F0E714
:10238000A42AFA180986F0E7A42AFA1986F0E7A425
:10239000FBE5F02AFA190886F0E7A42BFBE5F03AF2
:1023A000FA190886F0E7A42BFBE5F03AFA181809A9
:1023B00086F0E7A4C5F02BFBE43AFA1908E7C5F06C
:1023C000C6A426F6E5F03BFBE43AFA1886F0E7A44B
:1023D000F6E5F00826F6E43B08F6E43A08F6D0E025
:1023E000FBD0E0FA22E4CFC0E0E4CEC0E0E4CDC010
:1023F000E0E4CCC0E075F020E626F608E633F60807
:10240000E633F608E633F6181818EC33FCED33FD26
:10241000EE33FEEF33FFC3EC9709ED9709EE970912
:10242000EF97191919400FFFEC97FC09ED97FD097B
:10243000EE97FE191906D5F0BFECF709EDF709EE96
:10244000F709EFF7191919D0E0FCD0E0FDD0E0FE54
:10245000D0E0FF222518C582C0E0E51934FFC5830E
:10246000C0E0E518C3958224F810AF08858319856C
:1024700082188008858319858218D2AFCEF0A3E533
:1024800020F0A37808E608F0A3DEFAEFF0A3E581D8
:1024900024FAF8E608F0A3E608F0A3E608F0A3089B
:1024A00008E608F0A3E608F0A315811581D0E0FE48
:1024B000D0E0F8158115811581E8C0E0EEC0E0227A
:1024C0002518C582C0E0E51934FFC583C0E0E518D2
:1024D000C3958224F910AF08858319858218800876
:1024E000858319858218D2AFCEF0A3E520F0A378BA
:1024F00008E608F0A3DEFAEFF0A3E58124FBF8E696
:1025000008F0A3E608F0A30808E608F0A3E608F040
:10251000A315811581D0E0FED0E0F815811581E882
:10252000C0E0EEC0E022C0D02518C582C0E0E519A9
:1025300034FFC583C0E0E518C3958224F310AF08CB
:102540008583198582188008858319858218D2AF02
:10255000C8F0A3E9F0A3EAF0A3EBF0A37908E70938
:10256000F0A3D8FAECF0A3EDF0A3EEF0A3EFF0A304
:10257000D0E0F0A3D0E0F0A3D0E0F0A3E520F0A3FA
:10258000E5F0F0A322851983851882E0C0E0A3E07E
:10259000F9A3E0FAA3E0FBA37808E0F608A3DFFACA
:1025A000E0FCA3E0FDA3E0FEA3E0FFA3E0C0E0A306
:1025B000E0C0E0A3E0F5D0A3E0F520A3E0A3F5F0B0
:1025C00010AF088583198582188008858319858254
:1025D00018D2AFD082D083D0E0F8D0E032122C7F76
:1025E000B9000302261CE49004017839791B8002AB
:1025F000F0A3D8FCD9FA7A397B1E90209478C07960
:10260000018015E493A3AD82AE838A828B83F0A30D
:10261000AA82AB838D828E83D8E9D9E775828575CE
:1026200083BF740612299A7582D27583487400128A
:10263000299AE47375F0108E1A8F1B85821F85838B
:102640001E851882851983E0CEA3E0CF851F828581
:102650001E83EBC9EAC8EDCBECCAC3E833C8E93343
:10266000C9EA33CAEB33CBC3EA9EF51DEB9FF51CD9
:10267000B35004AB1CAA1DEC33CCED33CDD5F0DA4E
:10268000AE1AAF1B22D083D082ECC0E0EDC0E0E4F4
:1026900093A3FCE493A3FDED4C600D1227E0EC2422
:1026A000FFFCED34FFFD80EFE493A3FCE493A3FD76
:1026B000ED4C600D12287DEC24FFFCED34FFFD8015
:1026C000EFD0E0FDD0E0FCE493A3C0E0E493C0E0F1
:1026D00022851983851882E0A3FEE0A3F5207808FF
:1026E000E0A3F608DFFAE0A3FFE0A3C0E0E0A3C0A8
:1026F000E0E0A3C0E0E0A3C0E0E0A3C0E010AF08CA
:102700008582188583198008858218858319D2AF40
:10271000D083D0820229A0D083D082E9C0E0E493A4
:10272000A3C386F0C5F095F0F908E493A386F0C53D
:10273000F095F0700BE493A3C3994005E90480027F
:10274000A3E475F002A42582F582E5F03583F583D4
:10275000D0E0F9E493A3C0E0E493C0E022C0E074C9
:10276000F2122526A2AFE433FED2AFC2C0901AE027
:10277000E0700BE5D1A2E4501D122DB48018E5D114
:10278000A2E3500675D1F7122D84E5D1A2E45006DC
:1027900075D1EF122D8AEEA2E092AF7F010225855E
:1027A000851983851882E0A3FEE0A3F5207808E070
:1027B000A3F608DFFAE0A3FFE0A3C0E0E0A3C0E0D7
:1027C000E0A3C0E0E0A3C0E010AF088582188583D5
:1027D000198008858218858319D2AFD083D08222D0
:1027E000C0E0C3E49396087401939618400FE493F5
:1027F00066700808740193661870007019A3A3C36B
:10280000E49396087401939618A3A3400DD0E0D0EA
:10281000E0D0E00226C1A3A3A3A3A3A3D0E0227427
:1028200004800474028000CCC0E0EDC0E0E518C371
:102830009CCCAD1950011D10AF068C188D19800667
:102840008C188D19D2AF12291CD0E0FDD0E0FC22EB
:1028500074028000CCC0E0EDC0E0E518C39CCCADB4
:102860001950011D10AF068C188D1980068C188D1B
:1028700019D2AF1228FAD0E0FDD0E0FC22C0E0C0AF
:10288000F088F0E49366700808740193661870008D
:10289000A8F0A3A3700BD0F0D0E0D0E0D0E00226E7
:1028A000C1A3A3D0F0D0E022D083D082CCC0E0E49A
:1028B00093A3600612297B1470FAE493A3600612B6
:1028C0002A861470FAD0E0FCE493A3C0E0E493C03D
:1028D000E022C0E074F2122526758B00C2E8901A3F
:1028E000E0E0700E7A007B109006FEE0F912331ED5
:1028F0008003123A807F01022585CAC0E0E493A3D9
:10290000C582CCC582C583CDC583F0A3C582CCC5A5
:1029100082C583CDC583DAE5D0E0CA22CAC0E0E033
:10292000A3C582CCC582C583CDC583F0A3C582CCA7
:10293000C582C583CDC583DAE6D0E0CA2270090816
:102940000808226016181818C6C333C608C633C64E
:1029500008C633C608C633C6D5E0EA22C008C3E0BD
:1029600096F50808A3E096420808A3E096420808F6
:10297000A3E09645087001D3D00822C0E0E493A3F9
:10298000D39C5010E493A3C39C400AD0E0D0E0D085
:10299000E00228C5A3A3A3D0E022C09FF59FE47363
:1029A000D09F22D083D082C09FE493C0E074019373
:1029B000C0E0740293F59F227404800A74038006B9
:1029C000740280027401C0E0F4041229D3D0E01232
:1029D0002C42222518F58210AF08F518400C151965
:1029E0008008F51840021519D2AF8519832200C05E
:1029F000D0251810AF08F518500C05198008F518E7
:102A000050020519D2AFD0D022C0E0C0D0E8C0E05B
:102A1000A8A8D2AFC2C7E8A2E792AFD0E0F8D0D062
:102A2000D0E032BB0102E722C082C08389828A8360
:102A3000BB0003E08002E493D083D08222601608BA
:102A40000808C6C313C618C613C618C613C618C6C8
:102A500013C6D5E0EA222518F8E43519F92225181D
:102A6000FAE43519FB222518FCE43519FD22C3E0F0
:102A7000C696F608A3E0C696F608A3E0C696F60842
:102A8000A3E0C696F622C0E0E493A36C7009D0E000
:102A9000D0E0D0E00228C5A3A3D0E022251810AFD3
:102AA00008F518400C15198008F51840021519D2C0
:102AB000AF22E76670100809E766700A0809E76642
:102AC00070040809E76622E066701008A3E06670EB
:102AD0000A08A3E066700408A3E06622C3E0960833
:102AE000A3E09608A3E09608A3E096A2D265D033AF
:102AF00022C3E697F60809E697F60809E697F6086E
:102B000009E697F622C3E096F008A3E096F008A342
:102B1000E096F008A3E096F022E026F008A3E03665
:102B2000F008A3E036F008A3E036F022E493F608BC
:102B3000740193F608740293F608740393F622E680
:102B400047F60809E647F60809E647F60809E647A2
:102B5000F622E627F60809E637F60809E637F6080A
:102B600009E637F622E026F608A3E036F608A3E0E9
:102B700036F608A3E036F622E657F60809E657F6D9
:102B80000809E657F60809E657F622E056F608A3C4
:102B9000E056F608A3E056F608A3E056F622E05603
:102BA000F008A3E056F008A3E056F008A3E056F0C2
:102BB00022700422600D18C6C333C608C633C6D5BA
:102BC000E0F41822E4C396F608E496F608E496F6D4
:102BD00008E496F622C6F4C608C6F4C608C6F4C6CB
:102BE00008C6F4C622C3E7960809E7960809E796DF
:102BF0000809E79622C3E09608A3E09608A3E096AA
:102C000008A3E0962275D00075813F7518017519EB
:102C100004000225DD600C08C6C313C618C613C61F
:102C2000D5E0F422E6F008A3E6F008A3E6F008A356
:102C3000E6F022E0F608A3E0F608A3E0F608A3E039
:102C4000F622CAC0E0E6F0A308DAFAD0E0FA22EAF7
:102C5000F0A3EBF0A3ECF0A3EDF022E0FAA3E0FB8D
:102C6000A3E0FCA3E0FD22E0F8A3E0F9A3E0FAA3CF
:102C7000E0FB22E8F0A3E9F0A3EAF0A3EBF022E501
:102C8000C754F84401F5C77901222518F582E435C7
:102C900019F583221229A32B97051229A32599053B
:102CA0001229A34199051229A38699051229A31671
:102CB0009A051229A36E9A051229A3509B05122981
:102CC000A3359C051229A37A9C051229A3DB9C0538
:102CD0001229A3679D051229A3939D051229A3DE3E
:102CE0009D051229A3049E051229A39C9E05122965
:102CF000A3459F051229A3989F051229A3C99F05E3
:102D00001229A300A0051229A3A4A1051229A370CA
:102D1000A2051229A323A3051229A3BDCD061229BA
:102D2000A3C4CD061229A3DCCD061229A36CCE06BE
:102D30001229A3E9FF021229A377FF021229A38710
:102D4000FF021229A399FF021229A3DDFF02122913
:102D5000A313CA061229A396CA061229A3FCCA06FF
:102D60001229A36FCE061229A359CE061229A369F0
:102D7000CE061229A317CE061229A3D6FF011229C7
:102D8000A3DFFF011229A3E8FF011229A3F6FF0127
:102D90001229A301FA021229A36EFA021229A336FC
:102DA000FB021229A3ABFB021229A3AEFC021229DB
:102DB000A34FFE021229A3B4FE021229A3FFFE02B2
:102DC0001229A310FF021229A31FFF021229A33503
:102DD000FF021229A348FF021229A353FF0212295E
:102DE000A364FF021229A3C47A001229A3F07A0077
:102DF0001229A3727D001229A3C97D001229A309FB
:102E00007E001229A31D7E001229A3367E001229FE
:102E1000A3277F001229A3D87F001229A3EC7F00EB
:102E20001229A3DDC2061229A301C3061229A31A7F
:102E3000C3061229A34CC3061229A37CC306122978
:102E4000A3A9C3061229A30BC4061229A31AC406F8
:102E50001229A324C4061229A331C4061229A35A95
:102E6000B3061229A37AB3061229A3B9B30612290D
:102E7000A3D4B3061229A3F3B3061229A359B406A7
:102E80001229A362B4061229A3BFB4061229A3CE45
:102E9000B4061229A3F2B4061229A3B3B506122967
:102EA000A3C0B5061229A3D1B5061229A3B7FF0402
:102EB0001229A3CFFF041229A3FBFF041229A38E1A
:102EC00095061229A3E896061229A3F6960612295A
:102ED000A30997061229A31E97061229A333970662
:102EE0001229A34697061229A3BA97061229A31FEF
:102EF00098061229A3C198061229A38599061229BA
:102F0000A39599061229A3A499061229A3DECC063B
:102F10001229A302CD061229A32ACD061229A352F3
:102F2000CD061229A3FFB5061229A326B60612293B
:102F3000A345B6061229A3ADB6061229A386B0068C
:102F40001229A39FB0061229A3ABB0061229A3BF72
:102F5000B0061229A3DDB0061229A3E7B006122994
:102F6000A3F1B0061229A304B1061229A391B10658
:102F70001229A300B2061229A32FB2061229A37D9B
:102F8000B2061229A3CCB2061229A3E7B20612296F
:102F9000A3F1B2061229A302B3061229A345B30670
:102FA0001229A3B3FF051229A388F6011229A3B29F
:102FB000F6011229A3CFF6011229A3E2F601122984
:102FC000A3F8F6011229A356F7011229A389F701E4
:102FD0001229A37AFB011229A3DAFC011229A30DFD
:102FE000FD011229A357FD011229A3AAFE011229EE
:102FF000A3D2FE011229A3E7FE011229A3F7FE01C5
:103000001229A33BFF011229A396FF011229A3A6AF
:10301000FF011229A396C5061229A3B0C5061229DD
:10302000A3D8C5061229A3F1C5061229A315C60601
:103030001229A333C6061229A34AC6061229A37869
:10304000C6061229A393C6061229A377CD06122914
:10305000A3FDAC061229A30DAD061229A312AE06DC
:103060001229A344AE061229A374AE061229A3970F
:10307000AE061229A3AEAE061229A3E8AE061229A7
:10308000A351AF061229A393AF061229A3D2AF060C
:103090001229A303B0061229A32EB0061229A3DE1B
:1030A0009D061229A3439E061229A3E99E06122912
:1030B000A3209F061229A394B1051229A32BB205C0
:1030C0001229A359B4051229A33DB7051229A3C794
:1030D000B8051229A333B9051229A382BC05122908
:1030E000A3CDBD051229A3C6C6061229A311C70682
:1030F0001229A399FD031229A3A9FF031229A3648E
:10310000F1051229A391F1051229A3D0F205122984
:10311000A369F4051229A3EDF6051229A324F705E6
:103120001229A372F8051229A37F86061229A32566
:1031300089061229A3CA89061229A3F6890612292B
:10314000A3248A061229A3598A061229A3818A0672
:103150001229A3E18A061229A34ACC051229A3CB7E
:10316000D0051229A380D2051229A3A9D3051229BB
:10317000A389D4051229A341D6051229A3E4D705B2
:103180001229A3B0D8051229A304D9051229A354E2
:10319000BD061229A35FBD061229A380BD06122910
:1031A000A3F4EC041229A3CBF2041229A32BF404F8
:1031B0001229A3F5F5041229A3EEF6041229A3207F
:1031C000F8041229A354F9041229A360FA0412295D
:1031D000A348FB041229A329FC041229A392DB02B1
:1031E0001229A3CADB021229A3D8E5021229A3B926
:1031F000E6021229A305E8021229A34EE9021229C8
:10320000A304EA021229A3D8EA021229A3D6EB02E8
:103210001229A31DED021229A304EE021229A3F71D
:10322000EE021229A399EF021229A3C3EF02122979
:10323000A373F1021229A3E3F1021229A3FCF10204
:103240001229A353F3021229A304F4021229A3861C
:10325000F4021229A332F5021229A3A6F5021229BB
:10326000A342F6021229A3BAF6021229A3F2F60229
:103270001229A3F4F7021229A3AFF8021229A35AC4
:10328000F9021229A371C1061229A39BC1061229B2
:10329000A3ADC2061229A3B0C2061229A3F8CB0619
:1032A0001229A337CC061229A379CC061229A389A7
:1032B000CC061229A3CDCC061229A3008006122920
:1032C000A33E80061229A3A780061229A3C4800664
:1032D0001229A3DD80061229A38F81061229A39843
:1032E00081061229A3DD81061229A3138206122961
:1032F000A32A82061229A39C82061229A3298306E7
:103300001229A35F83061229A3B683061229A31AE2
:1033100084061229A33D84061229A3A1840612293A
:10332000A3FD84061229A33885061229A36D8506FC
:103330001229A37F85061229A39185061229A3C904
:1033400085061229A31586061229A353860612297B
:10335000A37D90061229A3BD91061229A3E0910630
:103360001229A3F191061229A3E693061229A306B6
:1033700094061229A314BB061229A34ABB061229DC
:10338000A392BB061229A3EEBC061229A3F0E903FF
:103390001229A321EB031229A35BEB031229A31A21
:1033A000ED031229A344ED031229A3D1EF0312293F
:1033B000A311F0031229A3A8F1031229A33BF203DE
:1033C0001229A393F2031229A336F3031229A36E41
:1033D000F3031229A3B0F3031229A31FF503122943
:1033E000A371F6031229A394F8031229A3C2F803C8
:1033F0001229A3E9F8031229A3F2F8031229A34919
:10340000F9031229A3DBF9031229A3C9FC0312292A
:10341000A34CFD031229A339CE061229A34FCE06D1
:103420001229A3DD99061229A3F399061229A3985C
:103430009A061229A3D79A061229A3F49A061229EA
:10344000A3259B061229A3729B061229A3A59B06FE
:103450001229A3E09B061229A3CC9D061229A3E8FA
:10346000C7061229A347C8061229A392C806122923
:10347000A300C9061229A372C9061229A3B0C9065E
:103480001229A3F1C9061229A3EFE1051229A3F518
:10349000E1051229A336E2051229A328E405122921
:1034A000A358E4051229A3C7E4051229A395E5054D
:1034B0001229A3D6E5051229A304E6051229A38E35
:1034C000E6051229A3A5E6051229A3B2E6051229ED
:1034D000A3BCE6051229A358E8051229A368E9054B
:1034E0001229A3B1E9051229A3EEE9051229A304C3
:1034F000EA051229A397EA051229A3D8EB05122998
:10350000A318EC051229A396EC051229A3F3EC05E8
:103510001229A30DED051229A334ED051229A38765
:10352000ED051229A369EF051229A36EEF051229F3
:10353000A38EEF051229A3C1BA041229A3F3BA047A
:103540001229A355BC041229A320BE041229A33CAE
:10355000BE041229A38BBE041229A30DBF04122995
:10356000A320BF041229A369BF041229A3C4BF0466
:103570001229A36EC0041229A378C1041229A3BD85
:10358000C1041229A369C3041229A32AC40412295D
:10359000A351C5041229A3CEC5041229A38DC604C4
:1035A0001229A312C7041229A34FC7041229A398F2
:1035B000C7041229A3AEC7041229A364C8041229A0
:1035C000A340C9041229A34BC9041229A3B2C904F8
:1035D0001229A305CA041229A368CA041229A364E4
:1035E000CB041229A30ACE041229A329CE0412293E
:1035F000A343CF041229A367CF041229A3D5CF0474
:103600001229A3F3CF041229A32AD0041229A39CC0
:10361000D0041229A3BCD1041229A3ECD10412298D
:10362000A3F6D1041229A3F9D1041229A303D204C9
:103630001229A316D2041229A387D2041229A3BDEA
:10364000D2041229A3D0D2041229A3FCD204122935
:10365000A323D3041229A347D3041229A3F5D30427
:103660001229A367D4041229A39ED4041229A3A16A
:10367000D4041229A3D8D4041229A3EED404122905
:10368000A30BD5041229A339D5041229A34FD504BD
:103690001229A367D5041229A379D5041229A315E9
:1036A000CB061229A326CB061229A3A7CB061229E3
:1036B000A372CE061229A3A0F8051229A3EFF805DC
:1036C0001229A38FFA051229A363FC051229A3A5C9
:1036D000FC051229A370FD051229A378FE05122905
:1036E000A39AFE051229A3F6FE051229A377FF056A
:1036F0001229A3A74E001229A3C94E001229A35CC8
:1037000050001229A3A550001229A3195100122913
:10371000A39651001229A3FB51001229A3FE5100C8
:103720001229A34052001229A3AF52001229A35E0E
:1037300053001229A36153001229A3D65300122962
:10374000A31954001229A30F58001229A37A590073
:103750001229A3B859001229A30E5A001229A35402
:103760005D001229A3D15D001229A37F5F001229F9
:10377000A3AF60001229A3E561001229A35F6200D4
:103780001229A38263001229A31C64001229A31F1B
:1037900064001229A3ED64001229A3166600122901
:1037A000A32F68001229A3096A001229A39A6A00AC
:1037B0001229A3A86D001229A34D6E001229A33C63
:1037C0006F001229A38B72001229A39B7200122989
:1037D000A31974001229A3AA74001229A3A77500C3
:1037E0001229A33E77001229A3D877001229A3FD3E
:1037F00078001229A34779001229A3077A00122919
:10380000A384CD031229A324CE031229A38ECE03B1
:103810001229A3A7CE031229A33ECF031229A38204
:10382000CF031229A3A4D0031229A3E0D0031229A5
:10383000A35CD1031229A3A7D1031229A306D203A3
:103840001229A316D3031229A336D6031229A3578C
:10385000D7031229A3D2D7031229A3B9D903122956
:10386000A359DA031229A300DB031229A363DB03A4
:103870001229A3D8DB031229A3E7DC031229A3BB77
:10388000DD031229A3F1DD031229A320DE0312298F
:10389000A3D4DE031229A300DF031229A380DF03D0
:1038A0001229A300E1031229A38CE2031229A3D455
:1038B000E3031229A33FE5031229A34BE6031229D0
:1038C000A3EEE6031229A367E7031229A395E803F1
:1038D0001229A304A4051229A36DA4051229A3B5D6
:1038E000A4051229A316A5051229A35FA50512296F
:1038F000A397A5051229A331A6051229A38BA60516
:103900001229A3E3A7051229A387A8051229A3AFAB
:10391000A8051229A39AA9051229A39CA905122971
:10392000A3FCA9051229A332AA051229A3AAAA0554
:103930001229A3FCAA051229A32AAB051229A33731
:10394000AC051229A356AC051229A3D5AC05122942
:10395000A34DAD051229A3D3AD051229A330AE05A1
:103960001229A3F9AE051229A3DDAF051229A390F0
:10397000B0051229A3F9B0051229A39CFC04122951
:10398000A385FD041229A34BFE041229A3AFFE0454
:103990001229A323FF041229A3CFA1061229A3ED04
:1039A000A1061229A331A2061229A357A2061229A1
:1039B000A37DA2061229A395A2061229A3ADA206F1
:1039C0001229A318A3061229A35AA3061229A36F2A
:1039D000A3061229A384A4061229A38DA4061229E2
:1039E000A396A4061229A39FA4061229A3A9A4069C
:1039F0001229A3AAE8041229A3948B061229A3F57D
:103A00008F061229A31190061229A31690061229D7
:103A1000A3F7BF061229A35EA9061229A374A9065B
:103A20001229A3FAAA061229A343AB061229A3AFAF
:103A3000AB061229A39DAC061229A3CCAC06122911
:103A4000A3DEAC061229A33BC4061229A39FB80625
:103A50001229A3ED96051229A331B9061229A39ABA
:103A6000B9061229A3BEB9061229A3D3B906122991
:103A7000A3F3B9061229A313BA061229A323BA067F
:103A80001229A33ABA061229A366BA061229A3F18B
:103A9000BA061229A3EBCD061229A300800212292F
:103AA000A33280021229A39E80021229A339810227
:103AB0001229A3D881021229A31D82021229A33F31
:103AC00082021229A35882021229A37E820212299D
:103AD000A3A082021229A3DE82021229A32283025A
:103AE0001229A34483021229A3A683021229A36DDB
:103AF00084021229A32485021229A3968502122981
:103B0000A36886021229A3B286021229A30587029E
:103B10001229A36B87021229A3A587021229A3F7F2
:103B200087021229A31388021229A33E88021229B0
:103B3000A3458A021229A3998B021229A3BB8B02E7
:103B40001229A3EF8B021229A3108C021229A31FA2
:103B50008C021229A32A8C021229A3DA8C021229C0
:103B6000A3438D021229A3F08D021229A3288E02ED
:103B70001229A3EE8E021229A3FB8F021229A3455C
:103B800090021229A3D490021229A338910212297B
:103B9000A37391021229A3DF93021229A333950282
:103BA0001229A36C98021229A33999021229A3C7DA
:103BB00099021229A3DB99021229A3049A0212295D
:103BC000A3769A021229A30A9B021229A37A9B02C6
:103BD0001229A3629C021229A3849C021229A3EA3F
:103BE0009D021229A3039E021229A3169E021229E6
:103BF000A3739E021229A3829E021229A30B9F0285
:103C00001229A3219F021229A333A0021229A33C47
:103C1000A0021229A314A2021229A344A30212296A
:103C2000A354A3021229A363A4021229A3DAA402B3
:103C30001229A313A5021229A343A6021229A389BC
:103C4000A6021229A355A8021229A32DAC021229FB
:103C5000A341AC021229A34BAC021229A355AC021A
:103C60001229A35FAC021229A369AC021229A38214
:103C7000AC021229A38CAC021229A30AAD021229AC
:103C8000A315AD021229A342AD021229A367AD020A
:103C90001229A372AD021229A3C0AD021229A3CA30
:103CA000AD021229A3D5AD021229A3F9AD02122942
:103CB000A31DAE021229A379AE021229A3BFAE0240
:103CC0001229A3DCAE021229A359AF021229A39034
:103CD000AF021229A3CFAF021229A31CB0021229EE
:103CE000A39EB0021229A337B1021229A307B3027F
:103CF0001229A365B3021229A381B4021229A3A732
:103D0000B4021229A3E6B5021229A30CB9021229A2
:103D1000A34DBB021229A329BD021229A3BFBD02D4
:103D20001229A3E6BF021229A392C0021229A3C737
:103D3000C0021229A32CC1021229A336C1021229E2
:103D4000A360C3021229A34EC4021229A397C5027D
:103D50001229A3D7C5021229A37DC6021229A30ED8
:103D6000C8021229A397C9021229A3B7C9021229AE
:103D7000A310CA021229A312CB021229A35CCB0200
:103D80001229A3ACCB021229A396CC021229A30BB1
:103D9000CD021229A325CE021229A3A0CE021229F8
:103DA000A3A5CF021229A350D2021229A36FD202D7
:103DB0001229A3D0D3021229A392D5021229A3E675
:103DC000D5021229A39ED6021229A34DD702122989
:103DD000A3ADD7021229A363D8021229A3F8D802EF
:103DE0001229A364D9021229A39ED9021229A3CFB2
:103DF000D9021229A32BDB021229A3008003122966
:103E0000A33280031229A36980031229A3508203DD
:103E10001229A39082031229A36E83031229A3C639
:103E200083031229A30185031229A34D85031229B7
:103E3000A37588031229A3E18B031229A32E8D03F6
:103E40001229A3C48D031229A3D08D031229A30222
:103E50008E031229A3848F031229A392900312299F
:103E6000A3BC90031229A31391031229A36C9103FD
:103E70001229A3D891031229A3EF93031229A37E39
:103E800095031229A34896031229A38697031229A2
:103E9000A3B699031229A3869C031229A3939C031A
:103EA0001229A31A9D031229A3C29D031229A30557
:103EB0009E031229A34E9E031229A3A29E03122938
:103EC000A3079F031229A36F9F031229A38C9F03AB
:103ED0001229A3BC9F031229A3F19F031229A3C196
:103EE000A0031229A36AA1031229A3EEA303122996
:103EF000A30EA5031229A3F7A5031229A379A603EC
:103F00001229A397AA031229A3D4AA031229A32C26
:103F1000AB031229A35FAB031229A3E0AB03122961
:103F2000A32DAC031229A3B8AC031229A30AAD0335
:103F30001229A376AE031229A3F8AE031229A330E7
:103F4000AF031229A33DAF031229A340AF031229E7
:103F5000A36FAF031229A375B1031229A34BB203B8
:103F60001229A380B2031229A3FDB3031229A300CF
:103F7000B4031229A3CDB4031229A303B703122952
:103F8000A374B7031229A3B4B7031229A3EDB7038F
:103F90001229A381B8031229A3CAB9031229A38D38
:103FA000BD031229A37CBE031229A363BF031229F8
:103FB000A3DBBF031229A39DC0031229A353C2038D
:103FC0001229A30AC3031229A322C3031229A33669
:103FD000C3031229A36EC3031229A39CC30312298E
:103FE000A39CC6031229A3D1C6031229A339C70370
:103FF0001229A378C8031229A394C8031229A3B0D5
:10400000C8031229A37EC9031229A362CD03122972
:10401000A3A5A5061229A3E5A5061229A398A7061C
:104020001229A3A7A7061229A30080051229A31706
:1040300085051229A36285051229A3B287051229D5
:10404000A34689051229A3D489051229A3358C0515
:104050001229A33A8E051229A38E8E051229A39D3B
:1040600090051229A3F090051229A34B910512295E
:10407000A36D91051229A37491051229A38C9105B2
:104080001229A36C92051229A34B93051229A3A20E
:1040900081011229A3E481011229A31A870112299F
:1040A000A36687011229A3AC87011229A3FB88010B
:1040B0001229A35789011229A39C89011229A32F30
:1040C0008B011229A3858E011229A3AA8F0112291F
:1040D000A32C9B011229A3BF9B011229A31C9F01A2
:1040E0001229A35BA0011229A3B6A0011229A3FEE5
:1040F000A1011229A3EAA2011229A381A501122973
:10410000A3F0A6011229A377A7011229A37AA70178
:104110001229A3EFA7011229A3F9A7011229A306C7
:10412000A8011229A331A8011229A3E1A80112298B
:10413000A3DEA9011229A388AA011229A315AB01A4
:104140001229A333AB011229A34CAB011229A37589
:10415000AB011229A397AB011229A3DDAD011229EE
:10416000A3C0AE011229A306AF011229A385AF0196
:104170001229A331B0011229A363B0011229A3B5FA
:10418000B0011229A3F1B0011229A330B101122903
:10419000A380B1011229A385B1011229A3D9B101CC
:1041A0001229A305B2011229A3E1B2011229A331F8
:1041B000B3011229A39EB3011229A3F8B301122956
:1041C000A38FB4011229A3D4B7011229A3ECB8011B
:1041D0001229A385BA011229A3B8BD011229A34A45
:1041E000BE011229A341C1011229A300C201122953
:1041F000A344C2011229A3E9C3011229A3FDC301EB
:104200001229A307C4011229A311C4011229A31D55
:10421000C4011229A339C4011229A399C601122984
:10422000A3D8C6011229A3E2C6011229A3ECC60134
:104230001229A372C7011229A3CAC7011229A3E731
:10424000C8011229A34BC9011229A358CA01122976
:10425000A39CCA011229A348CB011229A321CC0196
:104260001229A3DCCC011229A3E9CD011229A32331
:10427000CF011229A320D0011229A338D00112297D
:10428000A38FD0011229A399D0011229A3A3D00191
:104290001229A3AED0011229A3CCD0011229A31454
:1042A000D1011229A376D1011229A39DD10112298E
:1042B000A3AFD1011229A34AD2011229A37FD201AF
:1042C0001229A37ED3011229A3CCD3011229A3C69C
:1042D000D4011229A3FCD4011229A37FD5011229EC
:1042E000A3F0D5011229A39CD7011229A3C6D80196
:1042F0001229A389D9011229A35ADA011229A3C5C7
:10430000DA011229A342DB011229A36FDC01122971
:10431000A303DD011229A353DD011229A3BEDD0190
:104320001229A384DE011229A3CEDE011229A326BD
:10433000DF011229A3FEDF011229A321E0011229C6
:10434000A3E4E0011229A306E1011229A36FE10110
:104350001229A385E3011229A375E4011229A33FC1
:10436000E5011229A377E7011229A3C1E701122968
:10437000A311E8011229A37EE8011229A3E0E801B4
:104380001229A30EE9011229A332E9011229A36718
:10439000E9011229A398E9011229A3CBE901122905
:1043A000A325EA011229A378EA011229A3A4EB01AB
:1043B0001229A351ED011229A39FED011229A3C8CF
:1043C000ED011229A354EE011229A3C9EE0112290D
:1043D000A3D7EE011229A3FBEE011229A358EF0186
:1043E0001229A377EF011229A32DF0011229A36549
:1043F000F0011229A3C8F0011229A3BAF20112296F
:10440000A3E4F2011229A3E8F3011229A3FAF401AB
:104410001229A3AAF5011229A329D9051229A361FA
:10442000D9051229A382D9051229A3C4D9051229B5
:10443000A326DA051229A330DA051229A340DA05EA
:104440001229A37BDA051229A39BDE051229A38179
:10445000E0051229A318E1051229A3968004122968
:10446000A34181041229A3EF81041229A3F5820438
:104470001229A31583041229A33E84041229A3F947
:1044800085041229A36C86041229A310870412291B
:10449000A31C88041229A38788041229A3C38804B3
:1044A0001229A30689041229A34189041229A3838E
:1044B00089041229A3188A041229A3948A041229B0
:1044C000A35E8B041229A33B8C041229A3D38C0472
:1044D0001229A3ED8C041229A31D8D041229A34EC9
:1044E0008D041229A3148E041229A3248E041229E8
:1044F000A3738E041229A3808E041229A3898E042B
:104500001229A3078F041229A3638F041229A3AED3
:104510008F041229A3C98F041229A3F48F0412292E
:10452000A31190041229A31D90041229A3B491048D
:104530001229A3CD91041229A35292041229A36532
:1045400092041229A38492041229A3289304122905
:10455000A3A994041229A35C96041229A3F2960439
:104560001229A3F596041229A36597041229A3839F
:1045700097041229A31A98041229A36298041229F5
:10458000A36598041229A32B99041229A3989904CE
:104590001229A3BE99041229A3499A041229A367D8
:1045A0009A041229A3AD9A041229A3619B0412292B
:1045B000A3AB9B041229A3DA9B041229A3379C0402
:1045C0001229A36C9C041229A3989C041229A3A667
:1045D0009C041229A3F39C041229A3639D041229AD
:1045E000A3AC9D041229A3F89D041229A3249E04C0
:1045F0001229A32F9E041229A34D9E041229A33829
:104600009F041229A3429F041229A37D9F0412290B
:10461000A38D9F041229A3969F041229A3EA9F0445
:104620001229A3FE9F041229A32DA1041229A3403D
:10463000A1041229A355A1041229A3E3A10412295C
:10464000A328A2041229A3B4A2041229A3BFA2047E
:104650001229A301A4041229A31CA4041229A368EB
:10466000A4041229A3D7A4041229A310A504122973
:10467000A32AA5041229A38AA5041229A329A60402
:104680001229A374A6041229A344A9041229A3F68B
:10469000A9041229A363AA041229A3A3AC04122912
:1046A000A3BBAC041229A3BEAC041229A3CAAC0458
:1046B0001229A3DEAC041229A3E6AC041229A31923
:1046C000AD041229A31CAE041229A3A9AE04122919
:1046D000A319AF041229A39BAF041229A35CB00451
:1046E0001229A37BB0041229A31CB1041229A379B7
:1046F000B1041229A37CB1041229A3F0B104122938
:10470000A33FB3041229A345B4041229A3D0B404CF
:104710001229A3EBB5041229A3B3B6041229A3E40A
:10472000B6041229A307B7041229A310B70412294B
:10473000A33FB7041229A3CFB7041229A385B80455
:104740001229A3FAB8041229A3A1B9041229A316A5
:10475000BA041229A34DBA041229A38BBA04122950
:10476000A3FEE7041229A336E6041229A37FE50479
:104770001229A34CE5041229A301E5041229A39EE2
:10478000E4041229A35DE4041229A33DE4041229E0
:10479000A392E3041229A321E3041229A3BFE20494
:1047A0001229A362E2041229A3D5E0041229A372FC
:1047B000E0041229A3DBDF041229A3D2DF041229AB
:1047C000A3C6DF041229A393DF041229A344DC0447
:1047D0001229A316DC041229A3B1DB041229A39E1B
:1047E000DB041229A393DB041229A3C7960512291F
:1047F000A357DB041229A34B96051229A365EC04E9
:104800001229A31AEC041229A3AEEB041229A34B1C
:10481000EB041229A321EB041229A385D904122940
:10482000A36ED9041229A3AED8041229A3A5EA04C1
:104830001229A3D4D6041229A3C1D6041229A3395C
:10484000D6041229A3D0D5041229A3FBB806122935
:10485000A3ACD5041229A3F9E8041229A313CC05AB
:104860001229A3CCCB051229A36BCB051229A33E99
:10487000CB051229A313CB051229A3DFCA051229E0
:10488000A3B7CA051229A357CA051229A341CA050D
:104890001229A306CA051229A37CC9051229A362FD
:1048A000C5051229A332C3051229A3D2C0051229B6
:1048B000A35AC0051229A30BC0051229A3FBBE05EC
:1048C0001229A398BF051229A359BF051229A326AF
:1048D000A50600000080FB8F000100D81E870001A4
:1048E00000D41A350004009C1E25000200A01E26DC
:1048F000000200A21E27000200A41E28000100AE34
:104900001E29000100AF1E84000400AC1A860001BD
:1049100000471E2A000100B01E2B000100B11E2C12
:10492000000100B61E2D000800BB1A2E000100B7C2
:104930001E2F000100B81E30000100B91E31000119
:1049400000BA1E32000100BB1E33000100BC1E3441
:10495000000100BD1E36000100C31A38000100BE70
:104960001E39000100B51E83000200D51E63000140
:1049700000CF1A64000100B01A65000100B21E6D7C
:10498000000100D01A71000800B31A66000100D4BB
:104990001E43000100C51E44000200C61E45000162
:1049A00000C81E46000200C91E47000800C71A487A
:1049B000000100CB1E4B000100CC1E04000100D7FB
:1049C0001EA1000100DB1E37000100DA1E88000175
:1049D00000D91E3C000100C41A3D000100BF1E4961
:1049E000000200CD1E67000100D11A4D000200CF69
:1049F0001E4E000100D11E4F000200D21E3E0001DB
:104A000000C61A51000100C11E52000100C21E530F
:104A1000000100C41E54000100C51A00000000007F
:104A2000000001363601010001020100010301000E
:104A30000104010606050200000701003408010018
:104A40000F090401010D0100FF0E0800001702000C
:104A500000190100FF1A0100011B0100FE1C0100EA
:104A6000081D0200001F01000120010001210200B9
:104A7000002301000F24020000260100012701008D
:104A800008280200FF2A0100072B0102402C010028
:104A9000002D0100012E0100012F0100FF30010B4C
:104AA0001D310800003A0100083B01000F3C0100E5
:104AB000013D0100FF3E04000042040000460400E6
:104AC000004A0400004E0400005204000056040096
:104AD000005A0400000103710301030103010301F3
:104AE0000301032203020301031003000300030078
:104AF0000300030003000300034203000324030632
:104B000003000300030403120325032303250323E7
:104B10000304030403000300030003440300030031
:104B2000032303000365032100350381030003050C
:104B300003000300030003000325032303030071A4
:104B40000030016000110070003102200350048029
:104B50000010006100000014006300730072006226
:104B600000430000001300060000000000040012D3
:104B700000000000000000000004000400370037BF
:104B8000003C02440000000000000000006500003E
:104B900000350081000000050000008300000003D4
:104BA000027102300160021102700201020202026F
:104BB000028002100261023A004100630273027235
:104BC00002620243020002130238000002000204E3
:104BD0000212020002000200020002040204023774
:104BE0000037003C02440200023900000200026566
:104BF00002000235028102000205028202830200E5
:104C0000020304710402046004110470040204022B
:104C10000401040204100461040004140463047316
:104C20000472046204430400041304060400040034
:104C30000404041204000400040004000451046489
:104C40000000040004000444040004000400040004
:104C50000465040004350481046400050400048331
:104C6000040004010171010101010111010101317F
:104C700001010101018001100161013B0014006389
:104C80000173017201620143010001130106013D3C
:104C900001350004011201000100010001000104BE
:104CA000010401330133013C0144013201360000AB
:104CB000010001650100013500810100010501824B
:104CC000018301000136000100060000000F000012
:104CD000000000000000000000000003FFFF0000D3
:104CE0000403FFFF0000FFFF0FF4010005C40403ED
:104CF00020000100000B0000000000000000030184
:104D00000F00000000000000000000000000000094
:104D10000000000000000000000000000000000093
:104D2000000000130098371F009E371F80A4370033
:104D30000040380100403802001A3702801437035F
:104D40000020370400263704802C37050032370650
:104D5000003E3730005C3731005637320068373359
:104D6000006E373500743734007A373600803711DB
:104D7000008C371400923715005037FFFF00000AEF
:104D80000000000200000004000000080000001005
:104D90000000002000000040000000800000000033
:104DA00001000000020000000400000008000000F4
:104DB000100000002000000040000001D440060464
:104DC0004108FE400B224110AA3D0A344102DA405C
:104DD00005F24007E0400CBC400DC840647C3BFF3E
:104DE000000007ECFDFDFDECDCDCCCBCACAC9C9C1D
:104DF0008C7C7C6C6C5C5C5C4C4C3C3C2C2C1C1CA3
:104E000003EAF5E5D5D5C5B5A5959585857575658F
:104E100065555545453535252515150500160F00F1
:104E2000000B150B020002220F3300000E0F0001D1
:104E300019161816161823030030301618192023D7
:104E40001A1C1E30003C40423A3F3F392F47303059
:104E50003017181921301B1D1F3000034D4C4651CF
:104E6000181A2505020C0E020B040B0A0708000F86
:104E700002040201010101090200BE040A0000004F
:104E8000000C002800E8030E007F00FF1E1E0C052A
:104E9000080104000408000C0128080303020903A8
:104EA0003C0C05080B010AC082C0839018C9E4F0CD
:104EB000A3F07C027D1C7A397B18123480123BAC43
:104EC000123DF8123BB2026E1B74F212245474FEAF
:104ED000122A9CE9FF8A08EBFE8C09E97033740200
:104EE0006A70167908123684E4F50AF50B780A120E
:104EF00029C0780A1229C4805374016A60030250E1
:104F00002E79081236847B00EEFAF9123C18025012
:104F10002974016F600874026F600302502EEA600A
:104F20000874036A6003024FC9123FC6E9605374F4
:104F3000036508604D1232D68A0A8B0B780A122953
:104F4000C0750A01780A1229C4750A00780A122964
:104F5000C4E509F50A780A1229C4EEF50A780A129E
:104F600029C490185312281F901E47E0F97CC77D72
:104F70001A901ED512625B123BD6740A1229EE02F9
:104F800050297902123684901E47E0F99018531286
:104F90002C5B123BC4E9F8901861E0A2E34010E9F1
:104FA000700D9018CDE004F06404700312504A7440
:104FB00003650870769018CEE0F9740129F0E9C312
:104FC0009405406712504A806274016A70607401EF
:104FD0006F790A702C1236847A007B04901CCEE024
:104FE000F9123444AA18AB197950125F4F125F6A54
:104FF000E81273E47900901C8112625B123C6080BD
:1050000044123684901EAA12281F7A007B20901822
:1050100058E0F912343874041229EE901E47E0F972
:10502000901853122C5B123C00E9F8E8601790814D
:105030009512281F7A017B00901858E0F912343835
:1050400074041229EE7402027878901853E4F0A3E5
:1050500074F8F0A374FFF0A37407F02274F612241E
:1050600054E9FFEAFE7AD1F91232FA8A828B83E59B
:10507000824583702A7A027B001232DCEA4B700E82
:105080007A107B00901858E0F912331E80148A823F
:105090008B8374D1F0EFA3F0EEF91232E88003EFC6
:1050A000A3F00252AA74F712245489089004011242
:1050B000637D901E93E0F47003A3E0F470309006DB
:1050C000FEE0901E93F0A3E4F080238E828F831283
:1050D00061DE600F8E828F83A3A31261DBFAA908C1
:1050E0001236FC8E828F83125F5CE8FEE9FFEE4F82
:1050F00070D9901E93E0F47003A3E0F4600A901E50
:1051000093E0FAA9081236FC1241FA9018231259BA
:10511000B21241F47F010226D174F0122454890B9B
:105120008C0C7509007508007410122C8A125F5CD3
:105130007412122C8A12535880471251E2F50EA3B2
:10514000E0F50FAE08EE2EFEE433FFEA2EF582EB1B
:1051500012680D650E7004A3E0650F7019AE09EEBC
:105160002EFEE433FFEC2EF582ED3FF583E50EF0E5
:10517000A3E50FF00509050AE50AC3950C40BB0538
:1051800008E508C3950B5005750A0080EBA9098056
:10519000007F080226D174F4122454890B7D007418
:1051A0000C122C8A125F5C80010DEDC3950B502E02
:1051B000750A008002050AE50AC39C50ECED25E063
:1051C000FEE433FFEA2EF582EB3F1273B21251E296
:1051D00065087004A3E0650970DB7901800279003D
:1051E0008014AE0AEE2EFEE433FFE82EF582E912BB
:1051F000594F221229EE7F040226D10229A074F60B
:105200001224541252947003A3E06D701775085F56
:1052100075091878081229C0EEFA1238467402127D
:1052200029EE801A75080275098078081229C08A4B
:1052300008890978081229C01252821229EE806A60
:1052400074F61224541252947003A3E06D70177513
:10525000086C75091878081229C0EEFA12384C74D7
:10526000021229EE801A7508037509807808122940
:10527000C08A08890978081229C01252821229EEC0
:105280008028EE240E12594CFD7C801264BE123828
:105290006A740422EAFEEBFF1264D3FCE439FD9049
:1052A0001823E06C2274021229EE7F020226D174C8
:1052B000F612245474FE122A9C8A088B09851882DF
:1052C000851983E4F0A3F0125DCB126607FBECFABC
:1052D00088828983A3A3E0F97F007E00600574FFC4
:1052E0006970047E828045901823E06A7003A3E011
:1052F0006B701AAA18AB19124884E9FA85188285CE
:10530000198312641670027E83EAFF801F901AD4FC
:10531000E060046401700E123B34E960047E898011
:105320000B7E818007E0640270027E80125352EE91
:10533000F9AA08AB09123852EF6014851882851952
:10534000831264166009851882851983126E4602DD
:1053500052A5851882851983E0FCA3E0FD2202296D
:10536000A074F2122454EAFEEBFF750800750900E0
:105370001264CFF50AE439F50B1241FAEA650A70B6
:1053800003EB650B7012124872E914F50879017A83
:10539000957B1812486C8003750980126807F50C1C
:1053A000780C1229C4750C95750D18780C1229C04B
:1053B00078081229C4780A1229C0E509F508780886
:1053C0001229C412624A12680AF97A057B801238DF
:1053D00058740702787874F6122454E9FF7E00802E
:1053E000308A828B831273BAF8E4C8F9E50828E49E
:1053F00039F509EE25E0F8E433F9EC28F582ED39CA
:10540000F583E508F0A3E509F0EA2402FA50010B60
:105410000EEEC39F40CB0252AA74E812245474FECD
:10542000122A9C8A108B11750F00851882851983AA
:10543000E4F0A3F0F516F5171260AA351112758A7B
:105440001279EBFA8E828F83A3A3A3E0F9EAF50821
:10545000E439F509AA0AAB0B124296E96401702BF4
:1054600012720B1229C4E4F508F50978081229C054
:1054700078081229C4780A1229C0750880780812A1
:1054800029C41257F11229EE0257DAAA0AAB0B12FD
:105490004296E97041901823E0650A7004A3E06524
:1054A0000B6033901AD4E06402702812720B122938
:1054B000C4E4F508F50978081229C078081229C44F
:1054C000780A1229C075088078081229C41257F189
:1054D0001229EE0257DA8E828F83A3A3A3A3E0F5ED
:1054E0000BEE2405FE50010FE50B602A1278CF85E4
:1054F0001882851983EAF0A3EB126824E849601644
:10550000125352EEFAEFFBA90B1237388A0C8B0DAF
:10551000AE0CAF0D8003750B001278E5601A12789F
:10552000CF8A168B17EA4B600FAC16AD17EEFAEF69
:10553000FBA90A1237388003750A009004018050D5
:105540008E828F83A3A3A3A3A3A3A3A3E4F0A3F0BA
:10555000EEFAEFFB851482851583A3A3E0F81261B0
:10556000DBF91232E8851282851383E0C0E0A80FD0
:10557000749528F582E43418F583D0E0F0050FA285
:10558000005007AA12AB1312338485148285158349
:10559000E0F514A3E0F515E514451570030257581E
:1055A0008514828515831261DE60DF85148285157E
:1055B00083A3A3A3A3A3A3A3A3E0A2E050CC851439
:1055C00082851583A3A3A3A312641685148285156F
:1055D00083A3A3601E1261E0FA7901851482851508
:1055E00083A3A3A3A31257E41226328A128B13D2E9
:1055F0000080101257E4A3A3A3A3E0F512A3E0F5E3
:1056000013C200E5124513700302557F851282858F
:105610001383A3E065087004A3E06509600F74FFBD
:105620006508700474FF6509600302557F85128266
:10563000851383A3A3A3A3A3A3A312282385128264
:10564000851383A3A3A3A3A3A3E0FC7402122C8A53
:1056500012625BA90B12370E74021229EEE9703840
:10566000851282851383A3A3A3A3A3A3A3A3A3A3A8
:10567000122823851282851383A3A3A3A3A3A3A324
:10568000A3A3E0FCAA16AB17A90A12370E740212E4
:1056900029EEE9700302557FE50A250BC333240A7E
:1056A000FA7B001232DC8A0C8B0DAE0CAF0DEA4F88
:1056B00070030255658A828B8374D21269FD8A82D7
:1056C0008B83A3A3126D87A3A3A3E50B1279FCE53B
:1056D0000B6033EA240AFAE43FFB8E828F8312596F
:1056E000AD851882851983E0F50CA3E0F50D750EE4
:1056F00000780C1229BCAC0BEC2CFCE433FD1279C5
:10570000E51229EE800D8A828B83A3A3A3A3A3E4D1
:10571000F0A3F0E50A7003025540A80BE828F8E46E
:1057200033F9EE28F8EF39F9E8240AFAE439FB8E68
:10573000828F83A3A3A31259AD85160C85170D750F
:105740000E00780C1229BCAC0AEC2CFCE433FD12E0
:1057500079E51229EE025550E50F602512720B1201
:1057600029C475089575091878081229C0E50FF540
:105770000878081229C4901823122823750800807D
:105780002DE510240BF582E43511F583E0702A1223
:10579000720B1229C475089575091878081229C06A
:1057A00075080078081229C4901823122823780855
:1057B0001229C41257F11229EE8518828519831215
:1057C00064166009851882851983126E46E51645B0
:1057D000176007AA16AB1712338474021229EE7FE2
:1057E000100226D11257E822E0F8A3E0F583888260
:1057F00022E5102402FCE43511FDE5101261D535D7
:1058000011F583E0F97A067B801238587407227408
:10581000F412245474F4122A9C8A088B09ECFEEDCD
:10582000FF740B122C8A7403F0122A5E1234801259
:10583000636F7403122A5E12347AE9600A125943C4
:105840006010E06401600B851882851983748402FE
:10585000590A8E828F83A3A3A3A3A3A3A3A3E0606B
:1058600013F460101259437016EE241412680A6083
:1058700003F4700B851882851983748202590A1209
:10588000757EE064217002A3E07055851882851949
:1058900083748C125F79E0F50A780A1229C41259D0
:1058A00054123F0674011229EEE9705F8518828553
:1058B0001983E4F0123660125943704F7401122AB2
:1058C00066EE240BFAE43FFB123F24E9703D7D00B5
:1058D0007C007900EE240BFAE43FFB123810802B99
:1058E000EE241412680AF50A780A1229C4125954CF
:1058F000123F0C74011229EEE98518828519837014
:1059000007E4F012366080037488F0127191F50A92
:10591000780A1229C47401122A56880A890B780A57
:105920001229C0E508240CF582E43509125F7144A0
:1059300080F50B780A1229C01263511229EE740CFB
:105940000251F3EE241312594C640322F582E43F12
:10595000F583E022EE240BFCE43FFD8E828F83A3CF
:10596000A3A3A3A3A3A3A3A31271C88E828F83A30F
:10597000A3A3A3A3A3A3A3E0F922C082C08374F3CB
:10598000122A9C851882851983E4F004122C8A124D
:1059900059B27403122C8AAA82AB83123ABCAA1899
:1059A000AB19123AF8740D1229EE026E1BA3A3A3D1
:1059B000A3A3EAF0A3EBF02274F6122454EAFEEB60
:1059C000FFEA241312680AF8A3E01259FFF89018AE
:1059D00067E058F508A3E059F509E5084509601C9A
:1059E00078081229C0901823122823126807FD7C1A
:1059F000001264BA12386474041229EE0252AA88A2
:105A000082F583125A0722E0FAA3E0F9EA2274EA47
:105A100012245474DB122A9C8A148B15751200759B
:105A20001300750A001260AA3515F5831261E0F5BE
:105A30000EAC18AD197A007B00799C123C30901A9C
:105A4000D4E06004640170147A047900123B22EA05
:105A5000F50A851882851983E02A800885188285D1
:105A600019837401F0E0F8E50EC3984003025C600E
:105A7000E0C3950EF509C394044003750903E509D5
:105A800075F01AA4FAABF012337E8A128B13EA4B2C
:105A90007003025C63750B00AE12AF13850E080233
:105AA0005B287C087D0079FFEE240AFAE43FFB12B4
:105AB00032C4850C82850D83A3A3A3A3E0702D853A
:105AC0000C82850D83126416700912738F125D07A4
:105AD000E48010125CE4F0901C94E014C0E0125CCE
:105AE000CBD0E0F0125CCF125D168032901C94E0B7
:105AF00004C0E0125CCBD0E0125D43C39403EE40DF
:105B000003025BA91274887402125D43640170037E
:105B1000025BB6EE2415125CE7125CF87401F0EE3D
:105B2000241AFE50010F050BE50BC3950940030233
:105B30005C15E508C3950A4003025BBFAA087B0019
:105B4000123B648A0C8B0D0508901C81125D29851F
:105B50000C82850D83125CF0F0A3E9125D1B125CD0
:105B6000CB74FF125D48A3A3A3A3A3A3E0C0E012DC
:105B70005CB9D0E0F07401122C8AE4F0850C8285C7
:105B80000D83125F5C7402122C8AE81273E47401B4
:105B9000122A5E123AE6E964016003025AA2740412
:105BA000122C8A125CD5025AB2125CE5125D436473
:105BB000036003025B13EE2415127392025B19E576
:105BC0000AC3950E40057508008051E50EC3950A7D
:105BD000F5088048EE2415127392125D16F0901CA1
:105BE00094E014C0E0125CCBD0E0125D1B741D1277
:105BF0002C8AE0C0E0125CB9D0E0F0125CC3126401
:105C000014700512738F8003125CE4F0EE241AFE08
:105C100050010F050BE50BC395095047740E122A6E
:105C200066AA087B007987123C3005087418122C8C
:105C30008A125D297410122C8A125CD5740E122CF3
:105C40008A125CF01273E4901AD4E060046401706C
:105C500083125CCF125CF87403125D0774FF808AB4
:105C6000750900750A00780A1229C478121229C031
:105C700078091229C4E50EF50978091229C47405BA
:105C8000122C8AE0FD7C00E5141261CC3515FBE591
:105C9000141261D13515F583E0F91238A07405129C
:105CA00029EEE51245136007AA12AB131233847470
:105CB000251229EE7F0E0226D1EE2419F582E43F4B
:105CC000F58322EE2412F582E43F22125D0C2212AB
:105CD000740F740222AC82AD83EE240AFAE43FFB17
:105CE00012348022EE2414F582E43FF583740122FD
:105CF0001273F1127405E822125CFC22F0EE2416F5
:105D0000F582E43FF58322F0125D0C22EE2418F5B3
:105D100082E43FF58322125CFCE422F0EE2417F5C6
:105D200082E43FF5837402F0221273F18E828F8336
:105D3000E8F0A3E9F07C957D1CEE1261CC3FFB12EC
:105D4000348022125D48E022F0850C82850D83A309
:105D5000A3A3A32274F612245474F9122A9C125D90
:105D6000C7127AAE851882851983122C738E828FA2
:105D700083A3A3A3A3E0C0E07404122C8AD0E01292
:105D80007823F87405122C8A7401F07406122C8A98
:105D90007401F090182DF0901836041274A4FAA330
:105DA000E0FB90182E1259B2E8901837F01278469E
:105DB000E090182CF0AA18AB19123BCAE960031244
:105DC0003BD074070252A78A088B091277BC3509A9
:105DD0002274F212245474FF122A9C7508007E006B
:105DE0007F001241108A0A8B0B125F438005050861
:105DF000125F59E84970F7901AD4E06007640160B7
:105E000003025EB9125F438003125F59E849602DB7
:105E10008882898312625B901C81E06A7003A3E030
:105E20006B600A125F6012625BEA4B70DC888289E9
:105E300083125F6AE0687003A3E069607C7A167B76
:105E40000012779F6073901C81125F5C8A828B8343
:105E5000E81273E4901C76126A94F012427EE98E86
:105E6000828F83A3A3A3A3A3F0901EB0E08E828FA2
:105E700083A3A3A3A3A3A3F07C957D1CEE240B1204
:105E80005CDCAA18AB197941125F4FE060089018EA
:105E900023125F5C800478FE79FF8E828F83A3A338
:105EA000A3A3A3A3A3E8F0A3E9125F79E50AF0A3F3
:105EB000E50BF08E0A8F0B0508901837E0F8E5081F
:105EC000C398500479008029E508C398F9C3940663
:105ED000400279057800800FE50A2414F582E43544
:105EE0000B125F71F50B08901837E0FAE8C39A407F
:105EF000E775090078091229C4780A1229C0E9F562
:105F00000978091229C4901837E0F509780912298F
:105F1000C4AD087C007A2E7B1890182CE0F912385A
:105F20009A74051229EE901AD4E060046401700B93
:105F3000EE4F6007EEFAEFFB123384123BD0740190
:105F40000278781241108A0C8B0DA80CA90D221230
:105F500039A285188285198322125F601273F1229B
:105F6000E82414F582E439F583221273F1901C8140
:105F700022F583E0F50AA3E022F0EE12748C22747D
:105F8000F012245474FF122A9C8A0A8B0B7E008E16
:105F90000E8E0F1260AA350BF5831261E0FFAC186C
:105FA000AD197A007B00799D123C308518828519E5
:105FB00083E0F8EFC3984003026054E0C39FFEC340
:105FC000940B40027E0AEE75F007A4FAABF0126162
:105FD000C48A0E8B0FEA4B6079750C00801A850815
:105FE00082850983A3A3A3A3A37403F0E508240770
:105FF000F50850020509050CE50CC39E5056AC0887
:10600000AD09E50C2FFAE43400FB798B123C3085A6
:106010000882850983A3A3A3A3A3E01460081460E6
:106020001314601F80B8850882850983A3A3A3A3E6
:10603000A3E480B7850882850983A3A3A3A3A374DF
:106040000180A8850882850983A3A3A3A3A3740262
:1060500080997E0075080078081229C4780E1229EC
:10606000C0EEF50878081229C4EFF508780812295F
:10607000C47405122C8AE0FD7C00E50A1261CC355F
:106080000BFBE50A1261D1350BF583E0F91238A656
:1060900074051229EEE50E450F6007AA0EAB0F122C
:1060A000338474011229EE025191EA1277BD2274F1
:1060B000EE12245474FE122A9C8A0C8B0D7510006B
:1060C0007511001260AA350DF5831261E0F50AAC76
:1060D00018AD197A007B0079A3123F1285188285CA
:1060E0001983125F5CC3E50A98E4995020851882F1
:1060F000851983A80AE0C398FEA3E09400FFC3EECD
:106100009404EF940040617E037F00805F7E007501
:106110000B00EEF975080078081229C478101229CE
:10612000C0E9F50878081229C4E50AF508780812CC
:1061300029C47405122C8AE0FDAC0BE50C1261CC6D
:10614000350DFBE50C1261D1350DF583E0F9123800
:10615000AC74051229EEE51045116007AA10AB11C9
:1061600012338474020278A9EE4F60A3EEFAEFFBBB
:10617000EA75F015A4FAA8F075F015EBA4281261E1
:10618000C38A108B11EA4B6032750B00750E00C389
:10619000E50E9EE49F4003026112AC08AD09A80A17
:1061A000E50E28FAE43400FB79A2123F12E5082438
:1061B00015F50850020509050E80D4750BB5790058
:1061C000026114FB12337E8A088B09222402FAE44E
:1061D000221261D522240FF582E4221257EAA3A3EA
:1061E0001257E8E02274F612245474FF122A9CEA33
:1061F000FEEBFF12640212625B8A82F583A3A3A303
:10620000A3A3A3A3A3E0F9123BEEE98518828519A5
:1062100083F075080078081229C47401122A568880
:1062200008890978081229C0750835750980780829
:106230001229C012623E1229EE74010252A779019E
:1062400012624AFAE43F12636822EE2402FCE43F41
:10625000FDEE240F228518828519831271C82274DD
:10626000F412245474FA122A9C125DC712637BEE56
:10627000FAEFFB123AC2E9600F12636FEEFAEFFB1E
:1062800012347AE964017013901AD4E07003026347
:106290004C7401122C8AE4F0A380097401122C8A38
:1062A000EEF0A3EFF0901AD4E06402701785088234
:1062B000850983A3A312681DE0687003A3E06960E9
:1062C0000302634C8E828F83A3A3A3A3A3A3A3A3E0
:1062D000E0FEA2E650087403122C8A7401F0EEA2CC
:1062E000E750087404122C8A7401F07405122C8A89
:1062F000E412660EF0F50A780A1229C47401122A13
:1063000056880A890B780A1229C0750A34750B80E1
:10631000780A1229C01263511229EE908151122C71
:106320005B1242187A007B001242247A007B001232
:10633000421E7401122A5E123C1EEEA2E7400D744A
:1063400001122C8A12641670031247DC7406025183
:10635000F37901E5082402FCE43509FDE508240F82
:10636000FAE4350912636822FB123804740522121C
:1063700041F48A0A8B0BAC0AAD0B22F58312772D00
:10638000FF2274F612245474FF122A9CEAFEEBFFDB
:10639000901AD4E07011901EB4E0700B8A828B8347
:1063A000A3A312641670581264021261E0F5087417
:1063B000FF650870037508FEA908123BDCE9851823
:1063C00082851983F0123FC6E96005A908123918C1
:1063D000EE240B12680A702775080078081229C489
:1063E0007401122A568808890978081229C075088C
:1063F0003675098078081229C012623E1229EE0211
:106400006239EA126407222413F582E43FF58322FD
:10641000F582E438F5831273F1E849220229A07469
:10642000F412245474EF122A9CEAFEEBFF1264CF9C
:10643000F508E439F509901823E06A7003A3E069D0
:106440007052A818A919880A890B780A1229C075F0
:106450000A11750B00780A1229C07C007D007A8130
:106460007B0012340874041229EEE97027750A00C3
:10647000780A1229C47401122A56880A890B780AEC
:106480001229C0AC08AD091264BA12385E74031246
:1064900029EE8021750A11750B80780A1229C078BF
:1064A000081229C0126807FD7C841264BA12386A87
:1064B00074041229EE74110251F31264BE22EE2408
:1064C00002FAE43FFBEE1261D53FF583E0F92212B8
:1064D00064D322EA126407126DA38882F5831264E2
:1064E000E222E0FAA3E0F8E4C8F9EA282274F11203
:1064F000245474EB122A9CEAFEEBFF1260AA3F12AE
:106500006607FAE4CAFBEC2AF508901823E06C70E1
:1065100003A3E06B60030265B388828983A3A3E0D1
:106520009410500F88828983A3A3E085188285196F
:106530008380088518828519837410F0E0C0E074A8
:1065400004122C8AD0E01276CEA982AA83890C8A02
:106550000D750E00780C1229BC7407122C8AE0FC11
:106560007D007408122C8AAA82AB831279E5122965
:10657000EE7404122A56880A890B780A1229C0750B
:106580000A11750B00780A1229C07C007D007A81FF
:106590007B0012340274041229EE7404122C8AE077
:1065A00090185F6005E0D2E48003E0C2E412660E5A
:1065B000E480088518828519837484F0E0C0E07453
:1065C00001122C8AD0E0F07402122C8AE508F074D3
:1065D00003122C8AE508F01278503F127214122927
:1065E000C47402122A568808890978081229C075CD
:1065F000081475098078081229C0790312624012C4
:1066000029EE74150277D0127732FCA3E022F085D0
:1066100018828519832274F612245474E0122A9C7D
:10662000EAFEEBFF901C83E064086008E06404600D
:1066300003026802AC18AD191237EC901AD4E0646A
:106640000270271241F47402122C8AAC82AD8312BC
:10665000347AE96015126811851882851983E0681B
:106660007003A3E06970030268021243C874021247
:106670002C8AAC82AD831262551242C6E964017065
:10668000030268027418122A5E1242067402122C67
:106690008AAC82AD837418122A5E12347AE96030B3
:1066A0001242008A088B09A808A909851882851951
:1066B00083E0687003A3E0696016851882851983FA
:1066C00012681DE81273E47A777B1C794B1239A8A3
:1066D000901AD4E0600464017067126811EE24110E
:1066E00012680A687003A3E06960567402122C8A6B
:1066F000AA82AB83123B4C8B09A909EA4960268A1E
:10670000828B83A3A3A3A3E06401600D8A828B83A1
:10671000A3A3A3A3E06402700C7402122C8AAA82C1
:10672000AB83123B58901D111264166014901AC668
:10673000E06401700C126255901D121257EB122684
:10674000327900126255123D74901C811253581216
:106750006255124380740B122C8AE4126824740C64
:10676000122C8AE81273E4740B122A5E123AE6E9DC
:10677000603F7C087D0079007418122A5E1232C4D2
:10678000740E122C8AAC82AD837418122A5E1234F5
:106790007AE9601D7402122C8AAC82AD83740E12E9
:1067A0002C8AAA82AB83123ABC740B122A5E123A6C
:1067B000F87402122C8AAC82AD83740E122C8AAA51
:1067C00082AB83123ABC740B122A5E123AECE96077
:1067D00031740C122C8A125F5C851882851983E053
:1067E000687003A3E069601A851882851983125FB7
:1067F0005C740C122C8AE81273E4740B122A5E1279
:106800003AF874200252A7EE240EF582E412594F92
:10681000221241FA8A088B09A808A909221273F1E9
:10682000901C7722F08518828519831273F12274E7
:10683000EC12245474F7122A9C8A108B11750F00E5
:106840007508007509001237F28A0A8B0BEA4B7043
:10685000030269DA750E00801BEE2408F8E43FF9A4
:106860008882F583E50CF0A3E50D12780A12637DAA
:10687000050F050E850A82850B83E0F8E50EC398A7
:106880004003026926E50EF50C750D007403780CC3
:10689000122BB1E50A250CF582E50B350DF583A326
:1068A000AA82AB83123B4C8B0DA90DEA4960C38AC7
:1068B000828B83A3A3A3A3E06401600D8A828B83F0
:1068C000A3A3A3A3E0640270A9EA241BF582E43920
:1068D000F583E06401709B7A0A7B001277A9E50ECC
:1068E000F51275130074037812122BB1E50A251204
:1068F000F582E50B3513F583A3AC82AD83123480AA
:10690000850C82850D83A3A3A3A3A3A3A3A3E4F073
:10691000A3F0E50845096003026859AE0CAF0D8E7F
:10692000088F09026870E50F70030269D3740812BA
:106930002C8A74021269FD851882851983E8127306
:10694000E4750E00E50FF50C750D007403780C125C
:106950002BB1AA0CAB0D1277A9EA4B60708028AE60
:1069600008AF09AC08AD09E50EF508750900740318
:106970007808122BB1E50C2508FAE50D3509FB1254
:106980003480050E1269E4E508450970D2750800E7
:1069900078081229C475081F75098078081229C063
:1069A000780C1229C0A90F7405122A66E510240F6D
:1069B000FAE43511FB12383A74051229EEAA0CAB31
:1069C0000D123384800DAE08AF091269E4E5084565
:1069D0000970F3AA0AAB0B12338474091229EE7FF3
:1069E0000C0226D18E828F83A3A3A3A3A3A3A3A368
:1069F0001273BAF509EEFAEFFB12338422F0851018
:106A000082851183A31273F02274F4122454123776
:106A1000F28A088B09AE08AF09EA4F606475080076
:106A2000804CE508F50A750B007403780A122BB147
:106A3000126A84123B4C8B0BA90BEA49602E8A82A6
:106A40008B83A3A3A3A3E06401600D8A828B83A33D
:106A5000A3A3A3E064027014E508F50A750B0074A3
:106A600003780A122BB1126A84123B5805088E82F1
:106A70008F83E0F8E508C39840A8EEFAEFFB1233E5
:106A8000840251F6EE250AF582EF350BF583A3AAB1
:106A900082AB83221278B1A3A32274F1122454741E
:106AA000F6122A9CEAFEEBFF7508009018CB1264E0
:106AB000166003026B8B7A377B0012337E9018CB03
:106AC0001259B2F9EA49601C7C377D007900123214
:106AD000C4EEFCEFFD9018CB12625B1237B6E96092
:106AE00003026B7D8518828519837488F0740912FE
:106AF0002C8A7402127869F8A3E0F97401122C8AC6
:106B0000E81278571272161229C47401122A568894
:106B100008890978081229C0750820750980780845
:106B20001229C079017406122A66EEFAEFFB126D83
:106B30002B1229EE1271F8703C7409122C8A74021F
:106B4000127276126D60122C8A12727A1229C47433
:106B500001122A568808890978081229C075082068
:106B600075098078081229C079017406122A661204
:106B700071CE1229EE1237B0740A0277D0127593D3
:106B80001272027401F01271B880EDE8126D14E017
:106B900064016003026CCA9018CBE0126D14740299
:106BA000F0EAFCEBFD12719E1237B6E9700C851805
:106BB000828519837488F0750801750A95750B181C
:106BC000780A1229C0126E3AF582E438F583122849
:106BD000231275932428127189FC126E34126D48A9
:106BE0002414126D1D1229EE126D3F126D8F243187
:106BF0001271896039127260126D2F2432126D7910
:106C00006020750C95750D18750E00780C1229BC56
:106C1000127260FCE433FD126E2E126D6C1229EEBE
:106C2000800C8518828519837488F0750801780AAC
:106C30001229C0126E28F582E438F5831228231237
:106C400075932411127189FC126E22126D48242B47
:106C5000126D1D1229EEE9F81275932434126D8F0E
:106C60002434127189602D127257126D2F2435123F
:106C70006D796042750C95750D18750E00780C12C3
:106C800029BC127257FCE433FD1275932435126D42
:106C90006C1229EEE508A2E04025126D3F127189C1
:106CA00070089018CB12722360157B007A0079006F
:106CB0001237BC026B788518828519837488F08539
:106CC00018828519837486026AEC85188285198377
:106CD0007488F07409122C8A74021273E974011218
:106CE0002C8A126D871272161229C47401122A5648
:106CF0008808890978081229C075082075098078E4
:106D0000081229C079017406122A66126D2B122905
:106D1000EE026B78242EF582E439F58322F582E4C5
:106D200038F583E0F912370874042212636922FAF5
:106D3000E433FB12337E9018CBE0FCA3E0CC22902E
:106D400018CB126D56243122F582E4381271C61226
:106D50006D53229018CB126D5A22E0F8A3E0C8229E
:106D6000F5838882A3A31273F1740122F582E438BB
:106D70001271C61232B8740322F582E43CF583EA3C
:106D8000F0A3EBF0EA4B22E8F0A3E91276FE22F53D
:106D900082E438F583126D9AC822E9F0126DA022C0
:106DA0009018CBE0F8A3E022C082C0839018CB12E9
:106DB00064166067E82435F582E4391264146008CB
:106DC0001275932435126E40126E2E1264106006F6
:106DD000126E2E126E40126E281264106006126E31
:106DE00028126E40126E341264106006126E341255
:106DF0006E40126E3A1264106006126E3A126E40C5
:106E0000126E221264106006126E22126E409018EA
:106E1000CB126E469018CBE4F0A3F0D083D0820260
:106E200029A0126D53242C22126D53241222126DAC
:106E300053243222126D53241522126D5324292219
:106E4000F582E438F5831271C81233842274F1128A
:106E50002454EAFEEBFF8C088D09750A018C0C8D19
:106E60000D750E00780C1229BC7C177D001279E597
:106E70001229EE1273F6E5082411127582E06027DC
:106E80001278DD126F2B601CE5082412126F1A12A3
:106E900029BCE5082411126F0A125CC4126D70122D
:106EA00029EE8003750A00E5082414127582E0605B
:106EB000251278DDEE2415126F2E6041E5082415A9
:106EC000126F1A1229BCE5082414126F0A126F03FC
:106ED000126D701229EEE50AA2E0401C125CC3128A
:106EE00064146006125CC3126E44126F02126414C2
:106EF0006006126F02126E44A90A0277D3750A0067
:106F000080DAEE2415F582E43F22F582E43509F5B6
:106F100083E025E0FCE433FDEE22F582E43509F55B
:106F200083E0F50CA3E0F50D780C22EE2412F58237
:106F3000E43FF583EAF0A3EBF0EA492274EE122471
:106F40005474ED122A9C890B8A0E750C00750D0085
:106F5000750AFF7510FF7511FF750800750900852A
:106F60001882851983E4127276F9E8496016740371
:106F7000650B60067402650B700FE0C82430127157
:106F8000896B600579000271847CC27D377A007B51
:106F900000123E0A7401650B700A851882851983F8
:106FA0007485803DE50B60067403650B70199018BD
:106FB000CB1271D8F07403650B7029E50E6029853A
:106FC0001882851983801A7402650B701BE50E9078
:106FD00018CB70051271D880081275961271EF7473
:106FE00002F08004E50B601E1271DE701912721C33
:106FF0006005126D42800A127223600A1275932492
:107000003412718914F012721C60181273B4127267
:1070100060127817CA2432127234241D1271AB2404
:10702000258026127223602A9018CBE02417F508D9
:10703000A3E03400F509127257127817CA243512EA
:10704000723424061271AB240EF582E43AF583E023
:10705000F50A7409122C8A740212660EE0600302AB
:1070600070F9E508450970030270F91271DE7004C9
:107070007E2280027E21850882850983126D64123A
:107080002C8AE81273E49018CFE0C0E012759324C4
:1070900030F582E438F583D0E0F07412122C8A7453
:1070A00003F0AC0CAD0D740A122A5E1273D0E0F539
:1070B0000C780C1229C4780A1229C4740C122A56AE
:1070C000880C890D780C1229C078101229C0E508A7
:1070D0002406F50CE43509F50D780C1229C012715F
:1070E00091F97409122A66EEFA7B00123876740858
:1070F0001229EE1271B8027182126DA0126D601227
:107100002C8A12727A1229C47401122A56880889AC
:107110000978081229C07508207509807808122995
:10712000C079017406122A661271CE1229EE12710C
:10713000F8704C1275932419F582E438F583126DBA
:1071400066122C8AE8F0A3126D952418F582E438B3
:107150001272141229C47401122A568808890978F7
:10716000081229C075082075098078081229C0798D
:10717000017406122A6612719E126D2B1229EE12EC
:1071800037B0790174130278A9F582E438F583E009
:1071900022E508240EF582E43509F583E0229018F3
:1071A000CBE02417FAA3E03400FB22F50CA3E03473
:1071B00000F50D9018CBE0227CC27D37901C0012A8
:1071C00071C8123E0A22F583E0FAA3E0FB22901870
:1071D000CB1271C8126369221271E87401229018EF
:1071E000CB1271E8E0640122126D5A1271EF222471
:1071F0002FF582E438F58322126D53127202E06497
:107200000222242EF582E438F58322E510240EF5BF
:1072100082E43511F583E0F5087808221272669051
:1072200018CB2212722722126D5A2434F582E438C8
:10723000F583E022F582E43AF583E028F8A3E0390B
:10724000F9E824FEF582E934FFF583E0F510A3E0C8
:10725000F5119018CBE0229018CB12722725E0226E
:1072600012726625E0229018CB126D5A2431F582F5
:10727000E438F583E022126D9B22E8F0A3126D9AA8
:10728000F5838882A3E0F508780822C082C0837B5A
:10729000007A8579011237BC026E1B74F4122454F3
:1072A000ECFEEDFFEA1261D13BF583127811127307
:1072B000E98C828D83A3A3E81273E4EA1278513B30
:1072C000F5831276C0F01273AF850882F5831278C9
:1072D000F21273E3E5082402F50850020509FCAD3B
:1072E00009EE24061273C0C0E01278503FF583D037
:1072F000E0F0E5082409F50850020509F582850942
:107300008312781EF9EE1261D13FF583EA1273E41D
:107310001273F6850882850983A3A3E0F8EE241191
:1073200012749550020509E86019127386126F2BCA
:107330006011EE24121273A2241112739A8A088B20
:10734000098007EE2411127392F085088285098363
:10735000E0F8127487E81277C38582088583096094
:107360001EEE241412680A127386EE2415126F2E74
:10737000600DEE24151273A2241412739A80041265
:10738000738FF00251F6F81278D38B0BA90B22EE13
:107390002414F582E43FF583E42212594CF91237A4
:1073A000382212594CFCA3E0FDAA08AB09EE2212C8
:1073B00079D7F5831273BAF50922E0F508A3E02224
:1073C000FAE43FFB1273D0A3A3A3A3A3A3A3E022D9
:1073D000123480850882850983A322A3E0F9EA8C10
:1073E000828D83A3F0A3E9F0221276FE1273F022BD
:1073F000A3126DA3F922127405E4F0A3F012740F26
:10740000E4F0A3F022EE2412F582E43FF58322EEAD
:107410002415F582E43FF5832274F6122454ECFE21
:10742000EDFF1273AFAC08FDEEFAEF1273C38E825C
:107430008F83A3A3A3A3A3A3A3A3F0E5082409F523
:107440000850020509F582850983127899A3F0A3F3
:10745000E91274A4F8EE241312749550020509740D
:1074600003687013AC08AD09EE240B1273C0C0E0C2
:10747000127487D0E0800C85088285098312788990
:10748000F0A3E9F00252AAEE12748C222414F582C1
:10749000E43FF58322F582E43FF583E8F0E5082434
:1074A00003F508221277C7A3E02274F2122454EAEB
:1074B000FEEBFF750A00EA241012680AC3940C4020
:1074C0000D126402127596240B127189F50AA80A2E
:1074D000E828F8E433F9E8240D1278807003027587
:1074E00077EE1260AB3F12758AE0F88A828B8312C6
:1074F0007837AE82AF83707FEEFCEFFDEA24031293
:10750000759A50010FF5828F83125A038508828580
:1075100009831273E3E508240B127582E4F0E50A8F
:107520006055E508240DF8E43509F98E828F83A3B0
:10753000A3E0C0E0E508240B127582D0E012783099
:10754000C0E012757ED0E0F0EE2404FE50010F85FD
:107550000A0B8E828F83E0FCA3E0FBEC8882898398
:107560001259B3E82402F8500109EE2402FE50013A
:107570000F150BE50B70DBAA08AB0902787BE50859
:10758000240CF582E43509F5832212772BFF8E82D5
:10759000F583229018CB126D5622FAE43509FB12BE
:1075A0003480EE2408FE2274F6122454127705600B
:1075B000030276BDE81261CC39FBEC2403FEE43D06
:1075C000FF8A828B83E05407F5088E828F83E05414
:1075D000F84508F5091276C7A2E3E433F508A2E0FE
:1075E000E433333333F50874F7550945088E828F39
:1075F000831276C7A2E4E433FAA2E0E433C4FA8E3D
:10760000828F83E054EF4AF0E82403FAE439FBEC7C
:1076100024040EE43DFF8A828B83E054F8F5088E43
:10762000828F83E054074508F5081276C75407FA9D
:1076300074F855084A8E828F831276DF8C828D8390
:10764000A3A3A3A3A31276CEA31278101276E512F9
:1076500076C01276E51278101276F61276C012769F
:10766000F6A31276C0A3A3A3A3A3A3A3A3A3F0E8A6
:10767000240AF8500109F582898312772DFBEC2446
:107680000BF582E43DF583EE1259B388828983A31A
:10769000A3E0C0E0EC240DF582E43DF583D0E012D8
:1076A00076CEE0C0E0EC1278513DF583D0E0127662
:1076B000DFC0E0EC1261D13DF583D0E0F00252AAC8
:1076C000E08C828D83A322F08A828B83E022127663
:1076D000D2221276D622F088828983A3A3A3221213
:1076E00076D2A3E0221276E922A3A3A3A3A3A31236
:1076F00076D6A3A3A322A3A31276E9A3A322F08A9A
:10770000828B83A3221279D71277328C828D8312D7
:10771000780AA3A882A98312772DFBEE8C828D8331
:10772000A3F0A3EBF08C828D83E022F583E0FEA32F
:10773000E022F583126DA3F98882F583E02274F1CB
:107740001224541277B11273BA850882F583E0F5DA
:107750000BA3858208858309A3A3E0F50A12779815
:1077600060308A828B83E50BF0850882850983E08F
:10777000FA1278B7E50A1277C3A3A3A982AA83896C
:107780000C8A0D880E780C1229BCAC0A1279DC1216
:1077900029EEEEFAEFFB803B2404FAE43400FB12FE
:1077A00077A9AE0CAF0DEA4F2212337E8A0C8B0DF7
:1077B000221277B5221277BC3BF58322EA2413F517
:1077C00082E4221277C722F0850882850983A322EA
:1077D0001229EE7F070226D174F7122454EA2413EB
:1077E000F8E43BF98882F58312781EF5838A8212C9
:1077F000781112780A125F5C8882F583A3E0FA8818
:10780000828983A31273DB025114F0888289832258
:10781000A3E08C828D8322F8E433F99018CBE0FA50
:10782000A3E022127829A3E022127862A3A3A32264
:10783000127837A3A3E02212786222FB12337E8AE9
:107840000A8B0BEA4B22E5081261D53509F5832234
:10785000EE240EF582E42212785B22F0A3E912787E
:107860006222F08E828F83A322127837A3E022F067
:107870008A828B83A3A3A3221229EE7F060226D13C
:10788000FAE4391261C3EA4B22E0FAA3E0F9EE24EC
:107890000BF582E43FF583EA22125A078E828F832A
:1078A000A3A3A3A3A3A3A3A3221229EE7F0A0226C4
:1078B000D1E08A828B8322A3E0F8E4C8F9EA8E82C1
:1078C0008B83A3F0A3E9F08E828B83A3A3A3221260
:1078D00078D32225E0FAE433FB12337E221278D3E8
:1078E0008B0DA90D228E828F83E0F50AA3AE82AFA5
:1078F0008322125A078C828D83A3A3A32274F612CB
:1079000024548C088D09127934FF1259FF8C828D12
:10791000831273E4E82402FE50010FFCEFFDE5083A
:107920001261CC3509FB1234808E828F83A31279C9
:107930003B0252AA1277B5126DA322A3A3127A8733
:10794000A3A3A3A3A3F02274F21224541279D31296
:10795000637BEA240CF582E43BF583E0641F70044A
:10796000A3E0648070098E828F83A3AE82AF838E82
:10797000828F83E0F50DA3AE82AF83F50875090011
:1079800074037808122BB1E5082401FAE4350912D2
:10799000783B60388A828B83A38582088583098A35
:1079A000828B83E50DF0750C00801AEEFCEFFDAACA
:1079B00008AB0912759F50010FE5082408F508501F
:1079C000020509050CE50CC3950D40DFAA0AAB0BB7
:1079D00002787B1279D7221277BC3B227D00EE24FD
:1079E00004FAE43FFB1232B87403221264E2F50A8F
:1079F000E439F50B8E828F83A3A3E02212786FA364
:107A0000A3A3A3E50AF02274F61224548C088D096E
:107A10001279D3127AAE850882850983122C738E6F
:107A2000828F83A3A3A3A3E0F8850882850983A39B
:107A3000A3A3A3F0C394065005127A7F803D850866
:107A400082850983A3A3A3A3E064FE600E85088258
:107A5000850983A3A3A3A3E0F47021127A7FA3F086
:107A6000EE2406FE50010F850882850983A3A3A397
:107A7000A3E0F47007127A99F0A3E9F00252AA8EFB
:107A8000828F83127A8722A3A3A3A3A3E08508820F
:107A9000850983A3A3A3A3A3228E828F83125A07EF
:107AA000850882850983A3A3A3A3A3A3A322127796
:107AB0002BFF7904EEFAEFFB1232D0EAF8EBF9EC87
:107AC000FAEDFB22C082C083906180E4F0E04409BB
:107AD000F0906189E0D2E5F0906182E0D2E0F0E0E0
:107AE000D2E1F0E0D2E2F090065D7401F0027DF3A5
:107AF00074E812245474F6122A9C8A168B17ECFE32
:107B0000EDFFEA4B60228A828B83A3A3A3A3A3A3E6
:107B1000A3A3E0640260168A828B83A3A3A3A3A31A
:107B2000A3A3A3E06403600579E8027D49122E084F
:107B3000E9F46005791E027D49851682851783A3C5
:107B4000A3A3A3A3A3A3A3E0F514122E148A088B66
:107B5000098C0A8D0B122E1A8A108B118C128D1320
:107B600085080C85090D850A0E850B0F780C791098
:107B7000122B3F74026514751400703B8A0C8B0D38
:107B80008C0E8D0F74FE5514780C122A3DE50CA254
:107B9000E0401985080C85090D850A0E850B0FE557
:107BA00014780C122A3DE50CA2E050460514E514A9
:107BB000C39418503D80C5850C08850D09850E0AB3
:107BC000850F0B751003751100751200751300E514
:107BD00014C333781012293D78087910122B78E5F8
:107BE000084509450A450B60090514E514C3940CC2
:107BF00040C5741865147069851682851783A3A320
:107C0000A3A3A3A3A3A3E06402606F8516828517D4
:107C100083A3A3A3A3A3A3A3A3E064027061740638
:107C2000122C8AEEF07407122C8AEFF085168285EA
:107C30001783E0C0E07408122C8AD0E0F085168229
:107C4000851783A3E0C0E07409122C8AD0E0F07994
:107C5000047406122A66E514F5087509007402809A
:107C60002D740C651470A4851682851783A3A3A3B5
:107C7000A3A3A3A3A3E064037091791A027D4979B9
:107C800008AC16AD17E514F50875090074037808FB
:107C9000122BB12508FA74613509FB127D53640279
:107CA0007903AC18AD19703B7A67127D66750C01CB
:107CB000750D00750E00750F00E514780C12293D46
:107CC0007808790C122B3F78081229B87407122A09
:107CD0005E12334274041229EE7903E9122A667A9D
:107CE0006780577A64127D66E514C333FA750C0118
:107CF000750D00750E00750F00780C12293D78087F
:107D0000790C122B3F750C01750D00750E00750F67
:107D10000074012A780C12293D7808790C122B3F47
:107D200078081229B87407122A5E123342740412BA
:107D300029EE7903E9122A667A647B61127D53FB8E
:107D40007A01A914122E0E7900740A1229EE7F10FE
:107D50000226D1122F0A851682851783A3A3A3A317
:107D6000A3A3A3A3E022127DFA8A088B098C0A8DB3
:107D70000B2274F7122454EAFEEBFFEA4F602C8AC0
:107D8000828B83A3A3A3A3A3A3A3A3E06402601194
:107D90008A828B83A3A3A3A3A3A3A3A3E0640370FA
:107DA0000A122E08E9F974FF69700479E880158ECB
:107DB000828F83A3A3A3A3A3A3A3A3E0FB7A0012B0
:107DC0002E0E79007F010226D1C082C08374016922
:107DD00090065E700B7401F090618AE0D2E2800838
:107DE000E4F090618AE0C2E2F08008127DFA740348
:107DF0001229EED083D0820229A07B61122F107944
:107E000003AA18AB191232D022C082C08390065E3A
:107E1000E06401700479FE800279FF80D6C082C0E0
:107E20008390065EE0600479018009906163E0F868
:107E3000744058F980BD74EC12245474F4122A9CD6
:107E40008A828B83A3A3A3A3A3A3A3A3E06402704A
:107E500040EC851882851983F07401122C8AEDF0AC
:107E60008A828B83E0C0E07402122C8AD0E0F08A10
:107E7000828B83A3E0C0E07403122C8AD0E0F0A8C8
:107E800018A919881289137E04751001122E148006
:107E90000C8A128B137E08751002122E1A8A0C8B14
:107EA0000D8C0E8D0F7F00850C08850D09850E0A3F
:107EB000850F0BEF7808122A3DE508A2E05053E544
:107EC00010F5F0EF84F50BEEF97404122A66E50B59
:107ED00089F0A4FAA8F0E428FB74613BFB122F1090
:107EE0007404122A5688088909750A00780812292C
:107EF000BCEEFC7D00851282851383A982AA837B58
:107F0000001232BE74031229EEE964017004A90B59
:107F1000800BE5102FFFC39418408C79FF740C126E
:107F200029EE7F0C0226D174EF122454E9FEEBFFF8
:107F300074016A702374026F700F127FA012293DC2
:107F4000780C7908122B3F8026127FBB12293D78CE
:107F50000C7908122B3F803274026F701B127FA0C5
:107F600012293D7808122BD5780C7908122B7878D5
:107F70000C1229B87A838019127FBB12293D780828
:107F8000122BD5780C7908122B78780C1229B87A34
:107F9000867B6112334274041229EE7F090226D1D6
:107FA000122E148A0C8B0D8C0E8D0F75080175091D
:107FB00000750A00750B00EE780822122E1A8A0C42
:107FC0008B0D8C0E8D0F750801750900750A0075F3
:107FD0000B00EEC333780822C082C08374FD122ADE
:107FE0009C7903AC18AD197A83027DEBC082C08303
:107FF00074FD122A9C7903AC18AD197A86027DEBC8
:10800000FFFFFFFFFFFFFFFFFFFF00FFFFFFFFFF7F
:10801000FFFFFFFFFFFFFFFFFFFFFFFFFFFFFFFF70
:10802000FFFF000000000000000000000000000052
:108030000000000000000000000000000000000040
:108040000000000000000000000000000000000030
:108050000000000000000000000000000000000020
:10806000000000000000001A3A4A4692407A40049C
:108070003E9A3E3A35BA36EC346447CE34422D004F
:1080800000000000000000000000000000000000F0
:1080900000000000000000000000000000000000E0
:1080A00000000000000000000000000000000000D0
:1080B00000000000000000000000000000000000C0
:1080C0000002020207023B1534010200000000001A
:1080D00000000000FFFFFFFFFFFFFFFFFFFFFFFFAC
:1080E000FFFFFFFFFFFFFFFFFFFFFFFF0008000490
:1080F0000002000100000000000000000205020074
:108100000801740000000000000000000000008270
:10811000003A003B000000FF006400000009433803
:1081200086FFFFFFFF10000000B80B0000102700C3
:1081300000FEFFFFFF19E0FCFFF8FF0000E71F0350
:1081400000805101003C000000100E000000000003
:10815000FF00000000C8000000FA00000060EA0014
:10816000008813000032000000E2040000BC02009E
:108170000000F8FF070A00000004000000010000F2
:1081800000000000000048000001000080400100E5
:108190000014000000E803000030000000000000B0
:1081A000000C74F7122454E9901CCEF0901C83E468
:1081B000F0123282901CE6E4F0A3F0901CCFF0A302
:1081C000F0124368901AD4E0600464017006123B18
:1081D0001C123CDE123288901BECE4F0A3F0123942
:1081E000D202B20074F012245474D3122A9C12D317
:1081F0007254806066901CCEE0F91232F48A088BCB
:1082000009AF09EA4F604C7C0080010CEC75F0036B
:10821000A4F8A9F074BB28F582744D39F583E49372
:10822000F46029E493F88A828B83E06870DDEC7552
:10823000F003A4F874BC28F582744D39F583E493F7
:10824000C0E0740193F583D082122632AA08EFFBB6
:108250001232E212EF4464800286E88518828519A2
:1082600083A3E05420601F1241B28A088B09AF0932
:10827000EA4F600A1240C8AA08EFFB1232E212EF7E
:108280004464200286E8901AD4E06402704D851898
:1082900082851983E0A2E05042901C88E0640F7050
:1082A0002E90084112EF72900841C3E094E9A3E0D8
:1082B0009403400A7A007B8090185812B398790092
:1082C000124098E96009901E9C122C5B1240B08508
:1082D0001882851983E064010285E6851882851974
:1082E00083E05420700302859C7A207B0012A55401
:1082F000701A901CE2122C67E8494A4B700E750800
:1083000001750900750A00750B00806D750C00750C
:108310000D00750E00750F001234568A088B098CFB
:108320000A8D0B901CE2122C67E8494A4B60319091
:108330001CE2780812295C400E750CFF750DFF7564
:108340000EFF750F7F801985080C85090D8C0E8D29
:108350000F901CE2780C122A6E7401780C122A3DE0
:10836000850C08850D09850E0A850F0BE508450962
:10837000450A450B70030284FA7C0079047A007B7D
:10838000001241768A0C8B0DAE0CAF0D0284407446
:1083900002122C8A74FFF07403122C8A74FFF0749A
:1083A00004122C8A74FF12A1F9FAA3E0FB740712DD
:1083B0002A66128E74E9640170681286F44480F8AB
:1083C000A3E0F97428122C8AE8F0A3E912E993E0FB
:1083D000C0E0742A122C8AD0E012B47254086016DD
:1083E0007428122C8AA3E04401128713C0E0742C75
:1083F000122C8AD0E0F012C93E6011E8240B1286DC
:10840000FEF87416122C8AE8F0A3E4F09081511261
:10841000281F7406122A66740B122A5E129A6912B9
:1084200029EE8E828F83A3A3A3A3A3A3A3A3A374E4
:1084300006128713F91241587405122C8A12E0C7EC
:10844000EE4F70030284FA7C007904EEFAEFFB121F
:1084500041767405122C8A12D3788E828F83A3A35F
:10846000A3A3128AECE4F50EF50F7808790C122B11
:10847000E54021EE2404F8E43FF985080C85090D58
:108480008882F583C3E0950CF0A3E0950D12F023EC
:1084900070A6800C8E828F83A3A3A3A3E4F0A3F025
:1084A0008E828F83A3A3A3A3A3A3A3A3A3A3E06408
:1084B000018E828F83A3A3A3A3A3A37020E05404FF
:1084C000600302838F8E828F83A3A3A3A3A3A3A39E
:1084D000A3A37406F07AB7128706028438A3A3A375
:1084E000A3E0600302838F8E828F83A3A3A3A3A341
:1084F000A3A3A3A37401F00284381241467C00793F
:10850000017A007B00124176EA4B600312B3917C42
:108510000079047A007B00124176EA4B70148045A2
:108520008A828B83A3A3A3A312CDC2C3EE98EF9933
:10853000400B8A828B83A3A3A3A312E0C77C00799C
:10854000041241768B0BA90BEA4970D4C3E5089E4F
:10855000E5099F500DC3EE9508FEEF9509FFEE4F1C
:10856000700B12B391901CE2129B0B8024EE2EFE36
:10857000EF338E08F509E4F50AF50B78081229B8EF
:108580007A2012898F1229EE123456901CE2122C96
:108590004F851882851983E06420804A901AD4E0C0
:1085A0006007640160030286AE851882851983E046
:1085B0005410600E123D1A851882851983E06410EC
:1085C0008024E05440600E123D9285188285198304
:1085D000E064408011E054806012123BE285188212
:1085E000851983E06480FAA3E00286E8A3E05401E1
:1085F000600B12433E12EF4464010286E885188244
:10860000851983A3E054086040123CEA901EBBE049
:108610006401702D901EBCE06027F508E4F509F5B3
:108620000AF50B908195780C122C337808790C128E
:10863000236578081229B87A007B0812E1641229B0
:10864000EE12EF4464080286E8851882851983A338
:10865000E054106013901CE0E06005E4F0123CEA86
:1086600012EF4464100286E8851882851983A3E01E
:108670005440603A901D0712C945602B901AC6E01D
:1086800064017023901D0812C695122632901D0DAC
:1086900012C945600612C69512263290819512289D
:1086A0001F12E1601229EE12EF446440803A8518EF
:1086B00082851983A3E05402600A12433812EF4402
:1086C00064028024851882851983A3E05404601B0A
:1086D00012CCC3901AD4E0640270031247D6790119
:1086E00012A05412EF446404FB80047A007B0074EF
:1086F0002D02D8BEEE240D129B2422E82406F5821A
:10870000E439F583E0228E828F8312F26EE0F91253
:1087100040AA2212B477A3A3E022C082C08374EAE5
:10872000122A9C7C167D007900AA18AB191232C45B
:108730007408122C8A7402F0901C7712CF001287F2
:108740005A7409122C8A12CF197413122C8AE4124B
:10875000CA4E1239C6741602B8B9E8F0A3E9F0900F
:108760001C8112B8E72274F712245474DA122A9C7E
:10877000EAFEEBFFEA4F602DAC18AD191241DC7434
:1087800006122C8AE0601E7417122C8AE0FD740118
:10879000122C8AE0FCEEFAEFFB7900123FF0E96060
:1087A0000479A480027900742602B1FD74F41224C5
:1087B000548A088B098A828B83A3A3A3A3A3A3E073
:1087C000544060168A828B83128E5560077AFF7B35
:1087D000FF0288A512DA24028898901AD4E0600774
:1087E0006401600302888D901C6EE0A2E1400302E8
:1087F000888D8A828B8312BA6512CC0EA3A312884D
:10880000F2A3A312D7738508828B83A3A3A3A3A388
:10881000A3A3E054106004794080027900750AFE39
:10882000750BFF780A1229C01288E8122823EAFC87
:10883000EFFD85088212B465FAA3E0FB123CF074E8
:10884000041229EEEE6A7002EF6B600C1288E8E009
:108850006A7003A3E06B7043750A00780A1229C49A
:10886000790285088285098312B467FCA3E0FDEED6
:10887000FAEFFB1242D874011229EE7ECDEEFA8592
:10888000088285098312870AE960498056901AD4C4
:10889000E0640270E6901C7712D76F74FE6A700372
:1088A00074FF6B60D612DA2412D378124296E985EF
:1088B0000882850983600812B0A5E4F0A380031242
:1088C000F295F07C9E7D4085088285098312AB4538
:1088D000E9FE70A9E508450960097901AA08AB0914
:1088E000124152EEF902A8DCE50812B8CC3509F5C0
:1088F0008322A3A3E0FA888289832274F612245487
:10890000E9FEEAFF7A0F7B001232DCEA4B601A8A3A
:10891000828B83740CF0EEA3A3F0EF8A828B831218
:10892000AF7012CB3F7900802BEEF912417C8B099E
:10893000A909EA49601C8A828B83A3A3A3A3A3A3EA
:10894000A3A3A3740612AF79E0F9123DA4EEF912C5
:108950004158791002C76D74F41224548A088B09A7
:108960008C0A8D0B901C88E0640F701EEA4B4C4DF6
:108970006018901C83E064086005E06404700B7864
:10898000081229B812898D1229EE02A8DC7A017B1F
:1089900000901CCEE0F912343874042274F21224D0
:1089A00054EAFEEBFF8C088D09890A740E122C8A9A
:1089B000128AEC850C82F583E4F0A3F0EA128AF4C3
:1089C000601E8E828F83128B2070158E828F83A300
:1089D000A3A3A3A3A3A3A3A312DA5012CF198003C6
:1089E000750A0012C39212B46714602E1460431407
:1089F0006060146068146048147003028A8024FE6A
:108A00007003028A9D147003028AA6147003028AFE
:108A1000B9147003028AC7028ADD780C1229C0AC2F
:108A200008AD09EEFAEFFB123D0274021229EE02C4
:108A30008AC2AC08AD09EEFAEFFB123D08028AE7E4
:108A4000128B056003028ADDEEFAEFFB123D56023F
:108A50008AE7A90AEEFAEFFB1242DE8065EE2417E0
:108A600012B7B264027076E50A700A12DFE870038A
:108A7000A3E0697072EEFAEFFBA90A124266804227
:108A800012DFE87003A3E0697053EE241712B7B247
:108A900064027049EEFAEFFB12424E804AEEFAEFA2
:108AA000FB12435C804112DFE87003A3E069702D84
:108AB000EEFAEFFB1242EA802EEEFAEFFBA90A1261
:108AC00042F6E9F50A8020901AC6E064017009EECA
:108AD000FAEFFB124302800F750A00800A750A0044
:108AE0007AD37B001236AEA90A02A9D9E0F50CA30D
:108AF000E0F50D22241DF582E43FF58312B2D7F98B
:108B0000124272E9228E828F83A3A3A3A3A3A3A3FD
:108B1000A3A3128B1622E0FAA3E0FB124296E922ED
:108B2000A3A3A3A3A3A3A3A3A3128B1664022274DB
:108B3000F412245474D6122A9C8A088B098A828BD8
:108B400083A3A3E0F912417C8A0A8B0BAE0AAF0B18
:108B5000EA4F7003028C62850882850983A3A8828C
:108B6000A983E0C0E0EA12B7A8D0E012F3CA64F12A
:108B70006033850882850983A3E064CD602785087A
:108B800082850983A3E0641A601B850882850983B6
:108B9000A3E064E9600F850882850983A3E064E1AE
:108BA0006003028D45901AD4E060076401600302FF
:108BB0008C788A828B83A3A3A3A3A3A3A3E05408E6
:108BC0007003028C788A828B83A3A3A3A3A3A3A39D
:108BD000A3A37405F0901AD4E06004640170548576
:108BE0000882850983A3E064E96048901D0312C9E7
:108BF00045600612C695122632901D0512C94560C1
:108C000032901C6EE0A2E1502A8E828F8312CFFE3A
:108C1000A3A3A312AEA288828983129A81EA4B6031
:108C200012850882850983A3E0F9901D0512DA2ACE
:108C30001226328E828F83A3A3A3A3A3A3A3A3A3ED
:108C4000E0640270108E828F83A3A3A3A3A3A3A3C7
:108C5000A3A37406F0850882850983A3A3E0F91213
:108C60004158124146901AD4E064027006901EA248
:108C7000129AA7742A02A8D97900124152E9700306
:108C8000028D45901AD4E0600764016003028D16DE
:108C9000901C6EE0A2E1507E8E828F83128E341281
:108CA000C94360728E828F8312D76F7404122A6652
:108CB000128E74850882850983A3E064E9701B1213
:108CC0008E401229C4850882850983A3E0F50A78BD
:108CD0000A1229C4128E5C1229EE740D122C8A120B
:108CE000CDC612EF4F12CF197409122C8AE060041E
:108CF000794080027900740F122C8A12AEA2740D92
:108D0000122C8A129A79600E8E828F83A3A3A3A35A
:108D1000A3A3E04420F0EE2404F50AE43FF50B8E13
:108D2000828F83A3A3A3A3A3A312AEA285088285E7
:108D3000098312ADC1123294850A82850B83EAF051
:108D4000A3EB028BD4850882850983A3E0C0E0747D
:108D500002122C8AD0E012F58FF012CB33E0C0E083
:108D60007403122C8AD0E012E76AE0AA18AB1970DB
:108D70002A123C3C901AD4E0600464017020740212
:108D8000122C8AE07018128E517031901D0312C996
:108D900045602912C695122632800312426C740275
:108DA000122C8AE064E97014128E401229C4750AEC
:108DB000E9780A1229C4128E5C1229EE901AD4E0C6
:108DC000600764016003028C33901C6EE0A2E140F6
:108DD00003028C338E828F83A3A3A3A3A3A3A3A395
:108DE000A3E0640270358E828F83A3A3A3A3A3A301
:108DF000E054046026128E518E828F83700F12DA37
:108E00002A74FFF0A312A5767405028C54A3A3A3C1
:108E1000A3A3A3A3A3A37403028C5485088285098A
:108E200083A3E064E96003028C33EEFAEFFB1243A4
:108E300014028C33E0F8A3E0C8241FF582E4382242
:108E40008E828F8312B8E7E8FAE9FB750A01780A87
:108E5000228E828F8312B2D7128B1722E50812EB73
:108E60006D3509F58312B2B5A3A3A3A3A312D75AF4
:108E700012AB0A2212B8C53BF583E012CFDC12B068
:108E8000EB1241DC2274F2122454EAFEEBFF750A65
:108E9000007508008A82F583A3A3A3A3A3E060382A
:108EA000750A0812D76279FF123EA6EA4B60107568
:108EB0000A2C8E828F83A3A3A3A3A3E0D2E0F08E1B
:108EC000828F83A3A3A3A3A3E054036401600302DE
:108ED0008F80430A11028F80EA241812B7B26047CC
:108EE000EA241A12B7B26003F4701E8A828B8312CE
:108EF000DFEC7003A3E0697006750A22028F809090
:108F00001C83E0640470798019EA241B128F9F246B
:108F10001A12B7B2FAEE241912B7B2F9123D68E983
:108F2000705E75080180598A828B83128B207003D2
:108F3000750A0112DFE87003A3E0697006E50AD242
:108F4000E1F50AE50A60158E828F83A3A3E070061F
:108F5000E50AD2E58004E50AD2E6F50A128B05643B
:108F6000017006E50AD2E0F50A8E828F83A3A3E0A2
:108F7000600EEE128AF464016006E50AC2E0F50AAA
:108F8000901AD4E0600464017012E50AA2E1400C7A
:108F9000E508A2E04006E50AD2E7F50A028AE7F50D
:108FA00082E43FF58312AEA6EA2274F012245474D0
:108FB000C1122A9CEAFEEBFF85188285198374FE94
:108FC000F0A304F0750E00750F00750D00901AD413
:108FD000E0640270198A828B83A3A3A3A3E0600ECE
:108FE000901EA012C9456006901EA0129AA7740791
:108FF000122A668E828F83A3A3A3A3E0F98E828FA9
:109000008312D76D1241DCE970030293D5780174A5
:1090100009122C8AE0C3940240027800740B122CCF
:109020008AE0C39402400278007410122C8AE06433
:10903000F87003A3E0F470030293D57410122C8A25
:10904000E064F97003A3E0F470030293D574101286
:109050002C8AE064FA7003A3E0F470030293D574E1
:1090600010122C8AE064FB7003A3E0F470030293F7
:10907000D5740A122C8AE0F9901C71E06960030231
:1090800093D5E8A2E040030293D5901AD4E064029D
:10909000700B742B122C8AE060030293D512CDB9A9
:1090A0007426122C8A12B7CF241C12CDBC74141251
:1090B0002C8A12CF19740D122C8AE0601D741E12B6
:1090C0002C8AE0FD7408122C8AE0FC8E828F8312B9
:1090D000D76D7901123FF0E9703B7407122A5E12D6
:1090E00040C2E9F50C740D122C8AE0702D901C6BB7
:1090F000E0602774225964226020744259644270EF
:10910000147424122C8A129A94600F7424122C8ADC
:10911000129AA160057ACF0293D7E9A2E6506C902B
:109120001AD4E060046401701B901C6EE0A2E15050
:10913000137424122C8A12B4671228A801010B623E
:109140009100D5937424122C8A12B46724FD601206
:1091500014600F24FD600B24FD600724FE600302F1
:1091600093D57424122C8A129AF6700F7424122C40
:109170008AA312C695A3E0640D60107407122A5EDC
:109180001242D2E964017003029A64EE242DF58242
:10919000E43FF58312A1F07003A3E069701F750826
:1091A0000078081229C478081229C4EE242F12B7B7
:1091B000B2F9129ADE12421274021229EE740D12E2
:1091C0002C8AE07003029272129ADE1243987402A3
:1091D000122C8A12BA7D122C8A12C945700302938E
:1091E000017408122C8AE0F88E828F83A3A3E028F2
:1091F000F8A3E03400F9E8240D1286FEF874021298
:109200002C8AE0F9129A6FE06860157402122C8AB9
:10921000129A6FE8F07402122C8A129A9A129B0B1F
:1092200079047408122C8A12A54FE02AF8A3E034BE
:10923000008882F583A3AA82AB831232D08A088B7E
:10924000098C0A8D0B7402122C8A129A9A780812D1
:10925000295C4003029A6490817D7808122B657422
:1092600002122C8A12DA2A12F2AEA3E50AF0A3E562
:109270000BF0901AD4E0640260030293AE901C835A
:10928000E064046008E064096003029A64E50CA2EB
:10929000E5400302933CEE242F12B7B2C0E0740401
:1092A000122C8AD0E0129B1CC0E07405122C8AD0CC
:1092B000E0129B14C0E07406122C8AD0E0F07418FF
:1092C000122C8AE0640170207412122C8A129AD334
:1092D0007003A3E06970117410122C8A128B29702C
:1092E000077418122C8AE4F0129B0112281F7408CC
:1092F000122A66740B122A5E129A691229EE029AD9
:1093000064901CC8E0640160030292727424122C01
:109310008A129A947009E50CA2E6500302927274C4
:1093200014122C8AE0F47003A3E0F4600CEEFCEF5E
:10933000FD7407122A5E1240CE029A64A2E6400330
:10934000029A647424122C8A12D0077016741E12AA
:109350002C8AE0640270547407122A5E790012426B
:109360006680487424122C8A129AA17014741E12FA
:109370002C8AE0640470347407122A5E12425A8008
:109380002A7424122C8A129AF6700C79007407122F
:109390002A5E1242DE80147424122C8A12B469648C
:1093A0000C70087407122A5E12430E029A64E06081
:1093B0000764016003029A64901C6EE0A2E140031E
:1093C000029A64742B122C8AE060227412122C8A86
:1093D000129AB6700A7AD37B001236AE029A648E65
:1093E000828F83A3A312DA2AA3E0C2E5F0741812D5
:1093F0002C8AE0601FEE12A9A4E8FAE9888212D054
:109400000D14F08A82898312D00FF87418122C8AF6
:10941000E8F07006E50CC2E7F50CE50CA2E350613C
:10942000750F10A2E25018740C122C8AE054E3F06D
:10943000740C122C8AE0131313541FF8E0802CA232
:10944000E4502A740C122C8AE01313543F5407F88A
:109450006009740768600B18E87007C3E50CC2E781
:10946000F50CE8333354FCF8E054E348F0740C1284
:109470002C8AE0C0E08E828F83A3A312AEB0D0E02E
:10948000F0901C83E064046008E0640960030295C6
:10949000557410122C8A12DFF57003A3E06960196D
:1094A0007410122C8A128B29600F740C122C8AE013
:1094B000540364016003029A647409122C8AE070F8
:1094C0003FEE242F12B7B2C0E07404122C8AD0E011
:1094D000129B1CC0E07405122C8AD0E0129B14C0B1
:1094E000E07406122C8AD0E0129AFC12281F74082D
:1094F000122A66740B122A5E129A691229EE8052A1
:109500007424122C8A12D0077016741E122C8AE052
:109510006402703E7407122A5E790012426680323D
:109520007424122C8A129AA17014741E122C8AE0D0
:109530006404701E7407122A5E12425A8014742446
:10954000122C8A129AF6700A79007407122A5E1297
:1095500042DE029A647461550C7003029656E50C63
:10956000A2E0506912AE997407122A5E123D98E982
:10957000705812420CE9F50D7418122C8AE0700F25
:109580007412122C8A129AD37003A3E069603EA968
:109590000D12AE997407122A5E123D9EE96020E515
:1095A0000CA2E3500C85188285198374FFF0A38008
:1095B000087410122C8A12F3BEF0750E04800EE5AA
:1095C0000CC2E5F50C750D008003530C9FE50CA251
:1095D000E5503DEE242F12B7B2C0E07404122C8A7D
:1095E000D0E0129B1CC0E07405122C8AD0E0129BC4
:1095F00014C0E07406122C8AD0E0129AFC12281FC4
:109600007408122A66740B122A5E129A691229EEE5
:10961000E50CA2E640030298FCA818A9198808895D
:109620000978081229C0A90D129A8A122A5E1240DE
:10963000B674021229EEE9F50D70030298FC742449
:10964000122C8A12B467640160030298FC741045FE
:109650000EF50E0298FC7409122C8AE06401705910
:109660007424122C8A12B4676405701EA818A919F4
:109670008808890978081229C0129A88122A5E126D
:1096800040B674021229EE029A647424122C8A12D3
:109690009AF670257410122C8A129AB6601BA818BC
:1096A000A9198808890978081229C0129A88122AEB
:1096B0005E1240B674021229EE7418122C8AE07001
:1096C000257409122C8AE06401700C7424122C8A0F
:1096D000E0F8129AF6600CEEFCEFFD7407122A5EB9
:1096E0001240CE029A6412414CE96003029A6474FB
:1096F0001F122C8AE0700302978A7422122C8A129D
:10970000AEA27421122C8AE0FA7420122C8AE0F99D
:10971000123D68E960677421122C8AE0701774109A
:10972000122C8A12F3BE12BA75123B46EA4B600342
:109730000298F680427422122C8A12D76F7421127A
:109740002C8AE0F9123D6212D3727808740F122C41
:109750008AE060027810740E122C8AE060047408AB
:1097600028F8740C122C8AE0600108088E828F831E
:10977000A3A312C0F814F0750E400298F675080005
:1097800078081229C4790B0298B37410122C8A122B
:10979000CF0012CF19740B122C8AE060030298CE0E
:1097A000E50CA2E350030298CE7409122C8AE064FF
:1097B00001606D7900851882851983129BB88B0929
:1097C000A909EA49601C8A828B83A3A3A3A3A3E00F
:1097D0006401604C8A828B83A3A3A3A3A3E06402E9
:1097E000603EEE242D12AE9C851882851983129A54
:1097F000818A828B83E58245836010129ACA600B4E
:10980000C3940895E0C365D03340157412122C8AB6
:10981000129AB670030298A9740B122C8A7404F081
:109820007400F50878081229C47420122C8AAC82BE
:10983000AD837411122C8A12D76F740C122C8AE02B
:10984000F9123DCE74011229EEE9600F750E208EDB
:10985000828F83A3A312B467543FF0741F122C8A23
:10986000E0601D7410122C8A12AEA27420122C8A91
:10987000AA82AB831241D612D3727440450EF50E04
:109880007409122C8AE06401601579007412122C9C
:109890008A12AEA27410122C8A12D76F123D6EE596
:1098A0000CA2E350377940803575080078081229FA
:1098B000C479027411122C8A12AEA27413122C8A6B
:1098C00012D76F1242D874011229EE029A64E50C85
:1098D000A2E3400302982074400298227900741297
:1098E000122C8A12AEA27410122C8A129A79600677
:1098F0007420450EF50E12420CE9F50D851882858F
:109900001983E064FE7003A3E0F47003750D00900A
:109910001AC4E0640160030299A1EE241312B7B2E5
:10992000F47003A3E0F460797410122C8AC3E094FD
:10993000F9A3E094FF506A12CDB97412122C8AE098
:10994000687003A3E06960597412122C8A12A8D0BF
:109950008B09A909EA4960498A828B83A3A3A3A33F
:10996000E06401600D8A828B83A3A3A3A3E0640259
:10997000702F7432122C8A740112B8DE743D122CCE
:109980008A12CF197432122A5E123AF2E960127406
:1099900035122C8AAA82AB83123B58E96003123637
:1099A00060E50CA2E74003029A64E50D7003029A99
:1099B000648E828F83A3A3A3A312BD617402122CB1
:1099C0008A12BA7D122C8A12C9457003029A648EDB
:1099D000828F83A312DA3B1229BC8E828F83A3A3CA
:1099E000A3A3E0FC7D007405122C8A12D76F12A984
:1099F000B01229EE7409122C8AE0C0E0742D122CEA
:109A00008AD0E0F07430122C8AE4F0A3F0742D12A6
:109A10002A568808890978081229C075080078082C
:109A20001229C4780E1229C0E50DF508780812290C
:109A3000C412AD9D1228238E828F83A3A3A3A3E01B
:109A4000F97408122C8A12AEA2740A122C8A12D748
:109A50006F1241CA74081229EEE960087402122CD0
:109A60008A12ADD1743F02D8BE123C42740422A3C4
:109A7000E0F5838982A3A3A32212B0EB123CFCE998
:109A80002212B0EB124398227900EE12ADA212AE70
:109A9000A674092212B2D764062212CFF9A3A3A397
:109AA0002212B46D640722E0F508A3E0AA08FBE4E3
:109AB000FCFD1240B02212B0EB123B3AE9228A823E
:109AC0008B83A3A3A3A3A3A3A3A3A3A3E0F91243FC
:109AD000B6E92212B8E7EE2413129B246822EE2482
:109AE0002BF582E43F129AEF12ADA212B0EB22F5F1
:109AF0008312AEAAEE2212B46D640322F0129B010F
:109B000022EE2425F582E43FF58322E4F0A3F0A3BE
:109B1000F0A3F022F0EE2431129B2422F0EE243048
:109B2000129B2422F582E43FF583E02274F4122490
:109B300054EAFEEBFF8C088D09901EBBE060138A8F
:109B4000828B8312DFEC7003A3E0697005123CEA9C
:109B5000806379008A828B83A3A3A3A3A3A3A3A377
:109B6000A3129BB88A828B83E5824583602CA3A3D2
:109B7000A3A3A3A3E054186021E508241C12CB2B57
:109B800012282312CB27122823EE241812A56112C3
:109B9000B7A712D7821229EE801B79008E828F839D
:109BA000A3A3A3A3A3A3A3A3A312B7BE12B7A812F0
:109BB000D76F123D1402A8DC12B0EB123DBC227428
:109BC000F012245474E5122A9C8A0E8B0FEA2402A8
:109BD000F50AE4350FF50B0A0AFB123B4C8A088B99
:109BE00009AE08AF09750901850E82850F83A3E0D0
:109BF000F50C750801AC0AAD0B7410122C8AAA8200
:109C0000AB831234807418122C8A74FEF0A304F013
:109C1000741A122C8A7402F0740D122C8AE4F090DB
:109C20001BEBE0700EEE4F700AE50C70067509C371
:109C3000029E01901C83E0640860067509C2029DC3
:109C4000FD850E82850F83A3A3A3A3A3A3A3A3A330
:109C5000A3E0A2E1500EA2E35005750804800C7544
:109C600008038007A2E35003750802EE4F70030259
:109C70009CFC8E828F83A3A3A3A3E06404600D8E5B
:109C8000828F83A3A3A3A3E06403700C740465080C
:109C9000602C7403650860268E828F83A3A3A3A320
:109CA000E06402600D8E828F83A3A3A3A3E064010E
:109CB000703374026508600674016508701A8E823C
:109CC0008F83129F0770358E828F8312CDC27418D6
:109CD000122C8A12CF1980248E828F83A3A3A3A370
:109CE000E06402600D8E828F83A3A3A3A3E06401CE
:109CF000700312D16B129EFA7E007F007418122C32
:109D00008AE064FE7003A3E0F47044123AFEE97046
:109D10003EE50C6019901EE4129F077011901EE43E
:109D200012CDC27418122C8AE8F0A3E98020850EA7
:109D300082850F83A3A3A3A3A3A3A3A3A3A3E054F8
:109D400002F9123D267418122C8AEAF0A3EBF07483
:109D500018122C8AE064FE7003A3E0F47006750903
:109D6000C7029DFDE50CF50A780A1229C4850E820A
:109D7000850F83A3A3A3A3A3A3A3A3A3A3E0F9E5B0
:109D80000E2402FCE4350FFD7419122C8A12D76FD1
:109D9000123C6674011229EEE97062901D1112C91D
:109DA0004560117418122C8A12D76F901D1212C6BA
:109DB00095122632A908E50E2402FCE4350FFD7445
:109DC00018122C8A12A04D8A0A8B0BAE0AAF0BEA2E
:109DD0004F601F7402650C700D8A828B83A3A3A34E
:109DE000A3A3E0D2E3F0741A122C8AE4F075090000
:109DF000800B7418122C8A74FEF0A304F0E50C702A
:109E00000A7405122A5E1239B48060901AD4E07088
:109E10004E7401650C7048901AB1E07042E50E2452
:109E200002F8E4350F129F0F122C8AE4F0901AB258
:109E3000E0C0E07403122C8AD0E0F07404122C8A83
:109E4000E4F0741A122C8AE4F07C01A9087405125B
:109E50002A5E124254AA18AB19123C1E029EF5AC9F
:109E60000CA9087405122A5E124254E9F8EE4F60FC
:109E700053E50C60208E828F83A3A3A3A3A3E0D21B
:109E8000E6F07402650C700D8E828F83A3A3A3A3EA
:109E9000A3E0D2E5F0850E82850F83A3A3A3A3A33D
:109EA000A3A3A3A3A3E0A2E6500D8E828F83A3A356
:109EB000A3A3A3E0D2E7F08E828F83A3A3A3A3A3DF
:109EC000A3E004F0E5097005E8602A600AFC7D0063
:109ED0007A017B1012328EEE4F6003129EFA7418D4
:109EE000122C8AE064FE7003A3E0F4600874181278
:109EF0002C8A12D16F741B02D8BEE50E2402FAE43C
:109F0000350FFB123B582212B0EB1242B4E922F992
:109F100085188285198312CF1D74022274F71224CA
:109F20005474F7122A9CEAFEEBFF901C83E0640352
:109F3000600DE064016008E06409600302A0408AEB
:109F4000828B83A3E0600302A0067C007D007A027E
:109F50007B0012328E12A0458A8212CDC0901C74F2
:109F600012CF1979531239A8901C83E06409600359
:109F700012A75D851882851983740112C8DE901CB2
:109F8000837404F07401122A5E794A1239A27401B2
:109F9000122A667A797B1C12348090185BE0640B7D
:109FA00070057406F08005790012A054901AD4E070
:109FB00060046401701C901C77E064FE7003A3E0F1
:109FC000F4601F79007401122A66901C7712A04D6C
:109FD0008010E06402700B901C7412AEA27A03121F
:109FE000A764901C6EE0A2E35004D2F08002C2F09D
:109FF00012C8CB901AD4E064027042901E9C122CBE
:10A000005B1240B08037FC7D007A037B1012328EE9
:10A01000901AD4E06402701690185BE0640B700331
:10A02000740AF0901EC1E4F0FA7B4012C68A8E8258
:10A030008F83A3E0F912A054901C83E4F012411C1A
:10A04000740902B1FDEE2402FAE43FFB2212B0EBE8
:10A05000123B282212B0E8123C6022C082C08390DA
:10A060001BEC12C9457017901C83E024FB6005149B
:10A070006007800A901BF3802F901BF5802AE84927
:10A0800060071286FB6401700C8A828B83A3E0F95F
:10A09000123C48801E901BECE01286FC64027005A6
:10A0A00012432C800E901D0112C945600612C69500
:10A0B00012263202C23D74F012245474E8122A9C13
:10A0C000EAFCEBFD8A82F583A3A3A3A37808122CF4
:10A0D000337808122BD5901C847808122B9E7509B2
:10A0E0007F75087F7900901C84780C122C33E978F6
:10A0F0000C122A3DE50CA2E050247800901CCF8081
:10A100000E8E828F83A3A3E06970010812B79812A4
:10A11000B17870EDE8C3950950048809890809E908
:10A12000C3941B40C18A828B83A3A3A3A3122C6771
:10A13000E8494A4B6070EC2404FEE43DFF8E82F552
:10A1400083122C67901C84122C737C187D0079007C
:10A15000AA18AB1912E98B122C678518828519830E
:10A16000122C737404122C8A7401F0901C8AE0C0C3
:10A17000E07405122C8AD0E0F07407122C8A12A227
:10A18000E28068901C8112D76F123C968A0A8B0B72
:10A19000A80AA90B901C81EAF0A3EB12A1F9687040
:10A1A00003A3E0696026901CCF12B178601E8E82F6
:10A1B0008F8312A1F07003A3E069700B8E828F83EE
:10A1C000A3A3E0650860BC12B79880DDE508901C89
:10A1D00076F01240F8E96013901C83E4F0901BF7CE
:10A1E00012C945600612C693122632741802D8BEF0
:10A1F00012B8E7901C81E0682212DB2EE02274F492
:10A2000012245474E8122A9C8A828B83A3A3A3A3EA
:10A21000A3A3A3A3A312CDC2E8FAE9FB7900901C83
:10A22000847808122C33E97808122A3DE508A2E068
:10A230005032E9FCEA2CF582E412CFEEF8901EE3EE
:10A24000E0C398501F750801750900750A00750B69
:10A2500000E9780812293D7808122BD5901C8478E3
:10A2600008122B9E09E9C3941B40B3901C84122C46
:10A2700067E8494A4B604A7C187D007900AA18AB10
:10A28000191232C4901C84122C6785188285198398
:10A29000122C737404122C8A7401F07407122C8A25
:10A2A0007401F0901C8AE0C0E07405122C8AD0E0A2
:10A2B000F07407122C8A12A2E2901C837406F080BC
:10A2C0001C901C83E4F0FCFD7A047B1012328E900B
:10A2D0001BF712C945600612C69312263274180283
:10A2E000A8D9E412CA521239BA2274F5122454744D
:10A2F000D1122A9C8A088B098A828B83A3A3A3A3E9
:10A30000A3A3A3A3E0C3940F500302A54A8A828BA0
:10A3100083A3A3A312E0C7741C122A668A828B83CC
:10A32000A3A3A3A3A3A3A312B2B012D76A12412E70
:10A33000741C122C8AE0702E850882850983A3A3E1
:10A34000A3A3A3A3A3A3E0C3940B401A8E828F837D
:10A35000A3A3A3A3A3A3A3A3E064027009EE240B09
:10A3600012B7B2F4600302A54A741E122C8AE06090
:10A37000076402600302A54A901C83E06402700334
:10A3800002A440E06406700302A440901BEC12C9D2
:10A3900045600A1286FB6401700302A465901C8369
:10A3A000E064086008E06404600302A54A741E12B9
:10A3B0002C8A12A54FA3A3A3A3A3A3A312E0C79023
:10A3C0001BECE04960071286FB64026069901C8107
:10A3D000E06E7003A3E06F600302A54A74016A6037
:10A3E000117423122C8AAC82AD8312F05C600302DC
:10A3F000A54A7A007B0212A554600302A54A901C6C
:10A4000084122C67851882851983122C73901C8AFC
:10A41000E0C0E07404122C8AD0E0F07405122C8A9B
:10A420007401F07406122C8A740212CA4E123BCACE
:10A43000E9600302A547EEFAEFFB12432602A54AA4
:10A44000901BEC12C945701D75080078081229C4CC
:10A4500078081229C4EE241012A5618E828F83120F
:10A46000AB061229EE8E828F8312CDC27407122C96
:10A470008AE8F0A3E912A57612CDC27409122C8ADB
:10A4800012B7CF1286F5C0E0740B122C8AD0E0F020
:10A49000EE240B12E467740F7808122C15740C125A
:10A4A0002C8AE508F07420122C8AE0C0E0740D12AA
:10A4B0002C8AD0E0F07422122C8AE0C0E0740E12D4
:10A4C0002C8AD0E0F0741D122C8AE0C0E0741012C7
:10A4D0002C8AD0E0F0741E122C8AE0C0E0740F12B7
:10A4E0002C8AD0E0F0EE241012B7B2C0E074111242
:10A4F0002C8AD0E0F07421122C8AE0C0E074121291
:10A500002C8AD0E0F0742E122C8AE0C0E074131272
:10A510002C8AD0E0F07423122C8AA982AA8389089D
:10A520008A09750A0078081229BC7C087D00741716
:10A53000122C8AAA82AB8312A9B01229EE740712D8
:10A540002A5E123C5A8003123BD0742F02B4871249
:10A55000BD3AA322901CCEE0F912344AEA4B4C4D8E
:10A5600022129B24F98E828F83A3A3A3A3A3A3A368
:10A57000A3A312AEA62212A57A2212B47BA3A3A390
:10A5800022C082C08374C9122A9C124344901C8347
:10A59000E06408601F904EA4E493901C65F0904E18
:10A5A000A4E493901C63F0901C8C740112A6E7A3A2
:10A5B0000412A6E77C237D0079007414122A5E122F
:10A5C00032C4901C94E07009741E122C8A740180AD
:10A5D00006741E122C8AE412DC63740FF0901EE2E3
:10A5E00012CA4E79461239A87401122C8AE4F090EE
:10A5F0001EB0E0C0E07402122C8AD0E0F0901C7112
:10A60000E0C0E07403122C8AD0E0F07404122C8AAB
:10A61000E4F07405122C8AE4F07407122C8AE4F03A
:10A62000901C94E0C3940F500CE0C0E07406122C10
:10A630008AD0E080077406122C8A740FF07C957D16
:10A640001C7408122C8AAA82AB831234807C037D8E
:10A650000079FF7410122C8AAA82AB831232C49044
:10A660001CCDE0C0E07413122C8AD0E012CA9174A1
:10A6700001122A5E12CA23124242901C88E0C0E0F6
:10A68000741C122C8AD0E0F0901C89E0C0E0741D8C
:10A69000122C8AD0E0F0901C76E0C0E0741A122CE4
:10A6A0008AD0E012875E7418122C8A12CF19742097
:10A6B000122C8AE4F0901C8BE0C0E0741F122C8AEC
:10A6C000D0E0F07434122C8AE4F07429122C8AE45D
:10A6D000F07A747B1C795312C8BE7414122A5E126D
:10A6E00039C0743702B8B9F0A3E4F0A3F0A3F022A4
:10A6F000C082C0838A828B83A3E0901C836004E4C1
:10A70000F080577408F0901C94E07022901BF712B0
:10A71000C9456008790012C695122632901C811234
:10A72000AEA27A057B0012328E12A75D80107900EE
:10A73000123C54901C7412AEA27A0612A764901DAB
:10A740000712C9456014901AC6E06401700C90812C
:10A750009512281F12E1601229EE02C23D12B0E8E4
:10A76000124392227B0012328E901C7712AEA67A90
:10A77000047B0012328E220229A074F21224547437
:10A78000F8122A9C8A0A8B0B8C0C8D0D89089080FC
:10A79000E4AC18AD19740812291CC200AC0AAD0B48
:10A7A000AA18AB1912F0607002D200901CCF80136F
:10A7B000AC0AAD0BEE240BFAE43FFB12F060701B09
:10A7C00012B79812B178601EA20040E48E828F8387
:10A7D000E0650C7004A3E0650D70E58E828F83A3A5
:10A7E000A3E0650870DAEEFAEFFB740802A9D6C0A0
:10A7F00082C083901CCF02C23AC082C083901CCF1B
:10A80000E4F0A302AB2A74F7122454901CCF12EF89
:10A810004A800FEA2414F582E412E0C4123384EE75
:10A82000FAEFFBEA4B70EC901CCFE4F0A3F002B21D
:10A830000074F41224548A088B09EA12CB29E064CC
:10A8400003700DEA240BFAE43509FB123B4C800D32
:10A85000E06402707212A8C9350912A8CE8A0A8B68
:10A860000BAE0AAF0BEE4F605E850882850983A3AD
:10A87000E0700D8E828F83A3A3A3A3A3A3E48046DD
:10A8800064F1600C850882850983A3E064E1701E91
:10A890008E828F83A3A3A3A3A3A3E06401700F12EE
:10A8A000D16BE508240BFAE43509FB123B588E8284
:10A8B0008F83A3A3A3A3A3A3E0600C8E828F83A3A3
:10A8C000A3A3A3A3A314F08013EA12E72E22F58317
:10A8D00012B0EB123B462274091229EE7F040226C5
:10A8E000D174F21224548A0C8B0DEDFF890B8A82ED
:10A8F0008B83E08C828D83F0A3A882A9838A828BCC
:10A900008312A9B612AF6AE0C454F0FA8882898330
:10A91000E04AF0EC12A9A4850C828B83A3A312A9B0
:10A92000B612A9C9E0333354FC12A9BDE033333366
:10A9300054F812A9BDA3E0A2E0E4331313FA88820D
:10A940008983E04AF0EC2403FE50010FE50C240754
:10A95000F508E4350DF509750A0078081229BC7C64
:10A96000087D00EEFAEF12A9AF1229EEEE2408FEE0
:10A9700050010FE50C240FF508E4350DF5097808B2
:10A980001229BC7C037D00EEFAEF12A9AF1229EE6A
:10A99000E50BC3940F400BE50C12B8D3350D12C371
:10A9A0009CF080352402F8E43FF922FAE4350DFBEF
:10A9B0001232B8740322A3E08882898322FA888243
:10A9C0008983E04A12A9C9A322F0850C828B83A354
:10A9D000A3A3A32274031229EE7F060226D174F2E8
:10A9E000122454EBFF8C0C8D0D8A82F583E08C824F
:10A9F0008D8312CC17A3A882A983E012C1DC12F3C5
:10AA0000C9C412C1D6F0EA12F3B312C1E312F3C7FC
:10AA1000A2E2E4338C828D8312F3C6131313541F06
:10AA200012C1DCA312F3C6A2E7E4338C828D83A3A8
:10AA3000A3A3A3A3A3F0EA2403FE50010FF5088FFC
:10AA400009750A0078081229BC7C087D00E50C24F1
:10AA50000712A9AB1229EEEE2408FE50010FF508EB
:10AA60008F0978081229BC7C037D00E50C240F12A5
:10AA7000A9AB1229EE8E828F83A3A3A3E0C0E012BC
:10AA8000F4D4D0E0F002A9D974F6122454EAFEEB13
:10AA9000FF8A82F583A3858208858309E0F9123C49
:10AAA0007E850882850983E064EB601E8E828F8339
:10AAB000A3E064E160148E828F83A3E064F1600AF6
:10AAC0008E828F83A3E0641A70078E828F83A3E443
:10AAD000F0901E9C122C5B1240B075080178081291
:10AAE00029C48E828F83A3E0F50878081229C479DF
:10AAF00000901C8112AEA2901C7712AB061229EEB8
:10AB000012414602C76D12AB0A22E0FAA3E0FB1223
:10AB10004212740222C082C083E9901CE17003E4F7
:10AB2000800274018004EAF0A3EBF002C23DE0F978
:10AB300002C23DC082C0837C9E7D408A828B83128C
:10AB4000AB4502C23D12B0EB1239CC2274F612248E
:10AB500054901CE1E0701B7C0079017A007B0012AC
:10AB60004176EA4B600C8A828B8312C945600312DE
:10AB700040A402C76DC082C08312B014401079FF98
:10AB8000124170E9F8904EA1E493C3985004790102
:10AB90008002790002C23D74F21224548A0A8B0B9F
:10ABA0008909C2008A828B83A3A3A3A3A3A3A3A31F
:10ABB000E0F912417C8A0C8B0DAE0CAF0D750801CB
:10ABC000EA4F600302AC86850A82850B83A3A3A3A8
:10ABD000A3A3A312AEA2850A82850B83A3A3A3A37A
:10ABE000A3A3A312ADC11241648A0C8B0DAE0CAFAE
:10ABF0000DEA4F700302AD958A828B83A3A3A3A3B2
:10AC0000E4F0A3F0E50A240CFAE4350BFB8A82F5A4
:10AC100083E0C0E012D367D0E0F0E50A12B8BF3598
:10AC20000B12CDC0EE240D12CF131242A212B7A206
:10AC300012D378E50A12B8CC350B12CDC0EE241130
:10AC400012CF13E50A241312E363C0E012AD9DD0C6
:10AC5000E0F0D200EE2406F8E43FF912ADB412F3AE
:10AC6000CA5404600302ACFB901EAEE0F50A750BFB
:10AC7000007407780A122BB18E828F83A3A3A3A33B
:10AC8000A3A312ADABF08E828F83A3A3A3A3A3A330
:10AC9000E0F50AA3E0F50B7407780A122C15E50A13
:10ACA0005407FCE50960648E828F83A3A3A3A3A34A
:10ACB000A3A3A3A3740212A1F912B0AAE0540460E2
:10ACC0000B901C6F12BE44A3A312CF19EC700302A9
:10ACD000AD6CEE2406F8E43FF9E8FAE912ADB4F001
:10ACE000EC24FFF50AE434FFF50B7407780A122B05
:10ACF000B18A82898312ADABF080718E828F83A37B
:10AD0000A3A3A3A3A3E0448002AC85EC700575085F
:10AD10000080598E828F83A3A3A3A3A3A3E0542012
:10AD2000600C1232D6EA547F7900245F80198E823B
:10AD30008F83A3A3A3A3A3A3E05410601A1232D657
:10AD4000EA540F7900240A5001098E828F83A3A34D
:10AD5000A3A3F0A3E9800D8E828F83A3A3A3A37482
:10AD600001F0A3E412A576740412B023A2005028C7
:10AD70008E828F83A3A3A3A312D569F9EEFAEFFB0A
:10AD800012416AE9601212C93E600312ADCEEEFABA
:10AD9000EFFB123384750800A90802A9D9EE12ADA1
:10ADA000A2222413F582E43FF58322E0450AF0A3B2
:10ADB000E0450B228882F583E0547FF0A3E054FC49
:10ADC00022A3E0F9850A82850B8312B0EB2212AD33
:10ADD000D512B32822EE12E35D3FF5832274F412FC
:10ADE000245474F7122A9C7E0012417CEA4B7003B3
:10ADF00002AE948A828B83A3A3A3A3A3A3A3A3A33A
:10AE0000E06406600302AE948A828B83A3A3A3A3AB
:10AE1000A3A3A3E0FF8A828B8312AEB0E0C0E074EC
:10AE200008122C8AD0E012B2D012CF0512CF19121C
:10AE3000419AEF5408605B85188285198312AEA28F
:10AE40007A007B0012415EEA4B704712F4DF7C000F
:10AE50007D007A007B0080268E828F8312B467F497
:10AE60007003A3E0F4602B901C8112AEA28E828F3F
:10AE70008312B2C0601C7C007D00EEFAEFFB124131
:10AE80005E8A0A8B0BAE0AAF0BEE4F70CB790012C5
:10AE900039E47E01EEF902A8D7EE2413F582E43FEF
:10AEA000F58312AEA62212AEAA22E0FCA3E0FD2298
:10AEB00012AEB42212DC5D2408F582E438F5832258
:10AEC000C082C0838A828B83E58245837009901C8F
:10AED000E680068A828B83A3A312B0E260218A8275
:10AEE0008B83A3A3A3A3A3A3A3E0540860E5EC4D25
:10AEF000601112B4636C7003A3E06D70D680047AA5
:10AF0000007B0002C23D74F21224548A088B098926
:10AF10000AECFEEDFF7A147B0012337EEA4B603EB2
:10AF20008A828B83A3A3A3A3A3A3A3A3A3E412AFA7
:10AF300079E50A12B2CA12D4C08A828B83A3A3A372
:10AF4000A3E4F0A312B2DC12AF708A828B8312F2F8
:10AF5000B2EA240F12AF61A312AF6AF0A3F002A904
:10AF6000D9F582E43BF583E4F02212CC1BA3A322A3
:10AF7000A3F012E72D12AF642212AF7D2212E0DAA5
:10AF8000A3A3A3A32274F5122454EAFEEBFF890ABB
:10AF90008C088D09EA4F607774016970127901128B
:10AFA0004170E9F8904EA3E493C3985015800A7459
:10AFB0000469700912B0145009791180547402693F
:10AFC000704D8E828F83A3A3A3A3A3A3A3A3A3E502
:10AFD0000A12DB2E12F2AE8E828F83A3A3E4F0A3BB
:10AFE000F0901CE612C9456018800312CDC2888219
:10AFF0008983A3A312B0E288828983A3A370EC8023
:10B0000003901CE6EEF0A3EF12B0237900800279E2
:10B01000C102B48A7904124170E9F8904EA2E49317
:10B02000C39822F07A207B00901CCEE0F912331EE8
:10B0300022C082C083E9F87900901CE6801D8A82D4
:10B040008B83A3A3A3A3A3A3A3A3A3E06860057416
:10B05000FF687001098A828B83A3A312B0E270DEBD
:10B0600002C23D74F7122454EA4B7005901CE6802E
:10B07000068A828B83A3A312B0E260228A828B832A
:10B08000A3A3A3A3A3A3A3A3A3E06970E4EC60120A
:10B090008A828B8312B0A5E0540470D580047A00B4
:10B0A0007B0002B20012B0A922E0F8A3E0C812B8F7
:10B0B000BF38F58322C082C083901CE680068A8256
:10B0C0008B83A3A312B0E260128A828B83A3A3A313
:10B0D000A3A3A3A3A3E06970E580047A007B000228
:10B0E000C23D12B0EBEA4B22901C81E0FAA3E0FBD8
:10B0F0002274F7122454EAFCEBFD901CE680068AC9
:10B10000828B83A3A312B0E2601F12B4636C70033E
:10B11000A3E06D70EA8A828B83128E3612F260A3EE
:10B12000E0A2E0E43370D880047A007B0002B20031
:10B1300074F21224548A0A8B0B8C0C8D0D75080046
:10B14000750900EA4B602A901CE680068E828F8388
:10B15000A3A312B178601AAC0CAD0DEEFAEFFB852B
:10B160000A82850B83122632E9640170DF8E088F14
:10B1700009AA08AB0902A9D9E0FEA3E0FFEE4F221D
:10B1800079000229A074F7122454901CE612CDC253
:10B190007C007D00800DE8FCE9FD88828983A3A303
:10B1A00012CDC2E8496030EA687002EB6970E7903E
:10B1B0001CE612D76FE86A7002E96B88828983A364
:10B1C000A3700812CDC2901CE6800912CDC28C82F9
:10B1D0008D83A3A312CF19802774F7122454EAFE9B
:10B1E000EBFFEA4F601512419412B31612C93E608C
:10B1F0000312ADCEEEFAEFFB12338480031229EE78
:10B200007F010226D174F61224548A828B8312DACB
:10B210002A12E46D901CE612CDC27D007C008034C1
:10B2200088828983A3A3A3A3A3A3A3A3A3E0640504
:10B2300070190C88828983E0FEA3E0F5838E82E09A
:10B2400065087004A3E0650970010D88828983A3F5
:10B25000A312CDC2E84970C8904E9FE493F8EDC3A5
:10B26000985008904E9E12E907400F8A828B83A364
:10B27000A3A3A37401F0A3E4800C901C6FE0F81268
:10B28000B2B0E8F0A3E912B2DC740512B2CAA3E0CE
:10B29000440812B2D0F47003A3E0F4600B901C8158
:10B2A00012D75612B2C0700579011239E402C76D87
:10B2B000A312B2B522E0F98A828B83A3A3A3A322AF
:10B2C00012B0EB1239D8E9641A2212E0D6A3A322F5
:10B2D00012CC1B12B2D72212DA2EE02212AF7DA3BB
:10B2E0002274F6122454901CE612E0C7801A8E8253
:10B2F0008F83A3A312E46D12B31612ADCEEEFAEF54
:10B30000FB123384AE08AF09EE4F70E2901CE6E406
:10B31000F0A3F002C76D8E828F8312BA6912B32830
:10B320008E828F8312B32822E0FAA3E0FB123384CB
:10B3300022C082C083EAFCEBFDEA4D6017EA24FBE1
:10B34000F582EB34FF12C943700712B386E0F46054
:10B35000071232E27905802B901CCEE0C0E012B3D8
:10B3600086D0E0F0904EA6E493F97AE87B1C123385
:10B3700018E96401700B7A007B2012B39579008084
:10B3800002790402C23DEA24FFF582EB34FFF58323
:10B39000227A207B00901CCEE0F912331E2274F436
:10B3A000122454A2AFE433F508C2AF901CE812B1E6
:10B3B000786038EE24FBF582EF34FF12C9437A003F
:10B3C0007B20901CCE600512B3988005E0F9123303
:10B3D00024E4F50AF50B780A1229C0EEFCEFFD7A99
:10B3E000E87B1C12331274021229EEE508A2E092E7
:10B3F000AFEEFAEFFB02A8DC74F51224548A088B36
:10B4000009750A00901CE680518E828F8312B46702
:10B4100065087004A3E06509703A8E828F83A3A348
:10B42000A3A3E4F0A312B472540460118E828F833C
:10B43000A3A3A3A3A3A3A3A3E0F9123DA48E828F89
:10B4400083A3A3A3A3A3A3A3A3A37406F07AF012D8
:10B450008706050A8E828F83A3A312B17870AAA9EA
:10B460000A80278A828B83E0F812B46D2212DA34C4
:10B47000E02212B477E02212B47B22F08E828F8316
:10B48000A3A3A3A3A3A3221229EE7F030226D174B0
:10B49000F012245474D4122A9CEAFEEBFF750A00C1
:10B4A000750B007508FE7509FF12414CE960030237
:10B4B000B78BEE241512B7B2604C901ECCE0C433AB
:10B4C00054E0F8E0333354FC48C0E0EE12CB213FA7
:10B4D000F583D0E012E52EFAA3E0FB79FF123EA639
:10B4E000EA4B6015750A017508FF12B7AF4404F006
:10B4F000EE241512B7B2D2E0F0901AD4E0600464E2
:10B50000017003750B408E828F83128B106006EEE4
:10B51000241212CBFFEE241312B7B2700D904E8D91
:10B52000E493C0E012AD9DD0E0F08E828F83E0A264
:10B53000E7500454038019EE241412B7B27012902D
:10B540001C60E0C0E012B798D0E0F0901C60E0040E
:10B55000F012F2577016901AB0E0600D901C6BE07C
:10B56000700A8E828F83E0700312CBFC901AD4E0B5
:10B57000600464017041901C6EE0A2E15039E50A5C
:10B58000A2E040188E828F83128B10602A8E828FE9
:10B5900083E06008EE240B128AF6601B12B7AF54EA
:10B5A00040700302B739EE241312F25A600302B757
:10B5B0003912B7AF54FBF08E828F83E064017010B4
:10B5C00012B7A712B4676402700612B7AF4440F016
:10B5D00012B7AF5440600302B69AE50AA2E05003E6
:10B5E00002B69A901AD4E060076401600302B69A2A
:10B5F000901C6EE0A2E1400302B69AE50BF50A78D2
:10B600000A1229C4EE2406FCE43FFD8E828F8312C9
:10B61000D76DEE241212B7B2F9123DCE7401122981
:10B62000EEE9600CEE241212CBFF12B7AF4420F00B
:10B630008E828F83A3A3A3A3A3A3E06037EE24028B
:10B6400012BD4C12B7BE2407FAE43FFB1241D68A62
:10B65000088B09850E82850F83E06A7003A3E06B77
:10B66000700C8E828F83A3A3A3A3A3A3E4F012B7CD
:10B67000AF4440F08E828F83E064016008A90B1212
:10B68000B7C2123D6EA90B8E828F8312B7C2123CD5
:10B69000FCE9600612B7AF4420F0AC18AD19EEFA21
:10B6A000EFFB1241D08A0A8B0B74FE65087004749C
:10B6B000FF650970098E828F83A3A312E46DEA4BA4
:10B6C000700302B78F8E828F83E0C0E07401122C6A
:10B6D0008AD0E0F07404122C8A12D4C0EE241E1218
:10B6E000CDBC7402122C8A12CF197401122A56880A
:10B6F0000C890D780C1229C0EE242012B7B612293D
:10B70000C412B7A2122823EE240E12B7B61229C40F
:10B71000901C741228237408122C8AE0F9AC08AD2E
:10B72000091241CA74081229EEE9FE74106E7061A4
:10B73000AA0AAB0B1233848058EE241312B7B2C09E
:10B74000E07417122C8AD0E012F2A6740F122C8A21
:10B7500012B7CF240412F24C12CDC07411122C8AED
:10B7600012B7CF241412B7B2C0E07418122C8AD0CA
:10B77000E012E765E0F98A828B8312AEA2740612AA
:10B780002A5E123D9EE9600302B5B7791180047EFE
:10B7900010EEF9742C02D8BEEE2414F582E43FF5C5
:10B7A0008322EE12ADD622EE12E72E3FF58322EE73
:10B7B000240F129B2422129B24F50C780C22129A3F
:10B7C000F122A3A3A3A312D57512B0EB22A3A31257
:10B7D000CF1DEE22C082C08374D7122A9C90804174
:10B7E0007403122A66742612291C8A828B83A3A3EF
:10B7F000A3A312CDC2740E122C8AE8F0A3E912B8EA
:10B80000DE740C122C8A12B8D912B8BF12CFEEC057
:10B81000E0741A122C8AD0E0F012D5EB12CDC0746D
:10B8200020122C8A12B8D912CB2112CFEEC0E074AC
:10B8300008122C8AD0E0F0EA241CF582E43B12CDF9
:10B84000C07412122C8A12B8D912B8CC12CFEEC022
:10B85000E07409122C8AD0E0F012B8D212CFEEC0F8
:10B86000E07407122C8AD0E0F012B8C53B12CDC0AC
:10B870007424122C8A12B8D92420F582E412CFEE57
:10B88000C0E07426122C8AD0E012DC6374FFF074DE
:10B8900001122C8A74FFF07402122C8A74FFF0904B
:10B8A000815112281F7404122A667407122A5E122C
:10B8B0009A691229EE790074291229EE02C23D24F8
:10B8C0000DF582E422EA241EF582E4222411F58299
:10B8D000E422EA2412F582E42212CF1DEA2212CCDD
:10B8E0001BA3A312B8E72212C131F92274F112246A
:10B8F0005474EA122A9C12D3728C0C8D0D890E7529
:10B9000009107A217B0012337E7402122C8A12BA3B
:10B910007D122C8A12C945700302BA597508007C41
:10B92000217D0079007402122C8AE0FA1232C4746C
:10B9300028122C8A12E0C7901AD4E06004640170C7
:10B9400034AA0CAB0D12EA1B60238A828B83A3A35B
:10B95000A3A3E06401600D8A828B83A3A3A3A3E069
:10B9600064037009EE5440700474044FFFEF5404F4
:10B970006003750801901C8112D76F7402122C8A23
:10B9800012DC552409F582E438F58312D378742546
:10B99000122C8A12CDC27413122C8A129F16122CEA
:10B9A0008A12F288122C8A12F282F0122C8A12DA8F
:10B9B0002AE50CF0A3E50DF07402122C8A12F2783D
:10B9C000E50EF07427122C8AE0F50A7402122C8A14
:10B9D00012F26AE50A12BA757402122C8A12BA655A
:10B9E00012D3787408122C8A12D4C0740A122C8ACA
:10B9F000E50AF0742B122C8A12DA2AC082C08374F2
:10BA00000E122C8AAC82AD83D083D08274051229A9
:10BA10001C742A122C8AE0C0E07415122C8AD0E023
:10BA2000F0A9087402122A5E124152E964017021E1
:10BA3000901AD4E0600464017012E508A2E0500C92
:10BA4000A90A12417CEA4B60031241A075090080EB
:10BA5000087402122C8A12ADD1A90974161229EEAB
:10BA60007F070226D112BA692212DC5D241FF582FB
:10BA7000E438F5832212D3C7FAA3E0FB22EAF0A34D
:10BA8000EBF074022274F012245474FF122A9CEA20
:10BA9000FEEBFF8C088D098A82F583A37408F0EA17
:10BAA000241612B7B260088A828B83A37410F0EA5E
:10BAB000241712B7B260098A828B83A3E02408F0AE
:10BAC000EA241512B7B260088A828B83A3E004F0DF
:10BAD0008A828B83A3A3A3A3A3A3E060198A828B8A
:10BAE00083A3A3A3A3A3A3A3E0C3332402F88A825E
:10BAF0008B83A3E028F0EA241112B7B2851882855F
:10BB000019836004740E8001E4F0901AD4E064029A
:10BB1000701E901AC6E0640170168A828B83E064FE
:10BB200001600D901EC1E0600712BD4274018004E7
:10BB300012BD42E412D3C3F98A828B83A3E0F8EAF0
:10BB40001286F528298C828D83F0EA241112B7B26F
:10BB50006013901C6CE0F9123FF6E9F885088285C5
:10BB60000983E029F0850882850983E0C394754044
:10BB700009750C00750D0002BD3112BD618A0C8B78
:10BB80000DEA4B700302BD318E828F83E0FA901C68
:10BB90007112BD8C74027808122BB1EA4508FAAB19
:10BBA00009EE241212BD8674067808122BB1A8087B
:10BBB000EA48FCEBFDEE241512B7B2600478018070
:10BBC000027800EE2416FAE43FFBE4C8F9ED49FDE3
:10BBD000EE241112B7B2F508880974097808122BFF
:10BBE000B1ED4509FD8A828B8312BD8C740B7808F8
:10BBF000122BB1ED4509FDEE241712BD86740C78A9
:10BC000008122BB1ED4509FD8E828F83A3A3A3A358
:10BC1000A3A312BD8C740A7808122BB1ED4509FD5F
:10BC2000EE242312BD86740D7808122BB1ED450960
:10BC3000F9EC850C82850D83F0E9A3F0EE24021265
:10BC4000BD6912BDA3F0EE240412BD69A3A312BD09
:10BC5000A3A3A3F0EE241312BD79F0EE241412BDB9
:10BC600079A3F0750B088A828B83E06015EE2418A7
:10BC700012AE9CE50C2408FAE4350DFB12348075F5
:10BC80000B10EE241712B7B26019EE241A12AE9CF4
:10BC9000A80BE50C28FAE4350DFB12348074082556
:10BCA0000BF50B8E828F83A3A3A3A3A3A3E0604510
:10BCB000EE240712BD4CE0C0E012BD58D0E012BD2A
:10BCC00093E0C0E00812BD5AD0E012BD9312DA3BF7
:10BCD0001229BC850E82850F83E012C0A2A80BE555
:10BCE0000C2812A9AB1229EE850E82850F83E0C3C2
:10BCF00033250BF50BEE241512B7B26008C0E01225
:10BD0000BD58D0E0F012B7A712DA3C1229BC128657
:10BD1000F4FC7D007403122C8A12BD3AE0F8E50CA5
:10BD200028F8E4350DF9E82AFAE43912A9AF122906
:10BD3000EEAA0CAB0D740102D8BEE0FA8E828F839E
:10BD4000A322EA2423F582E43FF58322F50EE43FA3
:10BD5000F50F850E82F58322A80BE50C2812C0C1D1
:10BD600022E0FA7B0012337E22F8E43FF98882F564
:10BD700083E0850C82850D8322F582E43FF58312F2
:10BD8000BDADA3A3A322F582E43FF583E0F50875DA
:10BD9000090022F0050B8E828F83A3A3A3A3A3A384
:10BDA000A3A322A3A312F3D3A312BDAD22E0850C5B
:10BDB00082850D83A3A3A32274F412245474FD126C
:10BDC0002A9CEAFEEBFF8C088D097401122A568822
:10BDD0000A890B780A1229C07402122A66AA08ABD3
:10BDE00009123D4A74021229EEE9704F85188285C6
:10BDF000198312C3A5F07401122C8A12BE44E8F014
:10BE0000A3E912D3C36027148E828F83A312D3C3F6
:10BE100012D9727401122C8AE028F8A3E039F9E8EB
:10BE200024FEF582E934FFF58312D76F80118E82EC
:10BE30008F83A3E4F0AA08AB0980047AFE7BFF7429
:10BE40000302A8D912CDCAA3A32274F012245474F9
:10BE5000FD122A9C85188285198312BA7D122C8ABC
:10BE6000E9F08C0C8D0D750B017C267D007900AA04
:10BE70000CAB0D1232C47402122C8AE0C394085029
:10BE80000302C03512BD71F0AC0CAD0D8518828572
:10BE9000198312B467FA851882851983A312C6958F
:10BEA00012C3C8E96003750B0085188285198312D7
:10BEB000DA2A12C0DCE0F9EA850C82850D83A3A39F
:10BEC000A3A3A3A3A3A3A312C124F5838882A3A33E
:10BED00012C0DCA3A3E0F912D74DEA12C124C812A4
:10BEE000D016C0E012D744D0E012DA49C82407F5D2
:10BEF00082E438F583E0C0E012F4D4D0E012C10E41
:10BF0000740812C11BA3E06020851882851983E0A4
:10BF10002408F8A3E03400F9E50C241312F4D8E85F
:10BF2000F0A3E912D8B72408F0850C82850D83A30D
:10BF3000A3A3A3A3A3A3A3E0602A850C82850D83FA
:10BF4000A385820E85830F12C0D6F8A3E03400F9D2
:10BF5000E50C12CB21350D12CF17850E82850F838C
:10BF6000E02408F012C0A9E4F012C0B9E4F0A31272
:10BF7000C10EA3A3A3A3E0601112C0E8850C8285C3
:10BF80000D83A3A3A3A3A312C136E50C12C0C9E07D
:10BF9000700302C02112C0E8FA12C0A9EA12C13629
:10BFA000F8851882851983E028FBA3E034008B8292
:10BFB000F583E0F8E50C241A12F4D8E812C136E84B
:10BFC000C39AE50C505612C0D0F8904E8EE493C33D
:10BFD0009850047E0C8006E50C12C0D0FE850C82C1
:10BFE000850D8312C0D5F508A3E03400F509750A64
:10BFF0000078081229BCEE12C0A27A197B0A12A995
:10C00000B01229EE12C0B97419F0A3740AF0EEC38D
:10C0100033F8850E82850F83E028800412C0C9E4BE
:10C02000F0850C82850D83A3E0F8850C82850D8355
:10C03000E0C39850047900806612C0D5FAA3E034BA
:10C0400000FBE50C12D73E12F4DB12D378850C828C
:10C05000850D83E0C398C0E012D735D0E012C11B34
:10C06000E0603AE50C2417FEE4350DFF8E82F5837F
:10C07000E024F2F0E50C241DF8E4350DF98882F592
:10C0800083E0240EFAA3E03400FB88828983EAF07F
:10C09000A3EB12C3CF8E828F83E0C398F0A90B026B
:10C0A000D8BC25E0FCE433FD22E50C12C0AF22240D
:10C0B00019F582E4350DF58322E50C241B12C0C16D
:10C0C00022F582E4350DF5832212D8B112C0C422C4
:10C0D00012C0AFE022A312C105E02822A3A312C61A
:10C0E0007D12DA34A3A3A322850C82850D83A38558
:10C0F000820E85830F12C105E028FAA3E034008A7E
:10C1000082F583E022E0F88518828519832212C126
:10C110001222F0850C82850D83A32212C112A3A3E3
:10C12000A3A3A32212CF1E85188285198312C131C1
:10C1300022E0F8A3E022F0850E82850F83E004F070
:10C140002274F41224548A088B09EA12C1E3A3A3CF
:10C15000F0EA1313543F12C1D6A3F0EAC41313122A
:10C16000C1E312C1F67409780A122C1512C1EAA3B0
:10C17000A3A3A3A3A3F0EB12C1EC12C1F5740A7838
:10C180000A122C15E50A5401C0E0EC12D8B13DF5B5
:10C1900083D0E012C1FA740B780A122C1512C1EA8E
:10C1A00012C1F3740C780A122C1512C1EAA312C141
:10C1B000F3740D780A122C15E50A5401C0E0EC2442
:10C1C00024F582E43DF583D0E0F0740E7808122C5B
:10C1D00015A90802A8DC12C1DCA3A322540F8C828B
:10C1E0008D832254038C828D8322E50A54018C8234
:10C1F0008D8322A3A3A3A3A3A3A3F08A0A8B0B225C
:10C20000C082C08379008A828B83A3A3A3A3A3A344
:10C21000E0901C6B600EE0701F8A828B83A3A3E00A
:10C2200070168012E0601112D762901C74E06A7080
:10C2300003A3E06B60027901800312D76FD083D033
:10C24000820229A074F21224548A0A8B0B890CEC06
:10C25000FEEDFF8A828B83E0FA12C3C8850A8285CD
:10C260000B83A3A312C3BCE0F9EA8E828F83A3A33E
:10C27000A3A3A3A3A3A3A312C3DB12C3BCA3A3E0E2
:10C28000F912B7A7EA12C3DBA3A3E0C0E0EE12B82D
:10C29000CC3FF583D0E0F0850A82850B83A3A3A36E
:10C2A000A3A3A3A3E0C0E0EE12B8D33FF583D0E090
:10C2B00012DB29740812DB29A3A3A3A3A3A3E060C4
:10C2C00018E50A2408F8E4350BF9EE241312CF130D
:10C2D0008E828F83A3E02408F08E828F83A3A3A392
:10C2E000A3A3A3A3A3E060188E828F83A312C3AB82
:10C2F000EE241512CF13850882850983E02408F007
:10C300008E828F83A3A3A3A3A3E060248E828F8356
:10C31000A3858208858309E0F8E50A28F582E435DB
:10C320000B12C39CA3A3F0850882850983E004F067
:10C33000EEFAEFFB1241E8E9F50D70518E828F8322
:10C34000A3A3A3A3A3A312C3A5A37014E0F8E50AB3
:10C3500028FAE4350BFB12C39212D378E50C802245
:10C3600012C3ABE8240EF850010912C392E8F0A3FF
:10C37000E912C3CF850882850983E0F9E50CC399EA
:10C3800024F2C398C0E0EE12D086D0E0F0A90D02EE
:10C39000A9D9EE241DF582E43FF5832212C3A3A39D
:10C3A000A3A322F583E08E828F8322858208858372
:10C3B00009E0F8E50A28F8E4350BF922E0FA850AE5
:10C3C00082850B83A3A3A32212E74F1241E222F03E
:10C3D000901C6CE0F9123FF6E9F82212CF1E850A94
:10C3E00082850B83A3A3A3A322C082C0837AF67B9A
:10C3F0001C79E21239A27AF67B1C02C23DC082C0CF
:10C4000083901C7402C23AC082C083901C7702C21F
:10C410003AC082C083794A1239A202C23D74F61230
:10C420002454901CFEE0FE04F0EEF912417CEA4B2D
:10C4300070F0EE60EDF902C76D74F012245474FDD3
:10C44000122A9C7401122C8AECF0A3EDF0E98518F5
:10C4500082851983F08A0E8B0F750A007E007401A5
:10C46000122C8A12AEA21243988A088B09741312F6
:10C470002C8AE0F50B7414122C8AE0F50CEA4B7050
:10C4800021E50C600302C588851882851983E0F9CF
:10C490007401122C8A12AEA2AA0EAB0F1243BC0278
:10C4A000C67AE50C700302C545901AD4E0600464B6
:10C4B00001700E901D0312C945600612C695122622
:10C4C00032E50B700C850882850983E4F00E02C505
:10C4D000AB901AD4E060076401600302C5AB901C06
:10C4E0006EE0A2E1400302C5AB901D0512C9456094
:10C4F0000CA90BAA08AB0912C69512263285088230
:10C50000850983E0FA12E740500109C3EA98E499EB
:10C51000A2D265D0335009850882850983E004F0F2
:10C52000850882850983E0F8904E9CE49368707BCF
:10C53000750A01AA0EAB0F123DDA850882850983C0
:10C54000A3E4F08066E50B702BEA2402F8E43509D9
:10C55000F98882F58312C67DE0FCEA2CFAE4340007
:10C5600013EA1388828983F0700A8508828B83A37B
:10C57000A37401F08508828B83A3A3E0F8901E8248
:10C58000E0C39850500E804D7401650C701DE50B92
:10C590006019901AD4E060046401700F901C6EE082
:10C5A000A2E15007AA0EAB0F123DDA901AD4E06454
:10C5B0000270227401650C701CE50B901D15601350
:10C5C000E004F0901EAFE0F8901D15E0C398400520
:10C5D000750A01E4F0EEA2E092F0E50AA2E072F042
:10C5E000400302C67A901AD4E060046401703C9063
:10C5F0001C6EE0A2E15034AA0EAB0F123B468B0931
:10C60000A909EA496025EEA2E0500D8A828B83A336
:10C61000A3A3A3A3E0C2E0F0E50AA2E0505C8A82F3
:10C620008B83A3A3A3A3A3E0D2E0F0E50AA2E0508A
:10C6300049901AD4E060046401701D901C6EE0A261
:10C64000E15015AA0EAB0F123B34E9600BAA0EABFA
:10C650000F7900123C788022901C77E0650E700400
:10C66000A3E0650F7014AA0EAB0F7901123C78900D
:10C670001AD4E06402700312C68602D8BCE0FA85C0
:10C680001882851983227A017B00901CCEE0F91272
:10C6900034442279C412DA352274F41224548A08FC
:10C6A0008B098C0A8D0B90817D7808122AC7700740
:10C6B0007A0112B393801E901E9C7808122C24EAF3
:10C6C0004B4C4D600D78081229B812898D1229EE55
:10C6D000800312C68602A8DCC082C083901EA0021E
:10C6E000AB26C082C083901EA202AB2674F6122431
:10C6F000547E0075086075091C78081229C07C6E8C
:10C700007D007A217B001233F674021229EEE9646F
:10C710000A70027E01123B10E9640A7004EED2E155
:10C72000FE901AD4E060046401700C123B82E9644C
:10C730000A7004EED2E2FE90041D12C945600F1289
:10C74000C695122632E9640A7004EED2E3FE123E68
:10C75000CAE9640A7004EED2E4FE123954E9640AAC
:10C760007004EED2E5FEEEF980031229EE7F02029C
:10C7700026D174F612245412328875086075091C8B
:10C7800078081229C075086E75090078081229C04A
:10C7900012C7BC1229EE123B16901AD4E060046452
:10C7A000017003123B8890041F12C945600612C62F
:10C7B00095122632123ED012396080B17C007D0085
:10C7C0007A217B0012340274042274F61224547409
:10C7D000FF122A9C7E0075086075091C78081229D2
:10C7E000C07C6E7D007A217B001233F67402122920
:10C7F000EEE9600302C89678081229C075086E8EAB
:10C800000978081229C07C007D007A217B0012344F
:10C810000874041229EEE9707D901C74E064FE70C7
:10C8200003A3E0F460707E01901C83E0640860055F
:10C83000E06404705C851882851983EE12C8DE7A84
:10C840008B7B1C79431239A87A887B1C7947123973
:10C85000A87A797B1C794A12C8BE7A817B1C7950F0
:10C860001239A87A747B1C79531239A87A897B1CF7
:10C8700079541239A87A767B1C79E11239A8901C78
:10C880006EE0A2E35004D2F08002C2F012C8CB8066
:10C89000051232887E00123B04901AD4E0600464D2
:10C8A000017003123B9A90042112C945600612C61A
:10C8B00095122632123EDCEEF9740102C76A123973
:10C8C000A87A777B1C794B1239A822A2F0E4338531
:10C8D000188285198312CA5279521239A82212CAB3
:10C8E0005279421239A82274F6122454E9FEA2E0C9
:10C8F000501C75086075091C78081229C075086EEF
:10C9000075090078081229C012C7BC1229EEEEA2E0
:10C91000E35003123B0A901AD4E0600464017008EB
:10C92000EEA2E15003123BA0EEA2E2500E900423CF
:10C9300012C945600612C69512263202C76DEE1264
:10C94000E35D3FF58312B8E7E8492274F6122454F8
:10C9500074EC122A9C7401122A6612CA847405129D
:10C960002C8AE4F07407122C8AE4F07A04F9123B62
:10C97000228A08904EA4E493FAC3E5089AEB940047
:10C980005044123AFEE9703E904E7F12CA30600F5A
:10C990007A04790312CA19904E7F12CA3A50087469
:10C9A00005122C8A7401F0904E7D12CA30600F7A05
:10C9B00002790112CA19904E7D12CA3A50087407C2
:10C9C000122C8A7401F0901EE2E0F97CD17D1C7477
:10C9D00001122A5E12CA237407122C8AE0701174A5
:10C9E00005122C8AE07009851882851983E4800875
:10C9F0008518828519837401F0901EDCE0F8901B85
:10CA0000EBE058F8851882851983E05812CA4E79F0
:10CA1000411239A8741402C76A123B22904EA4E452
:10CA200093FC221241287AD17B1C79451239A82225
:10CA3000E493F8740193F9E84922E493F8740193BC
:10CA4000F9ECC398F8E499F9C3EA98EB992212CA71
:10CA50005222F0AA18AB192274F712245474ED1262
:10CA60002A9CE9FE901CCDF0AC18AD1912CA847452
:10CA700012122C8AEE12CA91AA18AB1912CA237488
:10CA80001302B1FD901EE2E0F97AD17B1C12412E17
:10CA900022F0901EE2E0F97CD17D1C2274F4122475
:10CAA000548A088B09901EE4E064FE7003A3E0F44E
:10CAB000706C7A167B001232DC8A0A8B0BAE0AAFDE
:10CAC0000BEA4F60598A828B83740112CDD3A3E0A5
:10CAD0008A828B83A36004740280027401F0EA24CA
:10CAE0000AF8E43FF9E508241D12CB2B12EF4F1290
:10CAF000A9B6F0A2E3400912CB3312D76F1241B8A6
:10CB0000E50812CB21350912E75BEE241312CBFFA7
:10CB1000EEFA12CB3D12CB3312D36B12CF1902A80F
:10CB2000DC2415F582E422E5082413F582E43509B6
:10CB3000F58322E50812E72E3509F58322EFFB90F5
:10CB40001CCEE0F91232E82274F212245474FD1261
:10CB50002A9C8A088B09890A8C0B7401122C8A740E
:10CB60000412DB34606F12CC087407F0E50824135C
:10CB7000FAE43509FB8A82F58312A9B712CC16A311
:10CB800012DB2212CCB488828983A3A3A3F012CB38
:10CB9000EBE508240BF8E43509F912CF1012CDE4C7
:10CBA000EE241312DCD6650A60067401650A70076C
:10CBB00012CBE37404800412CBE3E4F0901EE41281
:10CBC000BE4412CF197401650B700312CBFCEE1238
:10CBD000E51CF980027910901EE474FEF0A304F0C5
:10CBE00002A9D412ADD57440F0A322EE241612CBC4
:10CBF000F222F582E43FF5837401F022EE2411F570
:10CC000082E43FF583E4F02212E72D3FF58312B86A
:10CC1000E78882F58322A312CC1B22F08A828B83C1
:10CC20002274F41224548A088B097A007B0412C6F9
:10CC30008A12CCC3901C837409F012D4B112CB2792
:10CC400012D76F12F060640170677A0F7B001232A6
:10CC5000DC8A0A8B0BAF0BEA4F60568A828B837497
:10CC600002F0E50812D73E350912D78BFC8882897D
:10CC700083A3A3E0FBEC8A828F83A3A312D37988DA
:10CC8000828983A3A3A3E08A828F8312CCB4FAA300
:10CC9000E0FB794A1239A8850882850983A3A3A3FA
:10CCA000A3A3A3E0700690185B7405F0AA0A12CB48
:10CCB0003D02A8DCA3F0E5082415F582E43509F56A
:10CCC00083E022901BEE12B8E7901EA212CF1D90B7
:10CCD0001BF012B8E7901EA012CF1D2274F412248C
:10CCE0005474FD122A9C8A088B097401122C8A74D0
:10CCF0000212DCDC700302CDB412CC087404F0A381
:10CD0000E412CDD8E06401700888828983A374207E
:10CD1000F0850882850983A3A3A3A3A3E06401701F
:10CD20000988828983A3E0D2E6F085088285098399
:10CD3000A3A3A3A3A3A3E06401700A88828983A3A9
:10CD4000E0D2E78006EA12AD9E740112CDD3E06412
:10CD5000017020850882850983A3A312C945600458
:10CD6000EA12CBEC850882850983A3A312CDC2EA1F
:10CD700012CF11850882850983A3A3A3A3A3A3A32C
:10CD8000E064017009EA240F12CBEEA3E4F08508F9
:10CD900082850983128B12600612B7AF4404F01229
:10CDA000CDE485088285098312CDC612B7CD12E580
:10CDB0001CF98002791002BE3FEE2413F582E43F95
:10CDC000F58312B8E72212CDCA2212C131F98E8240
:10CDD0008F832212CDD8A322F0850882850983A3F0
:10CDE000A3A3A322EE12D06E2274F512245474F37E
:10CDF000122A9C890AEAFEEBFF7508007509007C7F
:10CE00000D7D007900AA18AB191232C412C3921218
:10CE1000CFF3741F58600C7AD37B001236AE7900C2
:10CE200002CEFBE8A2E55008740C122C8A7401F0C3
:10CE3000E8A2E75008740B122C8A7401F0E8A2E60D
:10CE4000740A5008122C8A7401F08008122C8AE0AF
:10CE5000640170138E828F83A3A3A3A3A3A3A3E073
:10CE60006030EE241380128E828F83A3A3A3A3A32A
:10CE7000A3A3A3E0601CEE241512E467E5084509AE
:10CE80006010AC08AD097402122C8AAA82AB83121E
:10CE9000348012B7A712CF0012CF19740A122C8A4D
:10CEA000E06401704D901AD4E0604E640170089007
:10CEB0001EBFE070198042E064027012EE240B1273
:10CEC000CDBC901C77E0687003A3E069702B128BD7
:10CED000057026E508450960191241F48A088B0996
:10CEE000AC08AD097402122C8AAA82AB8312F060DE
:10CEF0006007AA18AB19123C72A90A740D02B48714
:10CF000012CF0422E0F8A3E0F98518828519832264
:10CF1000EE2418F582E43FF58312CF1D22E8F0A33A
:10CF2000E9F02274F712245474CD122A9CEAFEEB25
:10CF3000FF8A8212D00DA2E0400302CFD78A828BF3
:10CF40008312CFFEE054FE12EB9C740D122A66127F
:10CF5000B8C512CFEE12CFDC12D76F1241EEE970D6
:10CF600076742A122C8A12D007706C7C0D7D0079A1
:10CF700000AA18AB191232C47416122C8A12CF00F0
:10CF800012CF19742A122C8A12CFF3A2E55008741A
:10CF90000B122C8A7401F0E8A2E75008740A122CD4
:10CFA0008A7401F0E8A2E650047420800274221210
:10CFB0002C8A12AEA27402122C8AAA82AB8312347B
:10CFC000808E828F83A3A3E0C0E0740C122C8AD0E1
:10CFD000E012CA4E123C6C743302B1FDF9EA241F10
:10CFE000F582E43BF5832274432AF58274083BF50D
:10CFF00083E02212CFF9E0F82212DA2EA32212D710
:10D0000092A3A3A3A3A32212B2D7640422F583128E
:10D01000DC5912D016222406F582E438F583E0228A
:10D02000E9F87900740468600A740A68600574039A
:10D0300068700279010229A074F61224548A828B46
:10D04000837424F0A3A37401F0123BBE8A088B09F9
:10D05000AE08AF09EA4F60078A828B8312D066EE72
:10D06000FAEFFB02C76D7401F0EA12D06E2212D003
:10D07000867401F01241F4EE241AF582E43FF58340
:10D08000EAF0A3EBF0222417F582E43FF58322C0F7
:10D0900082C083901C7102AB2EC082C083901EE3BD
:10D0A00002AB2EC082C083E9901EE302AB2AC0828D
:10D0B000C083901CEA7401F0E9A2E350037403F00A
:10D0C000E9A2E15004E0D2E2F002C23D74F612247B
:10D0D0005479007C008A088B097808122717F8FF1A
:10D0E0000701D1FFD0FFD0FFD0FFD0F7D0FBD00198
:10D0F000D1F3D07C01800A7C0480067C0280027C13
:10D1000008901CEAE05C600479028005EC6002791A
:10D110000102C76D74F4122454EAFEEBFF89081271
:10D120003B4C8B0BA90BEA49603E8A828B83A3A3FD
:10D13000A3A3E06033C39405502E74016508601A00
:10D140008A828B83A3A3A3A3E06401600D8A828BF0
:10D1500083A3A3A3A3E0640270078A828B8312D106
:10D160006FEEFAEFFB123B5802A8DC8E828F83121F
:10D17000B0EB123D322274F61224548A828B83E083
:10D180007014A3A3A312C945600C8A828B8312D7A3
:10D190006C123F2A80047A007B0002C76DC082C0F7
:10D1A00083901C83E0640870031242BA02C23DC03F
:10D1B00082C0837800E875F003A4FCA9F0E9FD12B1
:10D1C000D23E6A7003A3E06B7018904E94E493C053
:10D1D000E074ED2CF582741C39F583D0E0F079C54C
:10D1E000805908E8C3940340CC7800E875F003A4A4
:10D1F000FCADF012D23E64FE7003A3E0F4601E08A2
:10D20000E8C3940340E57800E875F003A4FCADF0B2
:10D2100074ED2CF582741C3DF583E07015E812E77F
:10D22000EE12D378904E94E49388828983F079004B
:10D23000800908E8C3940340CF79C702C23D74EE69
:10D240002CF582741C3DF583E022C082C0837C00F3
:10D25000EC75F003A4F8A9F074EE28F582741C12A2
:10D2600087016A7003A3E06B700912EB7A6004799E
:10D270000180090CECC3940340D6790002C23D74CE
:10D28000F212245474DD122A9C8A088B09750A0054
:10D29000901AD4E060076401600302D360901C74AC
:10D2A000E06A7003A3E06B7010EA4B700302D35383
:10D2B000750A011242C002D360123B468A0C8B0DE4
:10D2C000AE0CAF0DEA4F700302D3538A828B83A357
:10D2D000A3A3A3E06401600D8A828B83A3A3A3A30D
:10D2E000E06402706E851882851983E412B8DE74DA
:10D2F0000B122C8AE8F0A3E912CA4E123AF2E96046
:10D30000528E828F8312D36B12CF197403122C8A20
:10D31000AC82AD837418122C8AAA82AB831234803B
:10D320007900123D267420122C8A12D378742212AE
:10D330002C8AE4F07C028E828F83A3A3A3A3E0F95E
:10D34000740D122A5E124254750A0112D367129BA1
:10D350000B800D901C8112AEA2AA08AB091243806B
:10D36000A90A742302A9D612E76F2212B8E7901E09
:10D37000E422851882851983EAF0A3EBF022C082AB
:10D38000C08374FE122A9C901AD4E0600464017079
:10D390002D7901123D2C851882851983EAF0A3EBC3
:10D3A00012D3C3901C7412D379AA18AB19795312F3
:10D3B00039A885188285198312D76F1235F4740243
:10D3C00002B8B912D3C72212DC67E02274F4122427
:10D3D0005474F3122A9CEAFEEBFF8C088D09750A3F
:10D3E00012EA4F7005790002D4AC901C74E06E70A4
:10D3F00003A3E06F701412D4B1AA08AB0912F06055
:10D400007005750A018003750A00851882851983E5
:10D41000E4F004122C8A12D4C0AA18AB19123AE60E
:10D42000E960297403122C8AAA82AB83123AC2E9FA
:10D4300064017018750A017403122C8AAC82AD83E2
:10D44000AA08AB0912F0606003750A00901AD4E0D4
:10D450006004640170177412650A7011AC08AD099C
:10D46000EEFAEFFB123B2EE96003750A00AC08AD43
:10D4700009EEFAEFFB12439EE9F8740A687005752D
:10D480000A01801D74A0687012AC08AD09EEFAEFB5
:10D49000FB1243B0EEFAEFFB1243C27401650A704F
:10D4A000097900EEFAEFFB1242CCA90A740D02A82A
:10D4B000D91241F48A0A8B0BAC0AAD0B2239F583E1
:10D4C000EEF0A3EFF02274F6122454EAFEEBFF898B
:10D4D00008901AD4E060046401701E1242BAE50894
:10D4E000F50978091229C4790DEEFCEFFD7AFD7B70
:10D4F000FF1242D874011229EE02C76D74F712248C
:10D5000054EAFEEBFF8A82F583A3A3A3A3A3A3A3FC
:10D51000A3E06019EA2415128F9F12B7A812D76FE3
:10D520001242C6E96401700512B7A7802D8E828F62
:10D5300083A3A3A3A3A3A3A3E0602912AD9D12D547
:10D5400069FAA3E0FB1242C6E9640170178E828F6C
:10D5500083A3A3A3A3A3A3A3A3A312D76F1242AE33
:10D5600079018002790002B20012D575A3A3A3A3AA
:10D57000A3A3A3E02212AEAA8E828F83A3A3227458
:10D58000F212245474FD122A9C8A088B09ECFEEDD9
:10D59000FF890A750B017401122C8A740412E53993
:10D5A00060447411122C8AE0601512DC4BE412E026
:10D5B000CD8A828B83E0D2E7F0EA241412AF6112A5
:10D5C000D5EB12CC0C7403F0A3E50AF0EE88828947
:10D5D00083A3A3F0EF88828983A3A312CC1612F24F
:10D5E000B012E51FF50BA90B02A9D412E72D3B22BF
:10D5F00074F11224548A0C8B0D890875090112D715
:10D600003D350D12D78BF50E888289831288F21270
:10D61000D77312D735E06404600A7AD37B001236E0
:10D62000AE02D730E50E1228A80200023ED6030B48
:10D63000E8D6030CCED60DA6D60EE8D6E5D6901ABF
:10D64000D4E060076401600302D6E8901C6EE0A29B
:10D65000E1400302D6E87900EFFB123DBCEA4B60E3
:10D660003A8A828B83A3A3A3A3A3A3E05418602BBD
:10D6700012D74D1228238A828B83A3A312282379E1
:10D6800000850C82850D83A3A3A3A3A3A3A3A3A3B7
:10D6900012D75612D7821229EE802E7901EEFAEFB8
:10D6A000FB123C848042901AD4E06004640170381C
:10D6B000901C6EE0A2E15030E9FB1242A8EEFAEFB6
:10D6C000FB1242AEE964C5701F750900801A901AFA
:10D6D000D4E0600464017010901C6EE0A2E1500878
:10D6E0001236188003750800E50C2409F50AE435A4
:10D6F0000DF50BEEFCEFFDA90E850A82850B83125A
:10D70000D76F123C9C850A82850B83128B12602096
:10D7100012D744E0C39402401712D74D12DFF570C0
:10D7200003A3E069600AE509A2E05004A9088002A9
:10D73000790002BA60E50C241712C0C122EA241D48
:10D74000F582E422E50C12B8CC12C0C422E50C121A
:10D75000E72E12C0C42212D75A2212AEAA8A828B96
:10D7600083228A828B83A3A3A3A3A3A3A3A3A3122D
:10D77000B0EB22A3A3A3E0F8E4C8F9EA28FEE43959
:10D78000FF2212B0EB123DD4740422F58312D7921B
:10D79000E02212C131F98882F583A32274F01224A9
:10D7A0005474F3122A9C7403122C8AECF0A3EDF04B
:10D7B0008A0E8B0F890B7E01EE122C8A740AF0748C
:10D7C0001D122C8AE0F50AE9700FE50AC333240A1A
:10D7D000C0E0EE122C8AD0E0F0AA18AB1912427801
:10D7E0008A088B09EA4B700302D8AB12A8C9350925
:10D7F00012E0C58E82F5837409F0E50BC43354E062
:10D80000450AA3F0EE2402FE50010F7403122C8A85
:10D8100012B7BEFAEFFB12D98150010FE50B70353C
:10D820007800741E122C8A12D76F8023E812C0A2CF
:10D83000EA2CF50CEB3DF50D850C8212C3A312D832
:10D84000B78E828F83A3F0EE2402FE50010F08E80A
:10D85000C3950A40D7E508241712CB2B7401F012A8
:10D8600041F4E508241A12CB2B12D3787405122A3E
:10D8700066AA0EAB0F123ACEE96019E5082416121B
:10D88000CB2B7401F07405122A56E50812D8B13575
:10D890000912CF17850882850983A3A3E50EF0A39B
:10D8A000E50FF0AA08AB0912E51FFEEEF9740D8032
:10D8B0000D2418F582E42212C112E0227403122909
:10D8C000EE7F080226D174F012245474F8122A9CB8
:10D8D0008A0E8B0F12D73D350F12DAB5F8741F5828
:10D8E000F50A880BA3AE82AF8312D97950010F12CB
:10D8F000F058607974E0550B706CAA0AEA2AFA7B3A
:10D900000012DFD760677A00802B8E828F83E0FC65
:10D91000A3E0F8E4C8F9EC28E439FDEA12D972E58D
:10D920000828F582EB39F583ECF0A3EDF0EE240244
:10D93000FE50010F0AEAC3950A40CF78081229C0A9
:10D94000780A1229C47403122A667900E50E12A817
:10D95000CA350FF58312DFE174031229EEAA08AB72
:10D960000912338480077AD37B001236AE74080222
:10D97000D8BE25E0F8E433F922EEFCEFFDAA18AB9F
:10D9800019123480EE2408FE2274F012245474FE1E
:10D99000122A9C12D372890C8C0E8D0F9018911242
:10D9A000C945607B7412122C8AE0F50B12D972E81B
:10D9B000240EFAE439FB1232DC8A088B09AE08AF78
:10D9C00009EA4F605A8A828B8374D412DA49F98A41
:10D9D000828B83A3A312F29EA3A3A3A3E50CF0ACB6
:10D9E0000EAD0FEA2405FAE43FFB12348012E7344F
:10D9F000E50BF07413122C8A12DA3C1229BCAC0B22
:10DA0000EC2CFCE433FDEE240EFAE43F12A9AF1235
:10DA100029EEEEFAEFFB90189112DA2A12263274F0
:10DA20000202D8BE85088285098312DA2E22E0F828
:10DA300012DA3422A3E0F583888222A3E0F508A35A
:10DA4000E0F509750A0078082212D3C7F8A3E0228E
:10DA500012B8E7850C82850D832274F61224547463
:10DA6000F8122A9C890812D73D3B12DAB5F9741FC7
:10DA700059F88909A3AE82AF83740168702912D95D
:10DA80007950010F12F058602574E0550970188E16
:10DA9000828F83A312BD3A12E74B8E828F83E0F907
:10DAA000124320A90880097AD37B001236AE790090
:10DAB000740802C76AF583E02401FEA3E034008EF7
:10DAC00082F583E02274F012245474FD122A9C8A99
:10DAD000088B098C0E8D0F890A750B017401122CAD
:10DAE0008A740312DB34603512CC08740BF0A3E5A2
:10DAF0000AF07413122C8A12DB22A312D06812CB04
:10DB0000EBEE12D8B13FF583E50EF0A3E50F12DB83
:10DB100029A3E508F0A3E50912DCF3F50BA90B0234
:10DB2000D8BCE088828983A32212DB2EA322F08E48
:10DB3000828F832212DCEA8A0C8B0DAE0CAF0DEAC9
:10DB40004F2274F012245474FD122A9C7401122C7A
:10DB50008AEAF0A3EB12DC63E4F004122C8A12DCF4
:10DB60005512D73E3812DD48888212E0C574011282
:10DB70002C8A12DC5512CB2138F58312D76F123B59
:10DB80004CEA4B700302DC488A828B83A3A3A3A3D5
:10DB9000E0700302DC48C39403400302DC48EEC398
:10DBA000940F5003EF600B8518828519837401F080
:10DBB000807512B8D212AF64EE7022904D7F780853
:10DBC000122B2C12DC4B7808122C24904D7F7808F5
:10DBD000122B2C12E5247808122C24803BF50875B2
:10DBE000090074027808122BB1747F2508F582743D
:10DBF0004D12CB2E780C122B2C9081457808122CCC
:10DC000033780C790812236512DC4B780C122C2423
:10DC100012E524780C122C24EA241BF582E43BF54F
:10DC2000837401F0123660901EC1E0FC8518828575
:10DC30001983E0F97401122C8A12DC5512A8CA3833
:10DC4000F58312D76F12430802D8BCEA2417F58275
:10DC5000E43BF5832212DC592212DC5D22E0F8A3BA
:10DC6000E0C82212DC6722F08518828519832274AD
:10DC7000F012245474F5122A9C8A0E8B0F89098C99
:10DC800008750C017401122C8A740312DCDC603FED
:10DC900012CC08740C12F2B488828983A3A3E5081D
:10DCA00012D0687403122A66AA0EAB0F123ACEE99C
:10DCB000600CEE241612DCD6122A5612CF108E8279
:10DCC0008F83A3A3E50EF0A3E50F12DCF3F50CA9F7
:10DCD0000C740B02D8BE12CBF274032212DCEA8A57
:10DCE0000A8B0BAE0AAF0BEA4F22F0AA18AB19123F
:10DCF000427822F0EE241312CBF2EEFAEFFB123B45
:10DD0000B8E92274F612245412D73D3B12DD48F9CB
:10DD10008882F5831288F3E0702BEAA2E050269007
:10DD20001EC1F07508C175091E78081229C0750852
:10DD30000175090078081229C07C007D007A511213
:10DD4000C7C21229EE02C76DF583E02401F8A3E0F3
:10DD500034002274F612245474DA122A9CEAFEEB80
:10DD6000FF8A82F583128E3412C943604C8A828BFB
:10DD70008312D76FAC18AD19128E747409122C8AE5
:10DD800012DFF57003A3E069602F8E828F8312DAB1
:10DD90002A1228237508FE7509FF78081229C07415
:10DDA0001C122C8AE0F9740D122C8A12AEA2740F88
:10DDB000122C8A12D7821229EE742602C76A74F7CF
:10DDC000122454E9FD7A007B00901AD4E0600464C8
:10DDD0000170477C00800B12DE71E02AFAA3E03B61
:10DDE000FB0C904EA412E9075030EC75F01CA4F81F
:10DDF000AEF0EEF9741128F5827407128701F46011
:10DE0000E0741D28F58274073912C94360D3ED60B0
:10DE1000C612DE71E4F0A3F080C77C00800B12DE36
:10DE20005EE02AFAA3E03BFB0C12E904502DEC75EE
:10DE3000F017A4F8AEF0EEF912EEB77003A3E0F419
:10DE400060E6745828F58274083912C94360D9ED28
:10DE500060CC12DE5EE4F0A3F080CD02B200EC757F
:10DE6000F017A4F8EEF9745828F582740839F58390
:10DE700022EC75F01CA4F8EEF9741D28F5827407E5
:10DE800039F5832274F0122454E9FE8A088B099034
:10DE90001CCDE0C39E5034124248901CFF12F2B2D7
:10DEA000901C67E0F50CE4F50DF50EF50F90811967
:10DEB0007808122C33780C7908122365780C122913
:10DEC000B87A007B021289911229EE02D8C174F649
:10DED000122454EAFEEBFF901CEB801388828983A6
:10DEE000E06E7003A3E06F603A88828983A3A31277
:10DEF000C94570E87A047B0012337E8A088B09A832
:10DF000008A909EA49601C8A828B8312D4C0901C3C
:10DF1000EB12D76F88828983A3A312D378901CEB6E
:10DF200012CF1902C76D74F41224547E00901CEBBA
:10DF300080070E88828983A3A312C94570F4EE2559
:10DF4000E0FAE433FB12DFD7700302DFD17C0090EC
:10DF50001CEB802A88828983E0F50AA3E0F50BECAC
:10DF600025E0FAE433FBE5082AF582E5093BF58371
:10DF7000E50AF0A3E50BF00C88828983A3A312C9FC
:10DF80004570D1901CC912DFF57003A3E0697808D1
:10DF900070191229C0EEF50A780A1229C47C957D01
:10DFA0001C7900901CC912DFE1801A1229C0EEF51D
:10DFB0000A780A1229C47C957D1C7900901CC9122C
:10DFC000D76F1242E474031229EEAA08AB09123388
:10DFD00084123BD002A8DC12337E8A088B09EA4BFC
:10DFE0002212B0EB1242F0228E828F83A3A3A3A34E
:10DFF000A3A3A3A3A312B8E7901C74E06822C08275
:10E00000C08380128A828B83A3A312CDC2901CEBA3
:10E0100012CF19123384901CEB12B0E270E602C2E8
:10E020003D74F5122454901C8112E46D901CFF1273
:10E03000CDC2901C8112CF197AFF7B1C7950123906
:10E04000A8901CFF12E0C7750A00800F12E9C67085
:10E0500003A3E06F600312E80A050A12E0B9502238
:10E06000E50A75F017A4F8A9F012E86E65087004C7
:10E07000A3E0650970D6744D28F582740812D4BDEA
:10E0800080D7901CFF12E0C790189312C9456026F4
:10E090007A067B001232DCEA4B601B8A828B837427
:10E0A000D5F0A3A3E412AF6AA30412E0CD901893B5
:10E0B00012DA2A12263202B48A904E90E493F8E5DE
:10E0C0000AC398223BF583E0FEA3E0FF2212E0D6CC
:10E0D000EEF0A3EFF02212E0DA22F08A828B83A323
:10E0E000A3A3A322C082C083901C74E064FE7003CB
:10E0F000A3E0F4600E901C6EE0A2E150061243A46F
:10E1000012434A02C23D74F0122454901CC2E060D3
:10E110004CF50CE4F50DF50EF50F9081957808128D
:10E120002C33780C79081223651232D68A088B09B1
:10E13000A808A909904E89E49358F508A3E49359D7
:10E14000F509E4F50AF50B780C7908122B52780CD6
:10E150001229B87A007B0112E1641229EE02D8C1BB
:10E160007A007B40901CCEE0F912343E7404227495
:10E17000F012245474FE122A9C7E007F008E0E8EB4
:10E180000F123B6A750A008026AA0A7B00123B64C4
:10E190008B09A909EA4960158A828B83A3A3A3A3EB
:10E1A000E0600464047006129ABE60010F050A90D4
:10E1B0004EA412E0BC40D212437A12D3727508000A
:10E1C000801BAA087B001243868B0BA90BEA4960CF
:10E1D0000AEA12EB73129ACC60010E050812E3757D
:10E1E00040E0EF2EFE700302E2CCF50875090074E2
:10E1F000027808122BB1AA08AB0912F67E7003024E
:10E20000E2CA750B00EEF508750900740278081271
:10E210002BB1AC08AD0979FF1232C4750A008052E7
:10E22000AA0A7B00123B648A0C8B0DEA4B60418A80
:10E23000828B83A3A3A3A3E0600464047032129AC8
:10E24000BEF9602C050B850E08850F097808122988
:10E25000C0EEFD850C82850D83A3A3A3A3A3A3A376
:10E26000A3A3E0FC850C82850D8312E36C1229EEDA
:10E27000050A904EA412E0BC5006E50BC39F40A0D7
:10E2800075080012E3755044AA087B001243868A81
:10E290000A8B0BEA4B602FEA12E35D350BF5831214
:10E2A0009ACCF96021850E0C850F0D780C1229C0CF
:10E2B000EEFDE50A240E12E363FC850A82850B83DA
:10E2C00012E36C1229EE050880B97E007F62901C73
:10E2D0006CE0600BF9123FF6E9F87454C398FF75CF
:10E2E000F003EF84F5089420400375081F850E0A9B
:10E2F000850F0B750C00EF6005750C207F00E5089D
:10E30000C39E500585080980088E09E50CD2E6F504
:10E310000CAC0AAD0BAA0CA909124356E9F50DE5A0
:10E320000CA2E6401D15097800800BE50A2404F5CF
:10E330000A5002050B08E8C3950940EFE509CEC372
:10E340009EFEE97006E50CA2E650A8E50E450F60BA
:10E3500007AA0EAB0F123384A90D02DA1F240FF5A2
:10E3600082E422F582E4350BF583E02212B0EB1251
:10E37000435074022285188285198312B8E7C3E5D9
:10E380000898E4992274F2122454E9FE750A007583
:10E390000B00740E122C8A12E46D7F008011850828
:10E3A0000A85090BE5082404F508500205090FEF5A
:10E3B000C39D400302E45A850882850983E0F47016
:10E3C00003A3E0F46076E50A450B600E850A8285BA
:10E3D0000B83C3E09AA3E09B50C485088285098320
:10E3E00012F01CEB9950B7A808A90988828983E02C
:10E3F000F47003A3E0F4600DE82404F85001090F61
:10E40000EFC39D40E6880A890BE824FCF8E934FF55
:10E41000F98882F583128AEC850A82850B83E50CE4
:10E42000F0A3E50D12F4ED12E45D12F4EDA312E495
:10E430005DA3F0C3E50898E5099940C98508828580
:10E44000098312D378EC850882850983A3A3F0EEB3
:10E45000850882850983A3A3A3F002A9D9E0850AD0
:10E4600082850B83A3A322F582E43FF583E0F508C0
:10E47000A3E0F5092274F312245474FD122A9C8936
:10E48000088A09ECFEEDFF750C0175F003E9A42480
:10E4900002C0E07401122C8AD0E012E539607112DA
:10E4A000D5EB12CC0C7408F0741F55084509A3F085
:10E4B000E82402F85001097C0080378E828F831295
:10E4C000A9B712DB2912DB2212E52EC454F05470D6
:10E4D000FD8E828F83A3A3A3E054074D8882898396
:10E4E000A3A3F0E82403F8500109EE2404FE500130
:10E4F0000F0CECC3950840C38A828B83A3A374FCE2
:10E50000F0A374FFF012E5247401F012E51FF50C7E
:10E51000A90C74031229EE7F050226D1FAEFFB1233
:10E520003BB8E922EA2413F582E43BF5832212E5A5
:10E53000322212DB2EA3A3E02212DCEAEA4B227481
:10E54000F11224548A0A8B0B7508007AFE7BFF7C3B
:10E55000FE7DFFE50A12D73E350B12D78BFE741FE6
:10E560005EF509E82402F50CE439F50DEEA2E7406A
:10E5700074E50A241712E363F875F003E509A4248F
:10E5800002687061E509600B850C82850D83E0FAF5
:10E5900012E74B7F008029850C82850D83A3A3E0C1
:10E5A0005407F50EE50C2403F50C5002050DE8FCAC
:10E5B000901C74E0687003A3E0697003850E080F77
:10E5C000EFC395095029850C82850D8312C131FC5A
:10E5D000E4CCFDE82CE43DF9850C82850D83A3A3F2
:10E5E000E0548860B27AD37B001236AE02E720E5B1
:10E5F00008700BEEF9124362E9700302E720E50AA6
:10E6000012A8CA350B12A8CE8A0C8B0DAE0CAF0D1A
:10E61000EA4F605A8A828B83A3A3A3A3A3A3A3E494
:10E62000F0904E9C93F88A828B83A3A3A3A3A3A309
:10E63000A3A3E0C398402412E7405001097A027B6B
:10E640000012226EE88E828F83A3A3A3A3A3A3A3A9
:10E65000A3F0E508C39407500205088E828F83A3B8
:10E66000A3A3A3A3A3A3A3A3E508F002E7207CFF31
:10E670007DFF12E72312D76F12436E8A0C8B0DAE0B
:10E680000CAF0DEA4F704512EE26700302E7207CB6
:10E69000177D0079001232C412E72312CDC612870B
:10E6A0005A8E828F83A3A3A3A3A3A3A3A312B7CD40
:10E6B00012B7A374AA12EE485001097A027B001225
:10E6C000226E12E734E812E7657401F0904E9CE484
:10E6D00093F81286F4C398401912E7405001097A62
:10E6E000027B0012226E12EE42E508C3940750022C
:10E6F000050812EE34E50812E76AE4F012A04512AC
:10E700003AC2E9701B850A82850B83A3A3A3A3A346
:10E71000A3A3A3E0600AE50A12CB21350B12E75B45
:10E7200002BA60E50A12E72E350BF58322EA240BC4
:10E73000F582E42212E73822EE12B8BF3FF58322B9
:10E74000904E9CE49379002401F82212E74F22A313
:10E75000E0F8E4C8F9EA28E439FB22129AEF12A0A3
:10E760004612348022F012EE3822F012E76F22EEC9
:10E7700012EB6D3FF5832274F7122454E9FE74FE08
:10E780006A700374FF6B603574605E6460602EE9CC
:10E79000A2E5401CA2E6901C74500DC3E09AA3E0D1
:10E7A0009B501A790002B200C3E09AA3E09B40F3A9
:10E7B000901C7412CDC2C3EC98ED9940E6790180AB
:10E7C000E474F71224547E008005EE12E8030E1262
:10E7D000E86440F67E00EE12E7EE74FEF0A3041249
:10E7E000F3D3E4F00EEEC3940340EB02B20075F0F5
:10E7F00003A4F8A9F074ED28F8741C39F98882F59F
:10E8000083A32275F017A4F8A9F012E85B12438CD9
:10E810002274F71224547E0080010E12E8645034F2
:10E82000EE75F017A4F8A9F0744328F58274081265
:10E8300087016A7003A3E06B70E012E86E6C7003EE
:10E84000A3E06D600A74FF6C700374FF6D70CB12EF
:10E85000E85B80047A007B0002B200744328FA74FB
:10E860000839FB22904E90E493F8EEC3982212E808
:10E870007222744D28F582740839F583E02274F60B
:10E880001224547CFF7DFF7AFE7BFF12436EEA4B1D
:10E8900070407508008036E50875F017A4F8A9F0F7
:10E8A000745228F5827408128701600C745128F59F
:10E8B0008274081287017013744328FE740839FFAC
:10E8C0008E82F58312EB86EEFAEFFB050812E8D58F
:10E8D00040C502C76D904E90E493F8E508C39822B6
:10E8E000C082C0837A007B007C00801012EEAF7083
:10E8F00003A3E0F460050AEA70010B0C12E904407E
:10E90000EB02C23D904E90E493F8ECC3982274F46D
:10E910001224548A088B09ECFEEDFF800B12438C05
:10E92000EEFCEFFDAA08AB0912436EEA4B70EE0253
:10E93000A8DC74F71224547D007C0080020D0C12B8
:10E94000E904501C12EEAF7003A3E0F460F0EDF8A0
:10E95000EA684B70E8EC75F017A4F812E85B8004E5
:10E960007A007B0002B20074F7122454EAFEEBFF37
:10E97000EA4F600E12E98574FEF0A30412E993F0E9
:10E98000A3F002B2007C177D0079001232C48E829F
:10E990008F832212A57AA32274F7122454EAFEEB85
:10E9A000FF7508008018E50875F017A4F8A9F012A3
:10E9B000E9C67003A3E06F600312E80A050812E8D5
:10E9C000D540E302B20012E8726E2274F4122454AD
:10E9D0008A088B09ECFEEDFF901AD4E06004640114
:10E9E0007016901C81E06E7003A3E06F700A12EA4B
:10E9F0001B6005EA24088016EEFCEFFDAA08AB09AF
:10EA000012436E8B09A909EA496009EA240DFAE468
:10EA100039FB80047A007B0002A8DC123B468B0B9A
:10EA2000A90BEA492274F4122454EAFEEBFF8C0A83
:10EA30008D0B750800750900802BE50975F017A48A
:10EA4000F8A9F012EE96601BE50912EEA37003A37D
:10EA5000E06F700375080AAC0AAD0B12ED9260030B
:10EA60004308A00509904E90E493F8E509C3985037
:10EA700004E50860C502C1D174F412245474F8127C
:10EA80002A9C750800806BAA087B00123B648A0AE6
:10EA90008B0BAE0AAF0BEA4F60568A828B83A3A31F
:10EAA000A3A3E0640160498A828B83A3A3A3A3E0AC
:10EAB0006402603CEA2407F582E43F12EB8D50309B
:10EAC0008A828B83A3A3A3A3A3A3A3A3A3A3E412D8
:10EAD000B2DC12CC1712EB86AC18AD198E828F8384
:10EAE00012D76F123ACEAA18AB19123B58123660E1
:10EAF0000508904EA412E8D8408D7E00804DEE753A
:10EB0000F017A4F8AAF0EAF912EEB77003A3E0F444
:10EB10006038744328F8740839F9E812EB6D39123B
:10EB2000EB8D5026EE75F017A4F8EAF9744328F837
:10EB3000740839F9E812EB73E4F0E8240EF582E486
:10EB400039F583E412EB9C123DDA0E12E86440AE14
:10EB50007A00EA75F003A4F8A9F012EB7A600214C7
:10EB6000F00AEAC3940340EA740802A8D9240CF519
:10EB700082E42212E35D39F5832274ED28F5827474
:10EB80001C39F583E02212B0EB123DDA22F583E066
:10EB9000F8740128F0901CC3E0C3982212F3CEFA57
:10EBA000A3E0FB2274F01224548A0E8B0F8C0A8D82
:10EBB0000B750C00780079017EFE7FFF7410122C1B
:10EBC0008A12E46D80111232D6E50CF5F0EA84E584
:10EBD000F0F8750C0079007C00800B74432AF582F4
:10EBE000740812E0C40C904E90E493FAECC39A506F
:10EBF0006AEC75F017A4FAADF0EDFB12CFE764FEF6
:10EC00007003A3E0F460DE12CFE7650E7004A3E0AA
:10EC1000650F60D112CFE7650A7004A3E0650B6051
:10EC2000C412CFE765087004A3E0650960B77451AA
:10EC30002AF582740812CFEE60ABC3940850A6E0A8
:10EC400064076097E9050C709CE50CC3984096ED4D
:10EC5000F974432AF582740802ED15901AD4E06025
:10EC6000076401600302ED1D7C00800712ED49126C
:10EC7000E0C40C904EA4E493FAECC39A400302ED76
:10EC80001DEC75F01CA4FAADF0EDFB12ED4912CFAE
:10EC9000EE64FE7003A3E0F460D812ED4912CFEEEB
:10ECA000650E7004A3E0650F60C812ED4912CFEE47
:10ECB000650A7004A3E0650B60B812ED4912CFEE4F
:10ECC00065087004A3E0650960A874162AF58274CB
:10ECD0000712CFEE609CC39408509774112AF582F6
:10ECE000740712CFEE64016089E0640260847416D8
:10ECF0002AF582740712CFEE6407700302EC6CE908
:10ED0000050C600302EC72E50CC398500302EC7230
:10ED1000EDF912ED4939F58312EF4A8022E50C60D6
:10ED200011E8700E7401650C600302EBC6780102F5
:10ED3000EBD274FE6E700374FF6F6006EEFAEFFBA9
:10ED400080047AFE7BFF02D8C1740D2AF582740715
:10ED50002274F5122454EAFEEBFF8C088D09750A23
:10ED6000008002050A12E0B95025AC08AD09E50A99
:10ED700075F017A4F8A9F012ED9260E7E50A75F0B6
:10ED800017A4F8A9F0744328F582740812D4BD02C0
:10ED9000B48A744528FA740839FB12347AE922E9F6
:10EDA000F87907C3940D400479018019E8C39407EA
:10EDB00040047903800FE8C394034004790580057B
:10EDC000E8700279000229A074F01224548A0E8B94
:10EDD0000F8C0A8D0B890812EE26604712E985E533
:10EDE0000EF0A3E50F12E993E50AF0A3E50BF0E5B9
:10EDF00008600712B7A2E508800512B7A27401F0F7
:10EE0000901CC8E06401700612EE34E4800512EE36
:10EE100034740712EE485001097A027B0012226E08
:10EE200012EE4202D8C11243748A0C8B0DAE0CAFA5
:10EE30000DEA4F2212EE3822EE240EF582E43FF561
:10EE4000832212E738E8F022F0904E9CE493790098
:10EE50002401F82274F7122454EAFEEBFF7508002F
:10EE6000802CE50812EEA37003A3E06F601474FF1A
:10EE70006E700374FF6F701412EEB77003A3E0F4AA
:10EE8000600A12EE967005E50812E803050812E81C
:10EE9000D540CF02B200744528FA740839FB123A03
:10EEA000C2E92275F017A4F8A9F012EEBD6E22ECAB
:10EEB00075F017A4F8A9F012EEBD64FE2274432881
:10EEC000F582740839F583E022C082C0837AFF7B23
:10EED000FF1243C202C23DC082C083901D0174D4A0
:10EEE000F0A37443F0901D0374DAF0A37443F09020
:10EEF0001D0574E0F0A3744302AB2A74F712245486
:10EF0000EAF8EBF9901BEC12EF4ACA2406F582E40A
:10EF10003AF583E0702B88828B83A3A3A3A3A3A3DA
:10EF2000A3A3A3122823901BEC12EF4F122C5B8893
:10EF3000828983A3E0F9123C9074021229EE123BFD
:10EF4000D002B200851882851983E0FAA3E022E09E
:10EF5000FAA3E0F5838A8222C082C083901CCB1280
:10EF6000EF72901CCB12C9457005790112431A0249
:10EF7000C23D12F013F02274F612245474FC122ACB
:10EF80009CE9FE904E93E493700574E16E707FEA05
:10EF90002408F8E43BF98882F58312F01312F02379
:10EFA000700E901CCBE4F0A3F0790112431A805E3E
:10EFB000901ED9E06058FA901CCB12F01CE49950D6
:10EFC0004D790012431A8A088B09EA75F064A4F897
:10EFD000AAF075F064EBA42AF9901CCB12D76F123B
:10EFE0002276E8941AE99400402490188B12C945BF
:10EFF000601C901CCB12C131129F0F122C8A12F28E
:10F00000B2AA18AB1990188B12DA2A12263274049D
:10F0100002C76AE02401F0A3E034002212B8E7C37B
:10F02000EA982212F3CEF8A3E0F9E84922C082C0A0
:10F030008374F8122A9C9080F4AC18AD19740812ED
:10F04000291CAC18AD1912F06064017004790080BD
:10F05000027901740802B8B9AC18AD197A957B1C15
:10F0600012347AE922C082C083901D077470F0A325
:10F07000743BF0901D097476F0A3743BF0901EC1B0
:10F08000E0A2E05032901D0B74F8F0A37443F090AE
:10F090001D0D74FEF0A37443F0901D0F7404F0A3D3
:10F0A0007444F0901D11740AF0A37444F0901D1381
:10F0B00074F2F0A37443F0901D0B12C94560061260
:10F0C000C69512263202C23D74F412245474E6121C
:10F0D0002A9C8A088B097404122C8A7402F0041288
:10F0E0002A5E1242788A0A8B0BAE0AAF0BEA4F7087
:10F0F0000302F24712A8C93F12F2607404F0A3742D
:10F1000060F0EA12AD9E12D0668E828F8312F2B04A
:10F11000EE241412B7B27012901C60E0C0E012B777
:10F1200098D0E0F0901C60E004F012F25770169056
:10F130001AB0E0600D901C6BE0700A8E828F83E045
:10F14000700312CBFCAC18AD19EEFAEFFB1241D0F4
:10F150008A088B09EA4B700302F2407A217B001285
:10F16000337E7406122C8A12D3787406122C8A12FB
:10F17000C945700302F2397C217D007900740612C2
:10F180002C8AE0FA1232C47401122A5E79501239C4
:10F19000A27401122C8A12CDC27406122C8A12EFAC
:10F1A0004ACA2409F582E43A12CF17901C7412CD92
:10F1B000C27417122C8A12CF197406122C8A12F2FA
:10F1C000887406122C8A12F28212F2A67406122C8D
:10F1D0008A12EF4F12CF197406122C8A12F295126E
:10F1E000D3C3C0E07406122C8A12F278D0E0F0EE9D
:10F1F000240E12F24CF583E0C0E07406122C8A1241
:10F20000F26AD0E0F07406122C8A12BA6512F2B2D9
:10F21000EE240F12CDBC740C122C8A12F29EE0C0A8
:10F22000E0740E122C8AD0E0F07406122A5E1241AD
:10F23000407406122C8A12ADD1AA08AB091233848D
:10F24000EEFAEFFB123384741A02A8D9F8E43FF9FE
:10F25000E8FAE9FB888222EE2411129B2464012241
:10F26000F58312C1318882F5832212F26E2212DCFC
:10F270005D12EB6D38F5832212DC5912B8C638F5F1
:10F28000832212AEB474022212DC5912E72E38F532
:10F29000837402F02212B0A97401F0A3E42212CF09
:10F2A0001D8A828B832212E532F8A3E0F922A3A300
:10F2B000A3A3E508F0A3E509F02274F61224547E16
:10F2C0000080167C047D0079FFEEF5088D0974023C
:10F2D0007808122BB112F5810E904E8F12E867401C
:10F2E000E202C76D74F412245474F7122A9C750854
:10F2F00000804BE508F50A750B007402780A122BA2
:10F30000B112F3A8EE12F3B324FFF0A3E034FF121E
:10F31000F3CAF8A3E0F97A0A7B00122276EA4B706E
:10F320001B7408122C8A12F3D9122BB1740D250A02
:10F33000F582740B350B12F3BC12F4F30508904EF2
:10F340008F12E8D8505FE508F50A750B0074027853
:10F350000A122BB1740D250AF582740B12E366F4C0
:10F360007003A3E0F460D5E508F50A750B0074029C
:10F37000780A122BB112F4C912C943600302F2F3E6
:10F380007408122C8A12F3D9122BB112F3A88E82B0
:10F3900012F3BC12F5977C047D0079FFEEFAEFFBC7
:10F3A0001232C4809702A8D7740D250AFE740B355B
:10F3B0000BFF2212A9A48882F583E022F58312CFE5
:10F3C00004E8F0A3E922A3A3A3A312F3CE2212F32D
:10F3D000D3E022F088828983227402F0E508F50ADE
:10F3E000750B007402780A2274F012245474F71218
:10F3F0002A9C8A0E8B0F7EFF7408122C8A740212CC
:10F40000DC63EAF0A3EB12F4F3E9641A700302F48C
:10F41000C579007419122C8A7808122C338008746C
:10F42000FF6E7002E9FE09904E8FE493F8E9C398ED
:10F430005058E9F50C750D007402780C122BB1745C
:10F440000D250CF582740B12F4DBE0F47003A3E0DD
:10F45000F460CCE9F50C750D007402780C122BB138
:10F46000740D250CF582740B12F4DBE0650E70044C
:10F47000A3E0650F70B0E9F50A750B007402780A15
:10F48000122BB112F4C9F583802EE49369702C74A9
:10F49000FF6E602EEEF50C750D007402780C122BC9
:10F4A000B1740D250CF8740B350DF98882F583E5E0
:10F4B0000EF0A3E50F12F4ED12F2B2790174090215
:10F4C000D8BE12F4DF790080F4740F250AF5827437
:10F4D0000B350B22E50C2412F582E412C0C42290F5
:10F4E0001C8112AEA6AA18AB191239DE2212F3D370
:10F4F000A3A32212F59E1239D82274F61224547452
:10F50000F7122A9CEAFEEBFF7A0080010A904E8FE8
:10F51000E493F8EAC3985064EAF5087509007402A8
:10F520007808122BB1740D2508F582740B12CB2EBE
:10F53000E0F47003A3E0F460D3EAF5087509007401
:10F54000027808122BB1740D2508F582740B12CBCA
:10F550002EE06E7003A3E06F70B27C047D0079FF33
:10F56000EAF5088D0974027808122BB112F581743E
:10F5700008122C8A740212F58F12F597740902C7CB
:10F580006A740D2508FA740B3509FB1232C4221275
:10F59000DC67EEF0A3EF2212F59E1239DE22F09026
:10F5A0001C8112AEAAAA18AB192274F0122454744A
:10F5B000FE122A9C12D3728C0A8D0B7508008518D6
:10F5C00082851983E06C7003A3E06D601785188253
:10F5D000851983E0FA1233FC8A0C8B0DAE0CAF0D4B
:10F5E000EA4F700675080102F679AA0AAB0B1233CE
:10F5F000FC8A0C8B0DAC0CAD0DEA4D6007AA0AAB72
:10F600000B12340EE4F50CF50D780C1229C0EEFC4B
:10F61000EFFDAA0AAB0B1233F674021229EEE96071
:10F6200058EEFAEFFB12F67E604C780E1229C08E6F
:10F630000C8F0D780C1229C07C007D007404122CF4
:10F640008A12D76F12340874041229EEE9701B78FD
:10F650000E1229C0780C1229C07C007D00AA0AABCA
:10F660000B12C7C41229EEE96003750801AA0EAB9C
:10F670000F1233848003750810A90802DA1F1233B1
:10F680007E8A0E8B0FEA4B22C082C0839006DCE498
:10F69000F09006EAF09006E0F0A3F09006DB12FF8F
:10F6A0008B12FB6B9006EBF09006ECF09006ED02EF
:10F6B000FD4FC082C083906194740512FB5475E9BC
:10F6C000FBE8A2E792AF9061A3E0D2E202FD4FC057
:10F6D00082C08312302A9006DCE4F0F912300C026A
:10F6E000FD50C082C0839006EC7401F09006EBE000
:10F6F000700312F78002FD50C082C0839061A4E0C5
:10F70000C2E0F09061947405F075E1ED75E1EDA84B
:10F71000A8C2AF759B0075E9FBE8A2E792AF90061F
:10F72000E0E0F8A3E0F9E84960077AE07B061245DB
:10F730001E9006DE74CAF0A3742FF09006DBE07012
:10F74000069006DDE0600C9006DBE4F09006DDF04C
:10F75000122FF402FD50C082C0839006ECE0701DB1
:10F760009006EB7401F09006DE12FE6012263290D5
:10F7700006EBE4F09006ECE0600312F78002FD5027
:10F78000122FBE9006ECE4F02274F112245474FEA1
:10F79000122A9C750A009006DBE06003122D2A9065
:10F7A00006DB7481F09006EEE0600D906193E0A2BC
:10F7B000E74010E0A2E6400B9006DBE4F0122FF4E5
:10F7C00002FB12122E8C12FB659006DCE09006E91B
:10F7D000F079047AE27B06122F1C9006E2E0547F57
:10F7E00024FD9006E6F0C3947D400302F90D9006D7
:10F7F000E3E05407C39404400302F90DE0540764A6
:10F8000002600302F8A69006EAE0600302F8A67917
:10F8100002AA18AB19122F1CA2AFE433F508C2AF2D
:10F820009006F0E064867076901D5BE0F8A3E0F946
:10F83000E8497003122D2A851882851983E024B7C0
:10F84000FE7401122C8AE0547FFFFAEEF9122F9A0F
:10F85000901D5B12FCA02415F582E438F583E912B3
:10F86000FB5D2416F582E438F583EF12FB5D241767
:10F87000F582E438F583EEF0E508A2E092AF74017A
:10F88000122C8AE0A2E750119006E3E05410FA909F
:10F8900006E5E0F9123084807A12308A8075E50836
:10F8A000A2E092AF806D9006F0E0648670031230A3
:10F8B0008A9006E9E0602F9006EAE070299006E958
:10F8C000E06401700302F94EE06402700A9006E3FE
:10F8D000E054077079800FE06403700A9006E3E05B
:10F8E0005407640370689006E4E0F81313543F541F
:10F8F00003F508E8C413135403F509900667E07094
:10F900001874016509600674016508700C75E1EDF5
:10F9100075E1ED122FE802FB12A80912FB2BFAA8E1
:10F920000812FB2B2AFEE509600A9006E3E0A2E636
:10F9300050021E1E9006E6E0FAEE79002402F8500E
:10F940000109C3EA98E499A2D265D0335006122F78
:10F95000FA02FB12E0C39E24FE9006E812FB7250EE
:10F9600003750A259006E8E0F8E50A28F8E4340073
:10F97000F9E8243AFAE439FB1245189006E012FC43
:10F98000C6F9EA49700575E1E880C37F009006EA90
:10F99000E0700A9006E3E054209006DDF09006DD6A
:10F9A000E0604DA2AFE433F50AC2AF9006E3E05445
:10F9B000076403701D124512E9600302FAEC900619
:10F9C0005DE0700302FAE3122DFCE964FE700302AD
:10F9D000FAEC90618AE0C2E212FB547591FEE8A253
:10F9E000E792AF9061A4E0D2E0F0E50AA2E092AF26
:10F9F00012FE6DF5838A82A3A3E8F0A3E912FE8EBE
:10FA000012FB1C9006E8E0C0E012FB49D0E0F012C7
:10FA1000FB49E0C0E09006E112FB3ED0E012FB7231
:10FA2000503212FB387403F0750CE3750D06750E39
:10FA300000780C1229BC12FB38E0FC7D0012FD3F5F
:10FA40001232B874031229EE9006E0E0243312FE5D
:10FA50008112FCB412FC9D241BF582E438F583E589
:10FA60000912FE9C2424F582E438F583E508F0129F
:10FA70002EDA8A088B098C0A8D0B12FC9D2425F541
:10FA800082E438F5837808122C24122ECE8A0812CC
:10FA9000FE94CA2429F582E43AF583E50812FCC7EE
:10FAA0009006E3E05407C0E012FB49A3D0E0F090D9
:10FAB00006E5E0C0E012FC9D2432F582E438F583CF
:10FAC000D0E0F09006E3E05478F8A3E0C4540F547B
:10FAD00003484FC0E012FCA4D0E0F0EE701912FC15
:10FAE000CC802F12450CE9700302F9D27F0490619B
:10FAF0008AE0D2E202F9D89006E712FB729006E79C
:10FB0000E0400114906194F09006DE74D0F0A3748C
:10FB10002FF074021229EE7F070226D1CA2433F592
:10FB200082E43AF583E8F0A3E9F022747928F582BB
:10FB3000E4344EF583E493229006E0E0F8A3E0C8B5
:10FB40002435F582E438F583229006E012FE64A3A2
:10FB5000A3A3A322F0A8A8C2AF759B0022F0901D1A
:10FB60005B12FEA4229061A4E0C2E0F09006DDE406
:10FB7000F022F09006E3E0A2E32274F6122454741B
:10FB8000EC122A9C9006E7E07003122D2A12FF71F6
:10FB9000A818A91988088909AC08AD099006E4E0FD
:10FBA0001313543F5403FE60709006E0E0242DF8D8
:10FBB000A3E03400F9851882851983E0FC740112F2
:10FBC0002C8AE0FBEC8882898312FCC788828983B7
:10FBD000E012FE93CA242BF582E43AF583E812FC86
:10FBE000C774036E70167402122C8AAC82AD8390B7
:10FBF00006E0E0241C12FC8B740A80167402122C9E
:10FC00008AE0FA7403122C8A12FC95241C12FB1F42
:10FC10007404122C8AAC82AD839006E4E0C4131302
:10FC20005403FA604C12FCA4E0A2E640258C828DBD
:10FC300083E0FEA3E0F99006E0E0FBA3E0CB242BF9
:10FC4000F582E43BF583EEF0A3E9F0EC2402FC50EE
:10FC5000010D74036A700B9006E0E0241312FC8B14
:10FC6000800F8C828D83E0FAA312FC95241312FB83
:10FC70001F12FC9D2410F582E438F583E4F012FC99
:10FC8000CC74141229EE7F020226D1FAA3E03400CC
:10FC9000FB12348022E0F9EA12FE93CA229006E0B9
:10FCA00012FEA42212FEA112FCAB222407F582E46C
:10FCB00038F58322E0FA88828983E02AFAA3E034C7
:10FCC00000FB88828983EAF0A3EBF0229006DE74C1
:10FCD000DCF0A3742FF0122FD622C082C0839006CE
:10FCE000E8E070119061947401F09006DE74E2F027
:10FCF000A3742F8016C394105006E09006E7800589
:10FD00009006E77410F0E0149061948042C082C0C5
:10FD1000839006E7E0F912FD3F122F1C9006E0E009
:10FD20002433F8A3E03400F99006E712FCB49006FF
:10FD3000E7E0F89006E8E0C398F0122FD6801112A1
:10FD4000FEA12433F582E438F58312FE97FB22F0FE
:10FD5000D083D0820229A074F61224547E00790246
:10FD60007AE27B06122F1C9006E3E05480F50970BE
:10FD70000B9006EAE06402600302FE499006DB7421
:10FD800002F01230369006E2E024B7F508A3E05402
:10FD90007FFFFAA908122F9A12FC9D242FF582E406
:10FDA00038F583E912FE9C2431F582E438F583E5C9
:10FDB0000812FE9C2430F582E438F583EFF012FE41
:10FDC0006D12FB1C9006E0E0240212FE81E0FA9026
:10FDD00006E0E0FCA3E0F5838C82A3A3A3A3E0FCF0
:10FDE000EAC39CFA95E0FB88828983E02AFAA3E0C3
:10FDF0003BFB88828983EAF0A3EB12FE9C12FCABEA
:10FE0000E0A2E250179006E012FE60A3A312FE608B
:10FE1000E06404600790618AE0C2E2F090065DE071
:10FE20006008122E02E960027E04E5094EF8900691
:10FE3000E0E0F9A3E0C92407F582E439F583E0485E
:10FE400012FE8EFB124524800A12FB657AE07B06C7
:10FE500012451E9006E0E4F0A3F012FF7E02FC863D
:10FE600012FE6422E0F8A3E0F5838882229006E087
:10FE7000E0243A12FE7722F8A3E03400F912FE944F
:10FE80002212FE77CA2435F582E43AF58322F01275
:10FE9000FE9422F89006E0E0FAA3E022F012FEA120
:10FEA000229006E0E0F8A3E0C822C082C0839061FF
:10FEB00093E0A2E6500BE0A2E7400675E1ED75E1A4
:10FEC000ED9006DBE4F09006DDE07003122FF40203
:10FED000FD50C082C0839006DDE4F09006DBE07048
:10FEE00003122FF402FD50C082C083123036122F4D
:10FEF0006A12307202FD50C082C0839006DEE06458
:10FF0000CA7004A3E0642F6003122D2A9006E6E075
:10FF10007005122FE88021C394105006E09006E788
:10FF200080059006E77410F0E014906194F090065C
:10FF3000DE7400F0A37430F002FD50C082C0837400
:10FF4000F0122A9C12FF719006E7E0F89006E6E0B6
:10FF5000C398F06011C39410500FE09006E7F014BE
:10FF6000906194F0800312FF7E74101229EE02FD5E
:10FF7000509006E7E0F9AA18AB19122F1C229061E5
:10FF800094740512FF8BF0122FE822F09006DE74B5
:10FF9000CAF0A3742F22C082C0839006EDE004F063
:10FFA000122FB802FD5074F7122454E9FE9006EAAD
:10FFB000F0700A906180E4F0E04409801374026EEE
:10FFC000600874016E6003122D2A906180E0C2E027
:10FFD000F07F010226D1C082C0831248488010C041
:10FFE00082C083123A568007C082C083123A86D0FC
:10FFF00083D0820229A0C082C083123A8C80F0FF95
:020000040001F9
:10000000C082C083790012BD1A3BF583C082C083D1
:10001000901BE712BFD3D083D082C3E09CA3E09DA6
:10002000500D12CF98FAA3E01281186002790102F4
:100030009F1A74F7122454890812B01712839CACCB
:10004000F075F00BE9A42CF9901BE9E028FEA3E081
:1000500039FF7401650860067402650870228A829F
:100060008B8312857D74026508701DEA2403FA50A3
:10007000010B123AC2E970108E828F83E4F080087F
:10008000EA1286593B1280928E828F8312810D0272
:10009000AC3CFDEE2403FAE43FFB123ABC2274F4BC
:1000A0001224548A088B09EA1284578A828B83E0CF
:1000B000604D7E007F00804212811570381284EC02
:1000C000F50AA3E039F50B850882850983E0850AE6
:1000D00082850B83129C4B128514F01286573509CA
:1000E000128102123ABC12844E850A82850B831259
:1000F000810D1285090EEE70010F12844240B90283
:10010000B360FDE50A2403FAE4350BFB22E0D2E7F5
:10011000F012362A22EEFAEFFBEA75F00BA4FAA8E9
:10012000F075F00BEBA428FB901BE9E02AF8A3E0A4
:100130003B8882F583E0540F2274F51224548A0818
:100140008B09750A01740B122C8A12850EEC4D6016
:1001500018EC12BD1B3DF58312AC081281CE79015B
:10016000123A9EEE4F6064801FEE4F603A12858611
:100170001281CEEE2403FAE43F1285757019AA08A5
:10018000AB09123AA4E9F50A8E828F8312D9577906
:1001900002EEFAEFFB800B128569702F7903AA0833
:1001A000AB09123A9E80248A828B83A3E064FE709E
:1001B00003A3E0F47006EA12856B700CAA08AB0981
:1001C000123AA4E9F50A8003750A00028CD3EA12F8
:1001D000BD1F3509129B022274F7122454901BE7AD
:1001E00012A4D4EA4B602CEA75F00BA4FAA8F075BF
:1001F000F00BEBA428FBEAFEEBFF12337E901BE929
:1002000012A4D4F9EA496012EEFCEFFD7900123233
:10021000C48007901BE9E4F0A3F002AC3CC082C0AC
:1002200083901BE912AF536013901BE912C44790EF
:100230001BE7E4F0A3F0901BE9F0A3F0029F1AC0C3
:1002400082C083EC4D600512348080097C087D00FB
:1002500079001232C4029F1AC082C0837900EA4B2F
:1002600060197800E8FCEA2CF582E412C08860048A
:100270007901780808E8C3940840E9029F1AC0820F
:10028000C0837901EC6A7002ED6B6011EA4B600B80
:10029000EC4D600712347AE9F980027900029F1A66
:1002A00074F712245474F3122A9CECFEEDFF8518A7
:1002B00082851983E4F004122C8A12A4D4AA18AB04
:1002C00019123AE67403122C8AAC82AD83EEFAEF6F
:1002D000FB123ABCEEFAEFFB123AC202AC3774F7EB
:1002E00012245474F3122A9CECFEEDFF85188285CB
:1002F0001983E4F0EAFCEBFD7403122C8A128648A1
:100300007401122C8A12AC088E828F8312ABCB74CC
:10031000FE68700374FF696004790180027900024D
:10032000AC3774F7122454EAFEEBFF12837D701190
:10033000128387F4FA88828983E05A4480F0123667
:100340002A029A7174F7122454EAFEEBFF75080032
:100350008A82F583E0602312837D701E128387FA00
:1003600088828983E05A70128E828F83E04480FAFB
:1003700088828983E04AF012362A029A71123A98EA
:10038000E9F5087401692212ACFFF812839C12840B
:10039000FAF8A3E039F98E828F83E022A3E0F9E82E
:1003A00075F00BA4F82274F41224548A088B097C8B
:1003B000007D00EA128437E508128457850882859B
:1003C0000983A3E064FE7003A3E0F460677E007F0E
:1003D00000805C1281156052EEFAEFFBEA75F00BBB
:1003E000A4FAA8F075F00BEBA428FB901BE9E02A17
:1003F000F50AA3E03BF50B85088285098312D3A893
:10040000850A82850B83A3E06A7003A3E06B701AF0
:10041000E50A1284E5700DE50A128659350BFDE5F3
:100420000812843712844E1285090EEE70010F12E5
:100430008442409F02B3602403FAE43509FB123A78
:10044000BC22901BE712B8EEC3EE9AEF9B221284F7
:1004500063EEF0A3EFF02212846574FEF0A304F0C3
:10046000790022E50812BD233509F5832274F212C2
:1004700024548A0A8B0B8A828B8312D957EA12B2D0
:10048000F912D958750800EA1284E570537E007F8E
:100490000080481284ECFAA3E0398A82F583E054A4
:1004A0000F60331284ECF50CA3E039F50DE50C1266
:1004B0008659350D12810212347AE964017017856C
:1004C0000C82850D8312851412B2F6EEF0A3EFF0C4
:1004D00075080112850B0EEE70010F12875F40B395
:1004E000A908029F0612810512857622EEF8EFF91F
:1004F0001284F422E875F00BA4F8AAF075F00BE969
:10050000A42AF9901BE9E028227901901BE7E0FE7C
:10051000A3E0FF22A3128590850A82850B83A3E8BE
:10052000F0A3E92274F5122454EAFEEBFF8A82F567
:100530008312D9577C007D00EA128094EEFAEFFB1B
:10054000123A98E9F50A740169701B1285861286C1
:10055000FA850882F58312857D12856970081286F6
:10056000573509128092028CD3E5082403FAE4354A
:100570000912857522FB123AC2E9640122A312C056
:1005800079129B0422F0EE129AFD12858E22F583D9
:10059000E0F8A3E0F92274F212245474E6122A9CC3
:1005A000EAFEEBFF12BD1A3FF58312D95875080118
:1005B000750A00750B00750C00750D008518828595
:1005C0001983E4F0EA1286593FFD7403122C8A1253
:1005D0008648E964017022740B122C8A12CD06122F
:1005E0009AF47401122C8A12C0737003A3E069603C
:1005F00049A818A919880A890B740D122C8A128629
:100600005E12AC08740E122C8A12ABCB740D122A37
:100610005E123AE6E964017009740D122A56880CDC
:10062000890D780C1229C0AC0AAD0BEEFAEFFB1263
:100630003AAA74021229EEE9F508EEFAEFFB123A33
:10064000E0A908741A029F03AA82AB83123ABCAADB
:1006500018AB19123AEC22E5082403FCE422E41258
:1006600086632212A4CAA322C082C08378007900C4
:10067000800508E8700109901BE712D3A9C3E89A26
:10068000E99B5029E8FAE9FBEA75F00BA4FAACF013
:1006900075F00BEBA42CFB901BE9E02AFCA3E03BDC
:1006A0008C82F583E0540F70C979008002790102D1
:1006B0009F1A74F61224547E007F008035EEF8EF06
:1006C000F91286FA78081229C075080B75090078A6
:1006D000081229C0EEFCEFFDEC75F00BA4FC75F0E0
:1006E0000BEDA42AFD7A231297CE1229EE0EEE709E
:1006F000010F12875F40C6028BEA1284F4F508A34B
:10070000E039F5092274F61224547E007F008047F8
:100710001284ECF8A3E0398882F583E0A2E7503236
:10072000C2E7F085820885830978081229C0750818
:100730000B75090078081229C0EEFCEFFDEC75F08E
:100740000BA4FC75F00BEDA42AFD7A231293C212C0
:1007500029EE0EEE70010F12875F40B4028BEA9013
:100760001BE7128590C3EE98EF992274F612245479
:10077000E4F508F50978081229C0901BE71293CA1E
:1007800075F00BA4FCA8F075F00BEDA428FD7A23FE
:100790001291301229EEE9FE74096E7003123B16B5
:1007A000EEF9028BEA74F612245474FF122A9C7E2E
:1007B000007F008038851882851983E412916712C2
:1007C00029C075080175090078081229C0EEFCEFF0
:1007D000FDEC75F00BA4FCA8F075F00BEDA428FD62
:1007E0007A231293C21229EE0EEE70010F12875F68
:1007F00040C37401028BE7C082C083904EA4E4938F
:1008000075F01CA4FCADF079FF7A0D7B071232C4A1
:10081000029F1A74F7122454E9FCEAFD7B007A0067
:100820008010EA128E239C4008E0F8EDC398400146
:100830000B0A12C33440EBEBFA7B0002AC3C74F0C1
:1008400012245474F2122A9CE9851882851983F0C7
:100850008A088B098C0A8D0BEC4D6016AA0AAB0B2B
:10086000123B4C8A0C8B0DAE0CAF0DEA4F600302AD
:10087000892B7A0080010A12C334500A128A2C7024
:10088000F512984880047E007F00EE4F70030289C5
:10089000E5904E7F128A0E601F851882851983E0CD
:1008A00064036005E06404700F7A047903128A041B
:1008B000904E7F128A185027904E7D128A0E602625
:1008C000851882851983E064016005E06402701672
:1008D0007A027901128A04904E7D128A1840077AB2
:1008E000007B000289F67401122C8A7401F0041254
:1008F0002C8AE508F0A3E509F0AC0AAD0B740412EC
:100900002C8AAA82AB83123ABC7401122A5E123A74
:10091000F8740C122C8A12A1F48E828F83A3A3A3E5
:10092000A3A3A3E4F012CF87124380780085188236
:10093000851983E06007C39405500278048E828F86
:1009400083E508F0A3E50912C97C12B470E88E8231
:100950008F83A3A3A3A3A312C33E5001097A027BF2
:100960000012226E1297FBA312BFB1129851851884
:1009700082851983E06067C394035062901EC2E0D1
:100980007021904D7F7808122B2C1297D6122C24B0
:10099000904D7F7808122B2CEE24131297D9122C2D
:1009A000248031F50875090074027808122BB11201
:1009B0008FE5122B2C9081457808122C33780C7916
:1009C00008122365128A00780C122C2412A1DA78FE
:1009D0000C122C241289F93FF58374018006128AC7
:1009E000001297E2F01297B14005901EDCE4F0127D
:1009F0004242EEFAEFFB02BB43EE241BF582E422F7
:100A000012982722123B22904EA4E493FC22E493F6
:100A1000F8740193F9E84922E493F8740193F9EC2E
:100A2000C398F8E499F9C3EA98EB9922EA128A325A
:100A3000F42275F01CA4F8A9F0741128F58274074B
:100A400039F583E02274F012245474EF122A9C12B8
:100A50008B75122C8AECF0A3EDF07E007402122C40
:100A60008A12D3A9123B4CEA4B7003028B588A823C
:100A70008B8312A509E0687003A3E0697003028B01
:100A8000588A828B83A3A3A3A3E0C39405400302E7
:100A90008B58128B8312D545E060708A828B83A3BA
:100AA000A3A3A3E0C394035062901EC2E0702290FF
:100AB0004D7F7808122B2C128B6D7808122C249005
:100AC0004D7F7808122B2C128B5F7808122C248013
:100AD00030F5088E0974027808122BB1128FE512D6
:100AE0002B2C9081457808122C33780C790812232E
:100AF00065128B6D780C122C24128B5F780C122CE3
:100B000024EA1289FA3BF583E4800DEA2417128B5C
:100B100091F0EA2413128B91F0EA240CF582E43B65
:100B2000F583E4F0A3F0A3F0A3F07404122C8A126E
:100B3000ABFF7405122C8A12ABCB7402122C8A12F2
:100B4000BFD37407122C8AAA82AB83123ABC7404F6
:100B5000122A5E123AF87E01EEF9741102BB4512B8
:100B60008B663BF58322EA2413F582E422EA12B273
:100B7000D13BF58322851882851983EAF0A3EBF037
:100B80007402228518828519831285908A828B834C
:100B900022F582E43B1297EF2274F6122454128B52
:100BA000DD60148A828B83A3A3A3A3E06009C394AE
:100BB000055004790180027900802F74F6122454C4
:100BC000128BDD60148A828B83A3A3A3A3E0600948
:100BD000C394035004790180027900800D123B46D2
:100BE0008B09A909EA49221229EE7F020226D17453
:100BF000F6122454123B468A828B83E58245836039
:100C00000BA3A3A3A3E0700479018002790080DA2A
:100C1000C082C083EAFCEBFD7A007B00029F17C014
:100C200082C0837C007D00029F1774F512245474E7
:100C3000F3122A9C8A088B09ECFEEDFFC3EC94F8B2
:100C4000ED94FF4004EA4B6066750A00801774FF5C
:100C50006E700374FF6F600B12DB116E7003A3E004
:100C60006F6039050A904EA4E493F8E50AC39850E2
:100C70003EE50A128A2D60EBE508450960D0128C2A
:100C8000BA122C8A128ED760DA7403122C8AAC82C4
:100C9000AD83AA08AB0912347AE960C7E50A75F09A
:100CA0001CA4F8A9F0740D28FA740739FB80047AA3
:100CB000007B00740D1229EE801B85188285198334
:100CC0007401F0740F28F582740739F5831285904A
:100CD000740B22A90A7F030226D174F412245474DF
:100CE000F3122A9C750800123B4C8A0A8B0BAF0B3F
:100CF000EA4F6027851882851983740112A45D125A
:100D00008CCD122C8A12A67F123ADA7C1C7D0079D7
:100D1000FFAA0AEFFB1232C47508017A04790012A7
:100D20003B228A0A904EA4E493FAC3E50A9AEB9414
:100D3000005009901EDC7401F0124242A908740DA3
:100D400002B35D74F4122454EAFEEBFF7508007AD6
:100D5000007B007C00800EEC128DDB6007C39403E7
:100D6000500205080C128DD140EDE508605625E0D3
:100D7000FAE433FB12337EEA4B6049EAF8EBF97C84
:100D800000904EA4E493FDECC39D503BEC75F01C29
:100D9000A4F50AE5F0F50B7411250AF58274071223
:100DA000B302E0601CC394035017740D250AF5824A
:100DB0007407350B128DE68882898312C7DD5001D6
:100DC000090C80BD7508008E828F83E508F002B3A0
:100DD00060904EA4E493F8ECC3982275F01CA4F83C
:100DE000A9F0128A3922F583E0F50AA3E0F50B2277
:100DF000C082C0837C008009EA24FF1AEB34FFFB29
:100E00000C128DD15016EC128E23940550F2EA4B41
:100E100070E6740D28FA740739FB80047A007B00B1
:100E2000029F1A128A32C32274F712245474F312E6
:100E30002A9C7E00807FEF75F017A4F8A9F012DAE3
:100E4000DC12AC08EE75F01CA4FAABF0740D2AF5B8
:100E500082740712C088687003A3E0696037EF7579
:100E6000F017A4F8AAF0EA128EE3122C8AE0687058
:100E700003A3E069601FEF75F017A4F8EAF9744561
:100E800028FC740839FD7403122C8AAA82AB8312E1
:100E9000347AE96013EF75F017A4F8A9F0744328C9
:100EA000FA740839FB12438C0F904E90E493F8EFDC
:100EB000C39840820E12D689501A12DB09F47003CF
:100EC000A3E0F460EF128CBA122C8A128ED760E481
:100ED0007F0080D502AC37129B04AA18AB19123AD6
:100EE000F2E922F912DAD43912858E74012274F0F3
:100EF00012245474F3122A9C7E0080389081317839
:100F000008122C33EE75F01CA4F8A9F0742028F513
:100F100082740739F5837808122AC76016908121F8
:100F20007808122C33EE75F01CA4F8128FF07808B4
:100F3000122B190E12D6894003028FE0EE128DDBC0
:100F400060F1C3940350EC128FF0122C67E8494A09
:100F50004B70A9901EC1E0A2E05057901D0F12AF38
:100F600053604F901EC3E0700A904D7F780C122B97
:100F70002C8021F50875090074027808122BB11233
:100F80008FE5122B2C9081457808122C33780C7940
:100F900008122365780C1229B8EE75F01CA4F8A984
:100FA000F012DAF439F5831290CA12263274041260
:100FB00029EEEE75F01CA4F8A9F0128CC3122C8A4D
:100FC00012C978740112A683123AF2E97003028FF3
:100FD000337403122C8AAA82AB83123B58028F33DC
:100FE000740D02BB4512D5DF744D128468780C2253
:100FF000742428F582740739F5832274F612245478
:10100000123B468A088B09AC08AD09EA4D60318A6B
:10101000828B83A3A3A3A3E06022C39403501D1279
:101020008B663DF583122C67EC12B2CD3DF5831231
:101030002C73EC1289FA3DF5837401F0790180027A
:101040007900028BEA74F0122454EAFEEBFF901D43
:101050000912AF53606B901D0F12AF536063901D68
:101060001312AF53605B12D3C0122632E970529054
:101070001EC3E0700A904D7F780C122B2C8021F556
:101080000875090074027808122BB1128FE5122B33
:101090002C9081457808122C33780C79081223653E
:1010A000780C1229B81290C412263274041229EE58
:1010B000E96401700C8E828F83A3A312D3AD122634
:1010C0003202BB488E828F83A3A312B8EE901D0F0D
:1010D00012D3B72274F6122454E4F508F5097808FF
:1010E0001229C0904EA4E493F50874037808122BDB
:1010F000B1E5082402FCE43509FD12912E1229EE17
:10110000E9FE740A6E6021E4F508F50978081229F1
:10111000C0904EA4E49375F005A4FCADF07A3F12A4
:1011200091301229EEEE6003123B880287A07A22EA
:101130007B001233F674022274F612245474FE12E9
:101140002A9C851882851983E4F0A31291671229DD
:10115000C075080275090078081229C01293BC12E4
:1011600029EE7402028BE7F0A818A91988088909EA
:1011700078082274F012245474DC122A9C7406122B
:101180002C8A12A4D48C0E8D0F7508007A22129529
:1011900029AE0AAF0B129527EE4F6015E50E6E7063
:1011A00003E50F6F600BEEFCEFFD7A227B0012343B
:1011B0000E7436122C8A12850EE50A450B6015EE68
:1011C000650A7003EF650B600BAC0AAD0B7A3F7BD1
:1011D0000012340EE4F50AF50B780A1229C0AC0EA1
:1011E000AD0F12912E1229EEE9640A70030293B238
:1011F000780A1229C0EEFCEFFD7A3F1291301229D5
:10120000EEE9640A70030293B27404122A56880A43
:10121000890B780A1229C0750A02750B00780A1228
:1012200029C07C007D007A017B031297D01229EE41
:10123000E960030293B2851882851983E4F0A3F074
:101240007E0002932F7408122A56880A890B780AA6
:101250001229C0750A08750B00780A1229C0EEF52C
:101260000A7403780A122BB112992F7A017B0312A8
:1012700097D01229EEE960030293B2740A122C8A05
:10128000E0F47003A3E0F4700302932E7408122AB2
:1012900056880A890B780A1229C0750A08750B004E
:1012A000780A1229C07404122C8A128DE87403780B
:1012B0000A122BB11299221229EEE960030293B2AD
:1012C0007402122A56880A890B780A1229C0750AF4
:1012D00005750B00780A1229C0EE75F005A4FCAD67
:1012E000F07A027B031297D01229EEE9703D740266
:1012F000122A56880A890B780A1229C0750A0575C0
:101300000B00780A1229C07404122C8A1293CA7531
:10131000F005A4FCA8F075F005EDA428FD7A3F12B5
:1013200093C21229EEE960030293B21293CF0E85A5
:101330001882851983C082C083904EA4E493F8D0AC
:1013400083D082C3E098A3E0940050218518828561
:101350001983C082C0837404122C8A12AC08D08313
:10136000D082C3E098A3E0995003029245A818A93F
:1013700019880A890B780A1229C0750A02750B00B0
:10138000780A1229C01293BC1229EEE9702474065F
:10139000122C8A12BFD37A017B0312340EE9701229
:1013A0007434122C8A12BFD37A027B0312340EE9F2
:1013B0006003750801A908742402BB457C007D0008
:1013C0007A227B0012340274042212D85DEC22854A
:1013D0001882851983E02401F0A3E03400F0227420
:1013E000F112245474FA122A9C750E007404122C03
:1013F0008AE4F0A3F0904EA493FAF50875090074FE
:10140000037808122BB1E5082402FEE43509FFEA4F
:1014100075F005A4FA7402122C8AEAF0A3E5F0F044
:101420007A227B001233FC8A088B091295277404F8
:10143000122A56880C890D780C1229C0750C027579
:101440000D00780C1229C01297C81229EE7A017B80
:10145000031233FC85188285198312A4D47A027B87
:10146000031233FC8A0C8B0DA80CA90D85188285FC
:10147000198312AFC9700AEE65087003EF65097031
:101480002BE84970107402122C8AE0650A7004A3DC
:10149000E0650B7017EA4B7003029520E5084509DB
:1014A000604D7404122C8A12AFC960437C017D0325
:1014B0007A227B00124410E9F8F50E70637C027DFD
:1014C000037A3F7B00124410E9F8F50E7052AC0825
:1014D000AD097A227B0012340EE9700EAC0AAD0B16
:1014E0007A3F7B0012340EE96016750E018031855B
:1014F000188285198312D745E8496004880A890B48
:101500007402122C8A122823780A1229C0EEFCEFEA
:10151000FDAA08AB09123B8E74041229EEE9F50E00
:10152000A90E740602B4797A3F7B001233FC8A0A52
:101530008B0B2274F012245474CD122A9C74011265
:101540002C8AE4F0A3F0123B94E960030297A5749F
:1015500001122A568808890978081229C0750802DC
:1015600075090078081229C01297C81229EEE9609F
:10157000030297A5904EA4E493FA7401122C8A12E8
:10158000AC08C3EA98E49950030297A57403122C9F
:101590008AE4F0A312C97C803912983C7406122C9C
:1015A0008A7808122C331297D6122C24EE241312A8
:1015B00097D9122C241289F93FF583E4F01297B1E0
:1015C0004005901EDCE4F0124242851882851983A2
:1015D000E004F0904EA4E493F8851882851983E026
:1015E000C39840030297A57403122C8AC082C0835B
:1015F0007401122C8A12AC08D083D082C3E098A365
:10160000E09940030297A57417122A5688088909A1
:1016100078081229C075080875090078081229C0D1
:101620007404122C8AE0F50874037808122BB1E5D3
:10163000082402FCE43509FD1297CC1229EEE9706A
:10164000897419122C8AE0F47003A3E0F470030289
:1016500095CA7403122C8A1293D5740A122C8A74B8
:1016600001F07419122C8A12AC087415122C8A120B
:10167000ABCB740A122A5E123AF2E970030295CAE1
:1016800012BFD07417122C8A12D3A9124380851866
:101690008285198312983C7417122A568808890982
:1016A000750A0078081229BC7C087D00EEFAEFFB71
:1016B0001232B874031229EE12C3435001097A02A0
:1016C0007B0012226E1297FB1298517405122A5653
:1016D0008808890978081229C075080575090078F5
:1016E000081229C07404122C8AE075F005A4FCAD20
:1016F000F07A3F1297CE1229EEE960030295BD9071
:1017000081217808122C337406122C8A7808122A48
:10171000C78518828519836003029599129835AAA6
:10172000F0EAF9128DE26074C39403506F901EC208
:10173000E0701B129848904D7F7808122B2C12975E
:10174000D6122C24904D7F7808122B2C8035F5086A
:1017500075090074027808122BB112D5DF744D128E
:10176000B1337808122B2C908145780C122C3378E9
:1017700008790C12236512982FEAF912982078083C
:10178000122C24EE24131297D9122C2412982FA96C
:10179000F0742828F5827407390295B9129820123E
:1017A00097E20295BC7401122C8AE0F9743302BBF3
:1017B000457A047900123B228A08904EA4E493FAF9
:1017C000C3E5089AEB9400227C007D007A227B001E
:1017D000123408740422EE2417F582E43FF583786E
:1017E00008221297F1F0EE128B673F1297EF22F565
:1017F0008374FEF0A304F0A3F0A322E88E828F830B
:10180000A3A3A3A3A3A3A3A312ABE9740112ABE9FF
:10181000A374AAF0EE2410F582E43FF583E4F022ED
:1018200012984812982722EE12B2D13FF5832285F2
:101830001882851983E075F01CA4F822E075F01C6D
:10184000A4F8A9F012984822740D28FE740739FFF5
:1018500022A3F0129AFCF583E4F0EE240CF582E466
:101860003FF583E4F0A3F0A3F0A3F02274F2122476
:101870005474FE122A9C851882851983E4F0A3F023
:101880007508008072E50875F01CA4F8A9F0740DC5
:1018900028F50C740739F50DAE08780C1229C075BF
:1018A0000A08750B00780A1229C08E0A7403780A98
:1018B000122BB11299221229EEE50C2412F50AE43A
:1018C000350DF50B780A1229C0750A05750B0078DD
:1018D0000A1229C0EE75F005A4FCADF07A3F129310
:1018E000C21229EE850C82850D83A3A3A3A3E0F485
:1018F00060031293CF0508904EA412BF864086A8BD
:1019000018A9198808890978081229C0750802756C
:10191000090078081229C01293BC1229EE74020241
:101920009F0312992F7A227B00123402740422E55D
:101930000A2402FCE4350BFD2274F212245474F3E1
:10194000122A9CEAFEEBFF7A027901123B22EA8E10
:10195000828F83F06062F5087509007403780812BD
:101960002BB1AA08AB0912AE6F6053AE08AF097570
:101970000A00904EA4E493F8E50AC3985040E50AA3
:1019800075F01CA4F8A9F012DB036005E064027096
:1019900023128CBA122C8A128ED760187403122C60
:1019A0008AAC82AD83EEFAEFFB1234808A0C8B0D89
:1019B000AE0CAF0D050A80BA750800750900AA08BB
:1019C000AB09740D029F03C082C0831299EF901B74
:1019D000F7744EF0A3743CF0029F1AC082C083904B
:1019E0001BF7744EF0A3743CF01299EF029F1A900B
:1019F0001BF374ECF0A37440F0901BF574E6F0A3B5
:101A00007440F02274F7122454EAFEEBFF901C831A
:101A1000E06408601DE0640460188A828B83E054EF
:101A20000364017042EA12ACFBF812B8CAE0640623
:101A300070358A828B83A3A3E064FE7003A3E0F475
:101A400060258A828B83A3A312C7F47003A3E06985
:101A50007008EA241512BFA560051241BE8003126A
:101A600041C4E9F50880037508C2EEFAEFFB1233B2
:101A700084A90802AC3C74F41224548A088B09121D
:101A8000CD02FAE82AFAE43400FB12337E8A0A8B8C
:101A90000BAE0AAF0BEA4F6054850882850983E0DC
:101AA000FC7D0079001232C48E828F83A312D95735
:101AB0001241FA8E828F8312A4D085088285098311
:101AC000E0F8EE28F8E43F129AF48508828509834D
:101AD000A3E0C0E012C32AD0E0F012420C12C320EF
:101AE000E912CE08E0C0E012A1D0D0E0F0EEFAEFAB
:101AF000FB02B360F9129AFC129B0222EE12BD2384
:101B00003F22F583E8F0A3E9F02274F41224547420
:101B1000E8122A9C8A088B098C0A8D0BE9FE901C1E
:101B200083E064046005E06408700479C28048A31F
:101B30007808122C24E9901C8A129C5385188285FF
:101B400019837808122C247405122C8AEEF0740480
:101B5000122C8A7401F07407122C8AE4F0901C8312
:101B60007402F0901AD4E064027005901EC1E4F093
:101B7000AA18AB191239BA02B35B74F41224547464
:101B8000E8122A9CEAFEEBFF901BEC12AF536003B5
:101B9000029C467A077B0012337E901BEC12A4D481
:101BA000F9EA497003029C428E828F83122C67905F
:101BB0001BEC12D57E122C73EE2404F50AE43FF5DB
:101BC0000B850A82F583E0C0E0901BEC12ADBCA34C
:101BD000A3A3A3D0E0F0EE2405F508E43FF50985C2
:101BE0000882F583E0C0E0901BEC12B8D8D0E01278
:101BF000ABCFC0E0901BEC12CD06C82406F582E402
:101C000038F583D0E0129C538E828F83122C678527
:101C10001882851983122C73850A82850B83E0C094
:101C2000E07405122C8AD0E0129C4BE0C0E07404F2
:101C3000122C8AD0E0F07407122C8A129DE0E9F988
:101C4000800679108002790102B35BF085088285F5
:101C5000098322F07C187D007900AA18AB19123292
:101C6000C422C082C083901BEC12AF53600D901B46
:101C7000EC12C447901BECE4F0A3F012411C124399
:101C800032029F1A74F012245474E8122A9C8A0AB1
:101C90008B0B8C088D09890C7E007F00742F122C11
:101CA0008AE060267430122C8A12AC08800B123243
:101CB000D68A0E8B0FA80EA90FC3E894F8E994FFFB
:101CC00050ECE84960E8E8FEE9FF742C122C8AE049
:101CD000FC742D122C8AE0FD740F6C7005740F6D6E
:101CE0006012901EBAE064026005ECC39D50057955
:101CF000C1029DDB7428122C8A122C67901C84125E
:101D00002C73E50C901C8AF0EC901C88F0EDA3F08D
:101D1000742E122C8AE0901C8BF074FF650A7004FC
:101D200074FF650B7024901ED5E0F47003A3E0F4FB
:101D3000700C1232D6901C81EAF0A3EB8015901E35
:101D4000D512D225E8F0A3E98009901C81E50AF0BC
:101D5000A3E50BF0E50845096017AA08AB09124393
:101D6000E6E96401700BAC08AD097A957B1C12346E
:101D7000807A957B1C1243E6E970097A957B1C7981
:101D8000E21239A2901C74EEF0A3EFF0901C77E4FD
:101D9000F0A3F0901C94F0901EBAE06402700890DA
:101DA0001C88740FF0A3F0901C837405129C53746C
:101DB00004122C8AE4F0901C84122C67851882850A
:101DC0001983122C73901C8AE0C0E07405122C8ACF
:101DD000D0E0F07407122C8A129DE0741802BB4503
:101DE000E4F0AA18AB191239BA2274F7122454E994
:101DF000901BF2F07A807B0012A015123BE879006C
:101E000002AC3CC082C083901BF2E07003123786A4
:101E1000123BE8029F1A74F0122454901BF2E090D7
:101E20001BEB7008E4F0F91235EE803B7401F09082
:101E30001BF2E0F91235EE901BF2E0F46029E0F5B8
:101E40000CE4F50DF50EF50FF09081957808122C45
:101E500033780C7908122365780C1229B87A807BC4
:101E60000012A0221229EE7AEB7B1B79411239A8CD
:101E700002BB4874F71224547CFE7DFF123BF4022F
:101E8000AC3C74F21224548A088B09ECFEEDFF89F5
:101E90000A901C83E064087066123B4CEA4B6004B5
:101EA00079C5805D74FE6E700374FF6F701E7402DE
:101EB000550AF9123D268A0C8B0DAE0CAF0D74FE3F
:101EC0006E700374FF6F700479C78035E50AA2E174
:101ED000500CA2E350047904800E7903800AA2E337
:101EE0005004790280027901AC08AD09EEFAEFFBEB
:101EF000123B28EA4B600479008006791080027951
:101F0000C280031229EE7F060226D1C082C08390D0
:101F10001C837401F08003123B52D083D0820229CB
:101F2000A074F012245474E3122A9C7401122C8AB7
:101F300012A4D4A3ECF0A3EDF0E9FF7E00750C0130
:101F40008E0D8E0E8E0F901C837401F07C187D0018
:101F500079007405122A5E1232C47401122C8A129E
:101F60002C677405122C8A122C73740A122C8AEFB7
:101F7000F07409122C8A7403F0740C122C8AE4F0A9
:101F80007401122C8A850C08850D09850E0A850FAF
:101F90000B7808122B8BE5084509450A450B6001B3
:101FA0000E7401780C12293D12D1F770D3AA18AB28
:101FB00019795A1239A2851882851983E0F508E447
:101FC000F509F50AF50B8E0CF50DF50EF50F7808F1
:101FD000790C122365908185780C122C337808795E
:101FE0000C122365908195780C122C337808790CAB
:101FF0001223E512A1FB12A01178081229B812A031
:102000001E1229EE7405122A5E1239BA741D02BB23
:10201000457A007B04901CCEE0F9123444227A0009
:102020007B04901CCEE0F9123438740422123C0C6C
:1020300002AC3C74F71224547C0080F174F2122438
:102040005474FD122A9CEAFEEBFF890C8C0D12BF22
:10205000D012410A8A088B09EA4B700579CA02A19D
:10206000CB8A828B83A3A3A3A3A3A3A3E064FE7064
:1020700003A3E0F4700579C302A1CB1241FA8A0AE6
:102080008B0BA80AA90B850882850983A3A3A3A3A8
:10209000A3A3A3E0687003A3E069700579C202A15D
:1020A000CB901C8112AC08850882850983E068709A
:1020B00003A3E069600985088285098312A33D9026
:1020C0001C8112D3A9124392850882850983A3A398
:1020D000A3A3A3A3A3A3A3A3E004901C9412A326E9
:1020E0007401122C8A740212B2D7AE0AAF0BEA4FF7
:1020F000700302A1C2EA1285878882F5837406F014
:10210000901C6EE088828983A3F012B2CC3F12A1AA
:10211000E2EE241AF582E43FF58312A4D412A1DA88
:10212000740112ABF47440F0A3E412A1EB12A1F419
:1021300012A1D0E50DF0EEFAEFFB123BB8E9FE601C
:102140000302A1C4901C83740912A1EB12A3339063
:102150001C76E0650C6003E50CF07A777B1C794B0C
:102160001239A87A817B1C79501239A87A767B1CA7
:1021700079E11239A87A747B1C79531239A812A11B
:10218000FB901EA412D3A9124224901EA012D3A920
:1021900012421E12D742E4F50AF50B78081229B84C
:1021A0007A0112D2431229EE12A01112D742740200
:1021B000780812293D78081229B812A01E1229EEBB
:1021C00080027E10901838E4F0EEF97403029F0349
:1021D000EE2411F582E43FF58322EE128B673FF582
:1021E0008322F5837401F01241F42212CE0CA3A3D2
:1021F000A3A3A32212C354129B0422901EA21285F1
:1022000090901BEE129B04901EA0128590901BF0E4
:10221000129B042274F612245474E5122A9C12A311
:10222000168908901C83E064046005E0640870056A
:1022300079C202A3117426122C8AE064FE7003A3F3
:10224000E0F4700579C302A3117C197D0079007454
:1022500002122A5E1232C4901C83740312A6837980
:10226000501239A87426122A5E794B1239A88518A3
:102270008285198312A33DE508901C76F07426121E
:102280002C8A12A3337425122C8AE0F509901C6E57
:1022900012A32674CE55094480C0E0741A122C8A09
:1022A000D0E0F0901AD4E060046401700B7428123E
:1022B0002C8AE004901C94F07417122C8A7402F09B
:1022C0007426122C8A12AC08740F122C8AE8F0A320
:1022D000E912AC017418122C8A12ABCB740D122CBB
:1022E0008AE508F0740A122C8AE4F0901C89740FB5
:1022F000F07A897B1C79541239A8901C88740FF0ED
:102300007A887B1C79471239A87402122A5E123926
:10231000AE741B028BE7851882851983ECF0A3ED60
:10232000F0EAFEEBFF22F0EEFCEFFD7A957B1C124B
:10233000348022128590901C77129B042212D2299D
:10234000129B042274F7122454EB901C8BF0124061
:10235000F802AC3C74F712245474E9122A9CEAFE89
:10236000EBFF7508008A82F583A3A3A3E0C0E074A5
:1023700006122C8AD0E012A45DE0C0E07408122C92
:102380008AD0E0F0901EC0E0C0E07409122C8AD020
:10239000E012C43012AF53600D8A828B8312D3A92E
:1023A000123AC2E9701C7407122C8AE412A1E67476
:1023B00004122C8A128B7B122C8A74FDF0A374FFFA
:1023C0008046901AD4E060076401600302A456AC12
:1023D00018AD198E828F8312D3A9123AD48E828FB0
:1023E00083A3A3A3A3E0702E7407122C8A12ABFF61
:1023F0007402122C8A12ABCB8E828F8312AC0874BB
:1024000004122C8AE8F0A3E9F07402122A5E124248
:1024100060E9F508804012AC02740A122C8A12ABF3
:10242000CB7414122C8A740112ABC3E0C0E0741593
:10243000122C8AD0E0F07416122C8AE412A4CA126C
:10244000BFD3740C122C8AAA82AB83123480740A14
:10245000122A5E123606A908741702AC3912C4306B
:10246000A3A32274F712245474F8122A9CEAFEEBF8
:10247000FF7900901C83E064086005E06404704507
:1024800085188285198374FDF0A374FF12A1E67488
:1024900002122C8A12A4D47405122C8A12865EE0D1
:1024A000C0E07404122C8AD0E012A4CAE0C0E07428
:1024B00006122C8AD0E0F07407122C8AE412A6834C
:1024C000124260E9F9740802AC39F08E828F8322DF
:1024D000A3A3A3A3EAF0A3EBF02274F71224547988
:1024E0000112399CE9FE901AD4E060046401700383
:1024F000123B1C123AB61241A612411C901CCEE0AF
:10250000F912408CEEF902AC3C1285908518828558
:1025100019832274F2122454ECFEEDFF7C0075083E
:1025200000E92479602F24FC700302A5B924F3602C
:102530001324FC601514603F14600302A61F901C56
:102540008302A62F901C7102A62F12437AEA8E8274
:102550008F8302A6347508C11243868B0DA90DEA3C
:1025600049700302A6358A088B09750A007808129B
:1025700029BC7C1702A60C7508C9901AD4E0600724
:102580006401600302A63578FB79087A0080178819
:10259000828983E064FE7003A3E0F460010CE82408
:1025A00007F85001090A904E99E493FBEAC39B4057
:1025B000DEEC8E828D83F080617508C9901AD4E0BC
:1025C00060046401706F7508C178FB79087D008034
:1025D000090CE82407F85001090D904E99E493F591
:1025E00009EDC39509504E88828983E064FE70032B
:1025F000A3E0F460DDECF50CEA650C4B70D38808C1
:102600008909750A0078081229BC7C077D00EEFA5A
:10261000EFFB1232B874031229EE750800801674AD
:102620007F29C3945840057508C9800912A638E06F
:102630008E828D83F00284E074DF29F582E4341BFE
:10264000F5832274F412245474F9122A9C8A088B9C
:10265000098C0A8D0B8518828519837808122C2421
:102660007404122C8AE9F07405122C8AE4F07406C2
:10267000122C8AE412A683123BCA740702B35DE8E7
:10268000F0A3E9F0AA18AB192274F51224548A08B1
:102690008B098A828B8312850EEE4F700302A82F5E
:1026A000901C1112AF5360158A828B83A3A3E0F9AB
:1026B000EEFAEFFB901C1212B8CB1226328E828FEC
:1026C00083A3A3A3A3A3A3A3A3A3E0640260030221
:1026D000A79D8E828F83A3A3A3A3A3A3E05402701C
:1026E0000302A7C1850882850983A3A3E064E9707A
:1026F0000302A7C1850882850983A3A3E064CD7086
:102700000302A7C1850882850983A3A3E064F07052
:102710000302A7C1EE240D12ABBD6024EE241312F8
:10272000BFA5601C8E828F83A3A3A3A3A3A3A3A38F
:10273000A3A312A843701D7A307B011236AE801419
:10274000901EC5E0048E828F83A3A3A3A3A3A3A39B
:10275000A3A3A3F0850882850983A3A3E0701F7556
:102760000A0080097A367B011236AE050A85088296
:10277000850983A3A3A3E0F8E50AC39840E6EE2405
:102780000A12BFA514F0C0E012A1DAD0E012ABE546
:102790007404F0901EC612C34EE812A8328E828FC7
:1027A00083A3A3A3A3A3A3A3A3A3E0640260128EA5
:1027B000828F83A3A3A3A3A3A3A3A3A3E064067010
:1027C0006E8E828F83A3A3A3A3A3A3E0A2E0505F96
:1027D000850882850983A3A3E0F9EEFAEFFB123F97
:1027E000CC8E828F83A3A3A3A3A3A3E054FE12A83D
:1027F00043850882850983A3A3702AE070237A2F7A
:102800007B011236AE7E00850882850983A3A3A3CF
:10281000E0F8EEC39850187A367B011236AE0E807F
:10282000E67A318005E070077A2D7B011236AE0220
:102830008CD5F0A3E9F07A207B00901CCEE0F91251
:10284000331E2212A4CA12D3B712B8EE12A8502215
